:020000040000FA
:1000000040110120BDF400007738060091F4000093
:1000100091F4000091F4000091F4000091F40000CC
:10002000000000000000000000000000BDEB000028
:1000300091F400000000000061EB000091F400006A
:1000400041EC000041EC000041EC000041EC0000FC
:1000500041EC000041EC000041EC000041EC0000EC
:1000600041EC000041EC000041EC000041EC0000DC
:1000700041EC000041EC000041EC000041EC0000CC
:1000800041EC000041EC000041EC000041EC0000BC
:1000900041EC000041EC000041EC000041EC0000AC
:1000A00041EC000041EC000041EC000041EC00009C
:1000B00041EC000041EC000041EC000041EC00008C
:1000C00041EC000041EC000041EC000041EC00007C
:1000D00041EC000041EC000041EC000041EC00006C
:1000E00041EC000041EC000041EC000041EC00005C
:1000F00041EC000041EC000041EC000041EC00004C
:1001000041EC000041EC000041EC000041EC00003B
:1001100041EC000041EC000041EC000041EC00002B
:1001200041EC000041EC000041EC000041EC00001B
:1001300041EC000041EC000041EC000041EC00000B
:1001400041EC000041EC000041EC000041EC0000FB
:1001500041EC0000FFFFFFFF81F0004102E000BF23
:1001600083F0004330B54FEA41044FEA430594EA77
:10017000050F08BF90EA020F1FBF54EA000C55EAB2
:10018000020C7FEA645C7FEA655C00F0E2804FEA83
:100190005454D4EB5555B8BF6D420CDD2C4480EA65
:1001A000020281EA030382EA000083EA010180EA95
:1001B000020281EA0303362D88BF30BD11F0004FE3
:1001C0004FEA01314FF4801C4CEA113102D0404219
:1001D00061EB410113F0004F4FEA03334CEA133354
:1001E00002D0524263EB430394EA050F00F0A7806C
:1001F000A4F10104D5F1200E0DDB02FA0EFC22FA67
:1002000005F2801841F1000103FA0EF2801843FA5A
:1002100005F359410EE0A5F120050EF1200E012A4B
:1002200003FA0EFC28BF4CF0020C43FA05F3C01889
:1002300051EBE37101F0004507D54FF0000EDCF102
:10024000000C7EEB00006EEB0101B1F5801F1BD3AB
:10025000B1F5001F0CD349085FEA30004FEA3C0CAF
:1002600004F101044FEA445212F5800F80F09A80A5
:10027000BCF1004F08BF5FEA500C50F1000041EBA9
:10028000045141EA050130BD5FEA4C0C404141EBAD
:100290000101013C28BFB1F5801FE9D291F0000FA8
:1002A00004BF01460020B1FA81F308BF2033A3F157
:1002B0000B03B3F120020CDA0C3208DD02F1140C4E
:1002C000C2F10C0201FA0CF021FA02F10CE002F189
:1002D0001402D8BFC2F1200C01FA02F120FA0CFC82
:1002E000DCBF41EA0C019040E41AA2BF01EB0451CB
:1002F000294330BD6FEA04041F3C1CDA0C340EDCC9
:1003000004F11404C4F1200220FA04F001FA02F30B
:1003100040EA030021FA04F345EA030130BDC4F1C9
:100320000C04C4F1200220FA02F001FA04F340EABE
:100330000300294630BD21FA04F0294630BD94F06F
:10034000000F83F4801306BF81F480110134013D56
:100350004EE77FEA645C18BF7FEA655C29D094EAC7
:10036000050F08BF90EA020F05D054EA000C04BF45
:100370001946104630BD91EA030F1EBF0021002030
:1003800030BD5FEA545C05D14000494128BF41F0CF
:10039000004130BD14F580043CBF01F5801130BD33
:1003A00001F0004545F0FE4141F470014FF00000BE
:1003B00030BD7FEA645C1ABF194610467FEA655C6F
:1003C0001CBF0B46024650EA013406BF52EA033511
:1003D00091EA030F41F4002130BD00BF90F0000FFF
:1003E00004BF0021704730B54FF4806404F132043B
:1003F0004FF000054FF0000150E700BF90F0000FF4
:1004000004BF0021704730B54FF4806404F132041A
:1004100010F0004548BF40424FF000013EE700BFEA
:1004200042004FEAE2014FEA31014FEA02701FBF7A
:1004300012F07F4393F07F4F81F06051704732F0AC
:100440007F4208BF704793F07F4F04BF41F4002103
:10045000704730B54FF4607401F0004521F0004161
:100460001CE700BF50EA010208BF704730B54FF0EB
:1004700000050AE050EA010208BF704730B511F0EC
:10048000004502D5404261EB41014FF4806404F124
:1004900032045FEA915C3FF4D8AE4FF003025FEAAA
:1004A000DC0C18BF03325FEADC0C18BF033202EB2E
:1004B000DC02C2F1200300FA03FC20FA02F001FA88
:1004C00003FE40EA0E0021FA02F11444BDE600BF2B
:1004D00070B54FF0FF0C4CF4E06C1CEA11541DBFDA
:1004E0001CEA135594EA0C0F95EA0C0F00F0DEF8A5
:1004F0002C4481EA030621EA4C5123EA4C5350EA8A
:10050000013518BF52EA033541F4801143F48013DA
:1005100038D0A0FB02CE4FF00005E1FB02E506F06B
:100520000042E0FB03E54FF00006E1FB03569CF0C0
:10053000000F18BF4EF0010EA4F1FF04B6F5007FC6
:1005400064F5407404D25FEA4E0E6D4146EB060638
:1005500042EAC62141EA55514FEAC52040EA5E50C1
:100560004FEACE2EB4F1FD0C88BFBCF5E06F1ED86B
:10057000BEF1004F08BF5FEA500E50F1000041EBA2
:10058000045170BD06F0004646EA010140EA02004F
:1005900081EA0301B4EB5C04C2BFD4EB0C0541EA71
:1005A000045170BD41F480114FF0000E013C00F386
:1005B000AB8014F1360FDEBF002001F0004170BDAA
:1005C000C4F10004203C35DA0C341BDC04F11404C3
:1005D000C4F1200500FA05F320FA04F001FA05F24F
:1005E00040EA020001F0004221F0004110EBD3701C
:1005F00021FA04F642EB06015EEA430E08BF20EA48
:10060000D37070BDC4F10C04C4F1200500FA04F3EA
:1006100020FA05F001FA04F240EA020001F000417C
:1006200010EBD37041F100015EEA430E08BF20EAEF
:10063000D37070BDC4F1200500FA05F24EEA020E37
:1006400020FA04F301FA05F243EA020321FA04F066
:1006500001F0004121FA04F220EA020000EBD3701D
:100660005EEA430E08BF20EAD37070BD94F0000F1D
:100670000FD101F00046400041EB010111F4801F51
:1006800008BF013CF7D041EA060195F0000F18BF02
:10069000704703F00046520043EB030313F4801F3E
:1006A00008BF013DF7D043EA0603704794EA0C0FF8
:1006B0000CEA135518BF95EA0C0F0CD050EA41060E
:1006C00018BF52EA4306D1D181EA030101F000418B
:1006D0004FF0000070BD50EA410606BF10461946B3
:1006E00052EA430619D094EA0C0F02D150EA0136BF
:1006F00013D195EA0C0F05D152EA03361CBF104600
:1007000019460AD181EA030101F0004141F0FE419E
:1007100041F470014FF0000070BD41F0FE4141F422
:10072000780170BD70B54FF0FF0C4CF4E06C1CEA22
:1007300011541DBF1CEA135594EA0C0F95EA0C0FD7
:1007400000F0A7F8A4EB050481EA030E52EA033592
:100750004FEA013100F088804FEA03334FF08055B3
:1007600045EA131343EA12634FEA022245EA1115E0
:1007700045EA10654FEA00260EF000419D4208BF91
:10078000964244F1FD0404F5407402D25B084FEA3E
:100790003202B61A65EB03055B084FEA32024FF4EA
:1007A00080104FF4002CB6EB020E75EB030E22BF47
:1007B000B61A754640EA0C005B084FEA3202B6EB07
:1007C000020E75EB030E22BFB61A754640EA5C00B6
:1007D0005B084FEA3202B6EB020E75EB030E22BF46
:1007E000B61A754640EA9C005B084FEA3202B6EB47
:1007F000020E75EB030E22BFB61A754640EADC0006
:1008000055EA060E18D04FEA051545EA16754FEA67
:1008100006164FEAC30343EA52734FEAC2025FEA85
:100820001C1CC0D111F4801F0BD141EA00014FF014
:1008300000004FF0004CB6E711F4801F04BF0143E5
:100840000020B4F1FD0C88BFBCF5E06F3FF6AFAE01
:10085000B5EB030C04BFB6EB020C5FEA500C50F191
:10086000000041EB045170BD0EF0004E4EEA113114
:1008700014EB5C04C2BFD4EB0C0541EA045170BD1B
:1008800041F480114FF0000E013C90E645EA060E5F
:100890008DE60CEA135594EA0C0F08BF95EA0C0F8D
:1008A0003FF43BAF94EA0C0F0AD150EA01347FF4D5
:1008B00034AF95EA0C0F7FF425AF104619462CE7AC
:1008C00095EA0C0F06D152EA03353FF4FDAE10460F
:1008D000194622E750EA410618BF52EA43067FF460
:1008E000C5AE50EA41047FF40DAF52EA43057FF4F0
:1008F000EBAE12E74FF0FF3C06E000BF4FF0010CFB
:1009000002E000BF4FF0010C4DF804CD4FEA410C5E
:100910007FEA6C5C4FEA430C18BF7FEA6C5C1BD02B
:1009200001B050EA410C0CBF52EA430C91EA030FAC
:1009300002BF90EA020F0020704710F1000F91EA09
:10094000030F58BF994208BF90422CBFD8176FEAD7
:10095000E37040F0010070474FEA410C7FEA6C5CA5
:1009600002D150EA013C07D14FEA430C7FEA6C5CAC
:10097000D6D152EA033CD3D05DF8040B704700BFD8
:100980008446104662468C461946634600E000BF26
:1009900001B5FFF7B7FF002848BF10F1000F01BDF8
:1009A0004DF808EDFFF7F4FF0CBF012000205DF8C3
:1009B00008FB00BF4DF808EDFFF7EAFF34BF012048
:1009C00000205DF808FB00BF4DF808EDFFF7E0FFE1
:1009D00094BF012000205DF808FB00BF4DF808ED32
:1009E000FFF7CEFF94BF012000205DF808FB00BF99
:1009F0004DF808EDFFF7C4FF34BF012000205DF87B
:100A000008FB00BF4A0011D212F5001211D20DD519
:100A10006FF47873B3EB62520ED44FEAC12343F004
:100A2000004343EA505323FA02F070474FF00000AE
:100A3000704750EA013002D14FF0FF3070474FF05D
:100A4000000070474FEA4102B2F1E04324BFB3F522
:100A5000001CDCF1FE5C0DD901F0004C4FEAC00235
:100A60004CEA5070B2F1004F40EB830008BF20F019
:100A70000100704711F0804F21D113F13872BCBFD3
:100A800001F00040704741F480114FEA5252C2F128
:100A90001802C2F1200C10FA0CF320FA02F018BF71
:100AA00040F001004FEAC1234FEAD32303FA0CFCC4
:100AB00040EA0C0023FA02F34FEA4303CCE77FEA53
:100AC000625307D150EA01331EBF4FF0FE4040F49D
:100AD0004000704701F0004040F0FE4040F400004C
:100AE000704700BF7BB972B90029BEBF00204FF02C
:100AF000004106E008BF00281CBF6FF000414FF026
:100B0000FF3000F075B8ADF1080C6DE904CE002996
:100B100009DB002B1ADB01F0B4F8DDF804E0DDE9B5
:100B2000022304B07047404261EB4101002B1BDB04
:100B300001F0A7F8DDF804E0DDE9022304B040424B
:100B400061EB4101524263EB43037047524263EB56
:100B5000430301F096F8DDF804E0DDE9022304B078
:100B6000404261EB41017047524263EB430301F0A5
:100B700088F8DDF804E0DDE9022304B0524263EBBB
:100B80004303704753B94AB9002908BF00281CBF66
:100B90004FF0FF314FF0FF3000F02AB8ADF1080CF4
:100BA0006DE904CE01F06DF8DDF804E0DDE9022323
:100BB00004B07047D0B500220B4B06460F46FFF736
:100BC00087FCFFF71FFF0446FFF708FC0022074BD6
:100BD000FFF77EFC02460B4630463946FFF7C0FA67
:100BE000FFF710FF2146D0BD0000F03D0000F041AE
:100BF000704700BF844641EA000313F0030349D164
:100C0000403A23D30B6803604B6843608B68836072
:100C1000CB68C3600B6903614B6943618B69836176
:100C2000CB69C3610B6A03624B6A43628B6A83625E
:100C3000CB6AC3620B6B03634B6B43638B6B836346
:100C4000CB6BC36340304031403ADBD230320BD300
:100C50000B6803604B6843608B688360CB68C3603C
:100C600010301031103AF3D20C3205D351F8043B56
:100C700040F8043B043AF9D2043208D0D2071CBF32
:100C800011F8013B00F8013B01D30B88038060465B
:100C9000704700BF082A13D38B07B1D010F00303AD
:100CA000AED0C3F10403D21ADB071CBF11F8013B1D
:100CB00000F8013BA4D331F8023B20F8023B9FE748
:100CC000043AD9D3013A11F8013B00F8013BF9D2BB
:100CD0000B7803704B7843708B7883706046704755
:100CE00080EA010C1CF0030F37D110F0030C20F048
:100CF000030021F0030150F8042B08BF51F8043B16
:100D00000ED08CF0030C6FF07F434FEACC0C23FA2B
:100D10000CFC51F8043B42EA0C0243EA0C0300BF0E
:100D2000A2F1013C9A4201BF2CEA020C1CF0803F68
:100D300050F8042B51F8043BF2D04FEA02604FEA1E
:100D40001222012828BFB0EB036F08BF1B0AF4D0A2
:100D500003F0FF03000EC01A704710F0030F0AD013
:100D600010F8012B11F8013B012A28BF9A42F4D058
:100D7000A2EB030070474DF8045D50F8042B01F01E
:100D8000030521F0030151F8043B022D26D04DD874
:100D900022F07F45B5EB132FA2F1013C2CEA020CA7
:100DA0000DD11CF0803C08BF51F8043B0AD185EA04
:100DB0000205B5EB036F0CD150F8042BE8E74FEABE
:100DC00013235BE03CF07F4C54D10B784FEA126563
:100DD00054E04FEA126503F0FF034FE04FEA02458B
:100DE000A2F1013C4FEA15452CEA020CB5EB134F7A
:100DF00018D11CF0803C08BF51F8043B07D185EAAC
:100E00000205B5EB034F09D150F8042BE6E75FEA82
:100E10000C4C2FD10B884FEA12452FE04FEA0343C9
:100E20004FEA12454FEA134328E000BF02F0FF05E6
:100E3000B5EB136FA2F1013C2CEA020C0DD11CF0B2
:100E4000803C08BF51F8043B0AD185EA0205B5EBA6
:100E5000032F0AD150F8042BE8E74FEA13630DE0A3
:100E600012F0FF0F06D051F8043B4FEA122523F091
:100E70007F4303E04FF0000020BC704705F0FF0205
:100E800003F0FF00012828BF904204BF2D0A1B0A6F
:100E9000F4D0A2EB000020BC704700BF4FEA410C29
:100EA0007FEA6C5C02D150EA013C0AD14FEA430C64
:100EB0007FEA6C5C02D152EA033C02D14FF00000A1
:100EC00070474FF0010070474FEA410212F50012DF
:100ED00015D211D56FF47873B3EB625212D94FEA81
:100EE000C12343F0004343EA505311F0004F23FA6B
:100EF00002F018BF404270474FF00000704750EAC0
:100F0000013005D111F0004008BF6FF0004070477C
:100F10004FF00000704700BF2DE9F14F03F11C04B2
:100F200002EB840C4FEA930B8A68CB680868496827
:100F300000F046F93CE9F0006040694072407B40B7
:100F40000BF1060E4EE083EA134480EA134582EA71
:100F5000134746BA96EA3444604000F00F1684EA1C
:100F6000063420F00F1684EA161054BA94EA0106EB
:100F7000724002F00F1486EA043622F00F1486EA5B
:100F800014124CBA6540694001F00F1485EA04352B
:100F900021F00F1485EA14115CBA67407B4003F01E
:100FA0000F1487EA043723F00F1487EA141344BAA6
:100FB00044404DBA4D4056BA56405FBA5F4087EA4A
:100FC000174886EA174B84EA17464FEA38488BEAF7
:100FD0001B4485EA1B4788EA1B4580EA3440694088
:100FE00072407B4000F0703400F0803500F00F302C
:100FF00040EA440040EAD50080EA900404F033243B
:1010000080EA8400604001F0703401F0803501F026
:101010000F3141EA440141EAD50181EA910404F02B
:10102000332481EA8401614002F0703402F080359B
:1010300002F00F3242EA440242EAD50282EA920406
:1010400004F0332482EA8402624003F0703403F037
:10105000803503F00F3343EA440343EAD50383EAC0
:10106000930404F0332483EA84036340C943DB43DD
:1010700081EA000483EA044686EA020183EA014326
:1010800082EA334583EA14435C4084EA00077FEA3E
:10109000040A8AEA024A8AEA010B87EA11488AEAC4
:1010A000374A80EA060181EA1A418AEA030A04EA19
:1010B0000A00454088EA040707EA0B0041408AEA33
:1010C0000B0608EA060084EA34428AEA3A4602EA53
:1010D000060358404540414087EA37438BEA3B408E
:1010E00003EA000985EA090582EA0309464006EA9F
:1010F0000906714085EA010005EA3546464006EAE0
:10110000314181EA304181EA364606EA304686EAD4
:10111000354634400F4086EA010508EA050886EAAC
:101120003640024088EA020881EA314213405C40BE
:1011300080EA020309EA030987EA0907674088EAA7
:10114000040806EA0A0601EA0B018AEA0B042540B4
:101150008AEA3A44204045408BEA3B4B02EA0B02C4
:10116000564084EA0B04234059406E40694087EAA8
:10117000364080EA384080EA060380EA104481EA7B
:10118000134585EA344585EA17427D4082EA3541B8
:1011900080EA05403CE9F0006040694072407B40D5
:1011A000BEF1010E3FF6CFAE20BC00F05FF8286024
:1011B0006960AA60EB60BDE8F08F00BF00F000BA84
:1011C00080EA101404F0F01480EA0410604081EA10
:1011D000111404F0F01481EA0411614082EA12143F
:1011E00004F0F01482EA0412624083EA131404F05B
:1011F000F01483EA0413634080EA102404F47F446B
:1012000080EA0420604081EA112404F47F4481EAEA
:101210000421614082EA122404F47F4482EA042219
:10122000624083EA132404F47F4483EA0423634086
:1012300081EA500404F0553480EA4400614083EAB6
:10124000520404F0553482EA4402634082EA900476
:1012500004F0333480EA8400624083EA910404F0AD
:10126000333481EA84016340704700BF82EA90040E
:1012700004F0333480EA8400624083EA910404F08D
:10128000333481EA8401634081EA500404F0553428
:1012900080EA4400614083EA520404F0553482EA53
:1012A0004402634080EA102404F47F4480EA04206E
:1012B000604081EA112404F47F4481EA0421614002
:1012C00082EA122404F47F4482EA0422624083EA20
:1012D000132404F47F4483EA0423634080EA101457
:1012E00004F0F01480EA0410604081EA111404F064
:1012F000F01481EA0411614082EA121404F0F0143F
:1013000082EA0412624083EA131404F0F01483EAC0
:1013100004136340704700BF2DE9F14F94464FEA34
:10132000930B8A68CB6808684968FFF749FF0BF19F
:10133000060E33E083EA134480EA134582EA13473A
:1013400046BA96EA3444604000F00F1684EA063448
:1013500020F00F1684EA161054BA94EA010672407F
:1013600002F00F1486EA043622F00F1486EA1412F3
:101370004CBA6540694001F00F1485EA043521F04C
:101380000F1485EA14115CBA67407B4003F00F1418
:1013900087EA043723F00F1487EA1413BCE8F0003F
:1013A0006040694072407B4000F0E03400F010354E
:1013B00000F00F3040EA540040EAC50080EA900493
:1013C00004F0332480EA8400604001F0E03401F04E
:1013D000103501F00F3141EA540141EAC50181EABB
:1013E000910404F0332481EA8401614002F0E03486
:1013F00002F0103502F00F3242EA540242EAC5020E
:1014000082EA920404F0332482EA8402624003F008
:10141000E03403F0103503F00F3343EA540343EA9A
:10142000C50383EA930404F0332483EA840363400E
:1014300081EA324787EA134581EA354690EA060495
:1014400084EA034B82EA1B4280EA044484EA0544AE
:1014500083EA144A85EA14448BEA044B84EA37444D
:1014600081EA0B4181EA164104EA0A00454082EA1A
:1014700004082BEA080041408AEA0B0602EA06004B
:1014800084EA34438AEA3A4603EA0607784045404C
:10149000414088EA38478BEA3B4007EA000985EA81
:1014A000090583EA0709464006EA0906714085EA0C
:1014B000010005EA3546464006EA314181EA3041FD
:1014C00081EA364606EA304686EA3546344008EA7E
:1014D000010886EA01052A4086EA364003405A4060
:1014E00081EA31431F407C4080EA030709EA07098B
:1014F00088EA0908544088EA020806EA0A0601EA6E
:101500000B018AEA0B0215408AEA3A421040454034
:101510008BEA3B4003405E404240174079404D40DB
:101520004E40E443F64386EA18435D4085EA0540B1
:1015300083EA134386EA034183EA384284EA11438B
:1015400083EA04435FEA3343BEF1010E3FF6F2AE95
:101550001ED4BCE8F0006040694072407B4020BC73
:10156000FFF784FE28606960AA60EB60BDE8F08F39
:101570002DE9E0414FF2F00280EA1031114080EA9B
:101580000130484041088208C3084FF0000E4FE781
:1015900000F0113001F0113102F0113203F011337B
:1015A00040EA410040EA820040EAC3004FF2F00204
:1015B00080EA1031114080EA01304840BDE8E08106
:1015C0002DE9F04F02F11C050646074600EB8508A1
:1015D00051F8040B043A46F8040BF9D14FF0010C12
:1015E000FFF7C6FF5FEA302080EA0C001ECF4140C3
:1015F0004A4053405C401EC62000464517D04FEA83
:101600004C0C1CF4807F18BFACF1E50C2C2DE7D0FE
:101610003C2D06D1FFF7ACFF06CF41404A4006C63D
:10162000100006CF41404A4006C61000D8E736E910
:101630000F00FFF7C5FD043D86E80F00F7D1BDE8B8
:10164000F08F00BF2DE9F04FB0E8FE0783B02DE921
:10165000010790E8005F4FF00A0006900198DB193F
:101660009CEA030C18EB3C4897EA080713EB375346
:1016700093EA3C4C18EB3C6898EA375724189EEAEA
:10168000040E19EB3E4990EA090014EB305494EA39
:101690003E4E19EB3E6999EA3050CDE90489DDE907
:1016A000028949199AEA010A18EB3A4895EA0805AD
:1016B00011EB355191EA3A4A18EB3A6898EA3555F8
:1016C00092199BEA020B19EB3B4996EA090612EBC9
:1016D000365292EA3B4B19EB3B6999EA365613EBCB
:1016E000706393EA3B6B18EB3B4898EA706013EB2E
:1016F000305393EA3B4B5FEA3B6B18EB0B0898EADD
:1017000030505FEA706014EB756494EA3C6C19EB3E
:101710003C4999EA756514EB355494EA3C4C5FEA10
:101720003C6C19EB0C0999EA35555FEA7565CDE912
:101730000289DDE9048911EB766191EA3E6E18EBCE
:101740003E4898EA766611EB365191EA3E4E5FEAE2
:101750003E6E18EB0E0898EA36565FEA766612EB94
:10176000776292EA3A6A19EB3A4999EA776712EB9B
:10177000375292EA3A4A5FEA3A6A19EB0A0999EA59
:1017800037575FEA77670190069801387FF465AFB5
:1017900001BC80E8005FBDE8000700E9FE0703B078
:1017A000BDE8F08F30B44FF0000310F8014B11F892
:1017B000015B013A84EA050443EA0403F5D1A3F18D
:1017C00001034FEAD37030BC704700BF4FF00003F5
:1017D00010F8012B013943EA0203F9D1A3F1010307
:1017E0004FEAD370704700BF30B411F8014B12F8C4
:1017F000015B6C4000F8014B013BF6D130BC7047F7
:101800002DE9F14FF8C892E8005E19EB03095AEB95
:10181000040A5BEB050B5CEB060C4EEB070E91E844
:10182000E001A9FB0502AAFB0543E9FB6624EAFBEC
:101830006634A9FB0765E9FB6845B1E80003EBFBEB
:101840006836ECFB6846EEFB6856ABFB0987ECFBA1
:101850006957EEFB696791E80202EAFB6148EBFB1E
:101860006158ECFB6168EEFB61784FF00001EAFB28
:101870000951EBFB6961ECFB6971EEFB69814FF487
:10188000A03C4FEA154949EA06495FF0000AE9FB26
:101890000C0A4FEA164646EA0746E6FB6C2A4FEA70
:1018A000174747EA0847E7FB6C3A4FEA184848EA07
:1018B0000148E8FB6C4AADB25544AF0805F003059A
:1018C00007EB8707C01952F1000153F1000254F1F0
:1018D000000345F1000420BC1FC5BDE8F08F00BF28
:1018E00030B490E83C10511D53F1000154F1000157
:1018F00055F100014CF100014FEA9101494201F01C
:101900000501521853F1000354F1000455F100058C
:101910004CF1000C0CF0030C80E83C1030BC70471C
:101920002DE9F04F90E8F00F00F140004FF0040E69
:1019300059E0F0B4826BC36B0468052524268759EF
:101940003C444FEA724787EAF24787EA92273C44D1
:1019500042684FEAF21787EAB24787EAD2073C4467
:1019600040F8044B032D08BF6FF01B0687593A441B
:101970004FEA734787EAF34787EA93273A44436875
:101980004FEAF31787EAB34787EAD3073A4440F8A8
:10199000042B87593B444FEA744787EAF44787EAA8
:1019A00094273B4444684FEAF41787EAB44787EA30
:1019B000D4073B4440F8043B013DC0D1A0F13C00BA
:1019C000076A3C444FEA724787EAF24787EA922760
:1019D0003C4402684FEAF21787EAB24787EAD20727
:1019E0003C44C463F0BC4FF0020288EA781C8CEAE5
:1019F000F84C0BEBBC1C8AEA090303EA080383EAF0
:101A00000A039C4450F8043B9C4451F8043B9C441A
:101A1000674444EA050B0BEA060B04EA05034BEAAC
:101A2000030BE34484EAF42383EA34530BEBB30B54
:101A300087EA771C8CEAF74C0AEBBC1C89EA08039E
:101A400003EA070383EA09039C4450F8043B9C44DF
:101A500051F8043B9C4466444BEA040A0AEA050A2E
:101A60000BEA04034AEA030AE2448BEAFB2383EA13
:101A70003B530AEBB30A86EA761C8CEAF64C09EB78
:101A8000BC1C88EA070303EA060383EA08039C44B4
:101A900050F8043B9C4451F8043B9C4465444AEA9A
:101AA0000B0909EA04090AEA0B0349EA0309E144BC
:101AB0008AEAFA2383EA3A5309EBB30985EA751CEB
:101AC0008CEAF54C08EBBC1C87EA060303EA050325
:101AD00083EA07039C4450F8043B9C4451F8043BC0
:101AE0009C44644449EA0A0808EA0B0809EA0A0324
:101AF00048EA0308E04489EAF92383EA395308EB0A
:101B0000B30884EA741C8CEAF44C07EBBC1C86EA2C
:101B1000050303EA040383EA06039C4450F8043BEC
:101B20009C4451F8043B9C44E34448EA090707EA13
:101B30000A0708EA090347EA0307674488EAF82323
:101B400083EA385307EBB3078BEA7B1C8CEAFB4C28
:101B500006EBBC1C85EA040303EA0B0383EA0503D6
:101B60009C4450F8043B9C4451F8043B9C44E244A0
:101B700047EA080606EA090607EA080346EA0306F2
:101B8000664487EAF72383EA375306EBB3068AEA0B
:101B90007A1C8CEAFA4C05EBBC1C84EA0B0303EAC2
:101BA0000A0383EA04039C4450F8043B9C4451F824
:101BB000043B9C44E14446EA070505EA080506EAB9
:101BC000070345EA0305654486EAF62383EA3653AC
:101BD00005EBB30589EA791C8CEAF94C04EBBC1CD3
:101BE0008BEA0A0303EA090383EA0B039C4450F8D7
:101BF000043B9C4451F8043B9C44E04445EA060401
:101C000004EA070405EA060344EA0304644485EA97
:101C1000F52383EA355304EBB304013A7FF4E5AED0
:101C2000A0F14000BEF1010E7FF483AEA0F1400CA4
:101C30009CE80F00001949199219DB19ACE80F0054
:101C40009CE80F004044494452445B44ACE80F0018
:101C5000BDE8F08F38B50022002304460D46FEF79C
:101C6000A9FE28B920462946BDE83840FEF7A2BFA4
:101C7000204605F10041FEF79DFF404261EB410126
:101C800038BD2DE9F04786468C460846089E154625
:101C900074461946002B40F0C1808542B2FA82F2A8
:101CA00045D94AB1C2F1200300FA02FC95409440A4
:101CB0002EFA03F343EA0C0C4FEA154EA8B2230C9C
:101CC000BCFBFEF80EFB18CC08FB00F943EA0C4302
:101CD000994528D9EB1808F1FF3704D2994502D964
:101CE000A8F102072B44A3EB0903A4B2B3FBFEFC4B
:101CF0000EFB1C330CFB00F044EA0344A04214D951
:101D00002C190CF1FF3304D2A04202D9ACF102032A
:101D10002C44241A43EA07401EB1D4400023346007
:101D20007360BDE8F0874746DDE76346F1E792BBA5
:101D3000431B01214FEA154EAFB2200CB3FBFEFC52
:101D40000EFB1C330CFB07F840EA0343984561D9AE
:101D5000EB180CF1FF3004D2984502D9ACF1020027
:101D60002B44A3EB0803A4B2B3FBFEFC0EFB1C3315
:101D70000CFB07F744EA0344A7424DD92C190CF198
:101D8000FF3304D2A74202D9ACF102032C44E41B76
:101D900043EA0040C0E7C2F120039540944020FA96
:101DA00003F12EFA03F34FEA154E9040AFB203430E
:101DB000B1FBFEFC0EFB1C10190C0CFB07F841EAF2
:101DC0000041884522D969180CF1FF3004D28845BA
:101DD00002D9ACF102002944A1EB08019BB2B1FB8E
:101DE000FEFC0EFB1C110CFB07F743EA01439F426C
:101DF0000ED9EB180CF1FF3104D29F4202D9ACF19D
:101E000002012B44DB1B41EA004193E76046E3E714
:101E10006146F7E76046A4E76346B8E7834206D920
:101E200016B9002108467CE7C6E900E0F9E7B3FAF5
:101E300083F78FB9834201D3724508D8BEEB020401
:101E400060EB030301209C461EB9002169E7384678
:101E5000FAE7C6E9004CF8E7C7F1200CBB400EFAE0
:101E600007F522FA0CF42EFA0CF1BA401C4320FAC2
:101E70000CF3B8404FEA144901431FFA84FEB3FB48
:101E8000F9F809FB18300B0C08FB0EFA43EA004383
:101E90009A4540D9E31808F1FF3004D29A4502D997
:101EA000A8F102002344A3EB0A0389B2B3FBF9F8BB
:101EB00009FB183308FB0EFE41EA03418E452CD97D
:101EC000611808F1FF3304D28E4502D9A8F102034C
:101ED000214443EA0040A1EB0E01A0FB02984145DA
:101EE000CE46434602D306D14D4504D20138B9EB64
:101EF000020E68EB0403002EA7D0B5EB0E0261EBD7
:101F0000030101FA0CFC22FA07F3F9404CEA03033F
:101F1000C6E9003199E74046C5E74346D9E70000E6
:101F2000012870B50D4606D061F006FD162303604A
:101F30004FF0FF3070BD72F08BFE1D4A2B686E684B
:101F4000A3FB023402FB0644AD685B1944EBE57465
:101F5000C50B45EA4145A5FB0256C90B02FB0161D1
:101F60005B1BC0F30E0064EB0101A0FB0204C20B7B
:101F700042EA4442981A61F100010BA3D3E900231D
:101F8000FEF7B0FD4FF02003EFF3118483F31288C6
:101F9000BFF36F8F074BC3E900019A6084F3118888
:101FA000BFF36F8F0020C5E700CA9A3B0000000016
:101FB00000CA9A3BE82900202DE9F04182B0714D1A
:101FC00000AFD5F85C31996811F001011AD140F6E3
:101FD00003403A1D0EF07AFD0446002840F0BD8013
:101FE0007868C3681B785BB905F1CC03D3E8AF2FE1
:101FF00002F00902D3E8EF1FC3E8E42F002CF9D167
:1020000016F046F9002141F203003A1D0EF05EFD84
:102010000446002840F0A1807B685B4EDA68D2F865
:102020000100D2F8051003C6184616F031F9214612
:1020300041F201003A1D0EF049FD0446002840F02F
:102040008C807868C3685A7885F868205A88A5F823
:102050006A201A7985F86920B3F80720A5F86C2062
:10206000B3F80530A5F86E3016F012F9214641F2AA
:1020700002003A1D0EF02AFD044600286DD1D7F863
:1020800004C0DCF80C20531C4132344618685968EF
:10209000083303C493422646F7D1604616F0F8F899
:1020A00010F09EFD0446002857D195F8823098061E
:1020B0001ED43648036813F0060F0ED06C4688B065
:1020C0006A46334B4FF4C4515361324B936103233F
:1020D00042F8103F61F00BFDA54695F874305906A3
:1020E0005ED42A4803685A073CD16FF0120434E0EA
:1020F000072140F633400EF0AFFC0646002800F002
:10210000558107210C3063F08BFD6FF0680303707D
:102110000623C0F802408471447004712246C370E3
:10212000314640F633400EF0D1FC0446A8B90121F7
:1021300040F631400EF090FC0646002800F0368153
:1021400001210C3063F07BFD2246314640F63140E0
:102150000EF0BCFC04460028BFD020460837BD4620
:10216000BDE8F0816C4688B06A460B4B4FF4C25113
:1021700053610A4B9361032342F8103F61F0B7FCAF
:10218000A546B2E70000002070000020E012002009
:10219000ED2008008E2608001F2108008626080072
:1021A000002142F203003A1D0EF090FC0446002884
:1021B000D3D17B68B24EDA68D2F80100D2F80510AC
:1021C00003C6184616F064F8214642F202003A1D92
:1021D0000EF07CFC04460028BFD17C68E368B3F8AD
:1021E000012091B2A5F8FC2029B1DA78114606F158
:1021F000280072F055FA204616F04AF895F87460F7
:1022000016F0200618D1022140F66D400EF024FC95
:102210000446002800F0CA8002210C3063F000FD63
:102220000123214603704670324640F66D400EF0A1
:102230004DFC0446002890D195F894301B0712D528
:10224000002142F21C003A1D0EF040FC044600281A
:1022500083D17868C368D3F80120D3F80530C5E985
:10226000362316F015F895F8D0309E0622D538465C
:10227000B91C0EF0AFFC044600287FF46EAF0421B9
:1022800042F224000EF0E8FB0646002800F08E80A3
:1022900004210C3063F0C4FC3B88224603807B8819
:1022A0003146438042F224000EF010FC0446002820
:1022B0007FF453AF95F8D0305C0610D5002142F280
:1022C0002A003A1D0EF002FC044600287FF445AFB8
:1022D0007868C3685B7885F8183115F0D9FF082154
:1022E00042F201000EF0B8FB044600285ED008213F
:1022F0000C3063F095FC95F8D01040F2022311F0F9
:10230000400F08BF0323024688074CBF43F02C0050
:1023100043F00C0095F8D1308E0648BF40F04000E5
:1023200013F0090F18BF40F40060CB0795F89A30FE
:1023300048BF40F0100003F00603062B08BF40F42E
:10234000C070002161F0DEFB2146002242F2010054
:102350000EF0BCFB044600287FF4FFAE95F8743005
:10236000B5F8FC109E0624D4C9B941F205003A1D07
:102370000EF0ACFB044600287FF4EFAEB5F8FC305D
:102380007C684BB9E368B3F80120A5F8FC209A8873
:102390003C48114672F084F9204615F079FF082177
:1023A00040F601400EF058FB0446D8B96FF06804BF
:1023B000D3E60029F3D1344803685C0702D16FF0FB
:1023C0000404CAE66C4688B06A46304B4FF4C251EA
:1023D00053612F4B9361032342F8103F61F087FB59
:1023E000A546ECE708210C3063F01AFC95F8D030D4
:1023F0000246D9073AD44FF00051264861F082FBDB
:102400002146002240F601400EF060FB0446002801
:102410007FF4A3AE01463A1D4FF601400EF056FB85
:10242000194C00283CD0236813F0060F0FD06D46DE
:1024300088B06A46184B4FF4C4515361174B20467D
:102440009361032342F8103F61F051FBAD460FF05A
:10245000FFFF044600287FF480AE11F097FC04468D
:1024600000287FF47AAE0FF00FFA76E602A1D1E9E8
:102470000001C3E7AFF300809088000200800020D5
:10248000D000002000010020E012002047210800B9
:102490009F260800108800026E21080061260800AF
:1024A0007B68DD68236803F00703022B6CD9B5F85D
:1024B0000130E846032B98BF584A8AB094BF52F8BF
:1024C000231057496A46136240F2013355489384FA
:1024D000554E564BC2E9066150614FF4335142F8F4
:1024E000103F534861F003FB2368C54603F0070320
:1024F000022B49D9B5F80120B5F80330022A64D17E
:10250000032B62D84B4A52F82310E8468AB06A4639
:10251000C2E9071340F2013347489384434BC2E9B1
:1025200005064FF4335142F8103F414861F0DFFA9D
:102530002368C54603F00703022B25D96B7995F86C
:1025400006E0032B98BF3D4AB5F807C0D5F809004F
:102550006D468EB094BF52F8231031496A46C2E9E5
:10256000071340F20133DFF8D8801386354BD06271
:10257000C2E90586C2E909EC44F2C0412C4842F8A0
:10258000103F61F0B4FAAD46786815F081FE002185
:102590004FF602403A1D0EF099FA0546B8B123688D
:1025A00013F0060F3FF453AF6C4688B06A46264BD3
:1025B00053611D4B4FF4C451936103231C4842F8EF
:1025C000103F61F094FAA54641E715499DE7786808
:1025D0001E4EC368B3F80130A6F8B93015F058FEA6
:1025E00096F8B9305B077FF532AF29464FF60340C6
:1025F0003A1D0EF06BFA48B1236813F0060F3FF452
:1026000026AF6C4688B06A46114BD1E77868C3683C
:102610005B7886F8B83015F03BFE18E760A7070036
:10262000E0EB070096210800612608000500000184
:10263000E012002050A70700B321080040A70700C0
:10264000CF2108000800000100220800000000203F
:102650002D220800000000002DE9F04F0C46D0F8B4
:102660002011A3B00B6B154615905BBB159818A9EC
:10267000276ED4F88060D5F880B06BF016FF78B381
:102680004FF0000A06F59C5308339B4522D82B6D6A
:10269000B3F57A6F179355DD236DB3F57A6FACBF41
:1026A00000230123002F16934EDB0BF59C530833B8
:1026B0009E4200F24081BAF1190F00F33C814FF0C5
:1026C000020877E00622183105F120004EF05EFA8C
:1026D0000028CBD14FF00108404623B0BDE8F08F71
:1026E000DDF870A0BAF1000F04D1DDF86CA0BAF1EA
:1026F000000FC7D042F20F711D9B189A8B420AD16E
:102700006FF47A63D31840F2657293428CBF6FF016
:1027100058036FF05B032046AAEB03086AF0B6F992
:10272000D4F88C20034604F194010AB9D4F890201F
:10273000206D5746CDE9008015983BF051FAC2460E
:1027400006469FE70023ADE72B6E169A03EB420384
:102750009F4215DD5846FDF741FE804630468946CA
:10276000FDF73CFE4FF03332774BFDF7B1FE0246EA
:102770000B4640464946FEF71DF9002840F0DB8035
:102780000BF59C5308339E4200F2D580BAF1190F25
:1027900000F3D18017F1550F69DB17F1500F8EDB75
:1027A00017F14B0F66DB17F1460FB4BF4FF004086B
:1027B0004FF005083046FDF711FE814658468A461F
:1027C000FDF70CFE02460B46CDE9122300225F4BBB
:1027D000FDF77EFE02460B4648465146FEF708F9D5
:1027E00000284AD008F10A08169B0BB1A8F102088C
:1027F0002B6E0321CDE9103BDA1B179B90450F93FD
:1028000095F82530524A0E9395F82430C8BF4FF002
:1028100000080D9395F82330D8BF4FF001080C93B2
:1028200095F822300B9395F821300A9395F82030D3
:102830000797CDE90863236D069394F82530059337
:1028400094F82430049394F82330039394F82230BE
:10285000029394F82130019394F8203000933D4B7B
:102860001598C8BF13463C4A44F0EEFC34E74FF0DD
:1028700001089FE74FF003089CE74FF03332DDE992
:102880001201314BFDF724FE02460B4648465146E5
:10289000FEF7AEF810B108F10508A5E728A3D3E9C3
:1028A0000023DDE91201FDF713FE02460B46484600
:1028B0005146FEF79DF810B108F1020894E7B345C0
:1028C00002D208F101088FE70022204B484651460A
:1028D000FDF7FEFD02460B46DDE91201FEF788F822
:1028E00010B1A8F10A087FE74FF03332164B484683
:1028F0005146FDF7EDFD02460B46DDE91201FEF7FC
:1029000077F810B1A8F105086EE70DA3D3E900230D
:1029100048465146FDF7DCFD02460B46DDE9120153
:10292000FEF766F810B1A8F102085DE7B34588BF6D
:1029300008F1FF3858E74FF00008CDE6AFF300800C
:102940009A9999999999F13F3333F33F0000F83FF1
:102950007D7209006972090093720900000000008D
:10296000C1F30A5C02460B462DE9F041ACF2FF359B
:102970000C460646132D34DC002D20DBDFF8D0801A
:102980000F4648FA05F801EA080C5CEA000C2DD065
:102990002DA3D3E90023FDF7E5FB00220023FEF77A
:1029A00027F840B1002C03DD4FF480132B411F4466
:1029B00027EA0804002621463046BDE8F08122A31C
:1029C000D3E90023FDF7CEFB00220023FEF710F829
:1029D0000028F0D0002C33DB3443EBD000261D4C14
:1029E000E9E7332D06DDB5F5806F26D01046194690
:1029F000BDE8F081ACF2134C4FF0FF3727FA0CF72B
:102A00003842F3D010A3D3E90023FDF7ABFB00223B
:102A10000023FDF7EDFF0028CDD0002C334609DD63
:102A2000142D06D0C5F134050122AA4013449E425C
:102A300000D9013423EA0706BDE7FDF793FBD7E78A
:102A400000264FF00044B6E79C7500883CE4377ED2
:102A5000FFFF0F000000F03FF8B5C1F30A5604462F
:102A60000D4617460B462EBB21F00043034320D0F2
:102A70002D4B0022FDF72CFD2C4B04460D469F42AA
:102A800041DBC1F30A560B46363EBA1940F2FE71DD
:102A90008A4217DC002A30DC12F1350F1EDB244E8F
:102AA000363220461E40234B46EA02510022FDF7F3
:102AB0000FFDF8BD40F2FF729642E6D10246FDF7E7
:102AC00051FBF8BD14A3D3E90023ED0F1A481C46AF
:102AD00065F3DF742146FDF7FBFCF8BD05F000440B
:102AE000164844F0D27141F4B7310DA3D3E9002365
:102AF00041F01F01FDF7ECFCF8BD0D4E20461E40D5
:102B000046EA0251F8BD06A3D3E90023FDF7E0FC35
:102B1000F8BD00BFAFF300809C7500883CE4377EB1
:102B200059F3F8C21F6EA50100005043B03CFFFFEF
:102B3000FFFF0F800000903C9C75008859F3F8C29D
:102B40002DE9F04F016C9BB016461F46279D04905F
:102B5000CDE9026749B1426C0123044693404A60C3
:102B60008B6054F0E3FB00232364B7F10009C0F24B
:102B7000B68000232B607E4B33EA090300F0BA8055
:102B80000022DDE90234184621460023CDE9080180
:102B9000FDF706FF804668B10123269A1360289B43
:102BA00013B1744B289A1360DFF8CC8140461BB0F8
:102BB000BDE8F08F18AB0498019319AB0093DDE9E1
:102BC000082354F0B9FF83465FEA195540F0A98005
:102BD000DDE91885454405F23243202B40F34D8250
:102BE000C3F1400309FA03F905F2124326FA03F38D
:102BF00049EA0300FDF7F2FB013D0123A1F1F87161
:102C0000109300225D4BFDF7ABFA53A3D3E90023E9
:102C1000FDF75EFC52A3D3E90023FDF7A3FA0646B5
:102C20000F462846FDF7EAFB4FA3D3E90023FDF743
:102C30004FFC02460B4630463946FDF793FA0646EE
:102C40000F46FEF741F900228246002330463946FE
:102C5000FDF7B0FE002840F00382A8EB0508BAF1AA
:102C6000160F08F1FF33069300F2A781444E06EBDE
:102C7000CA06DDE90801D6E90023FDF79BFE00281E
:102C800000F0848000230AF1FF3A0F9308F1FF332C
:102C9000002BC0F2998100230A93BAF1000F7BDA6E
:102CA0000A9BCDF82CA0A3EB0A030A93CAF10003F8
:102CB0004FF0000A0E93249B092B77D8052B40F385
:102CC000E181043B00272493249B023B032B00F269
:102CD0005986DFE813F05404510447042C040123FF
:102CE00029F000492B60224BCDF80C9033EA090300
:102CF0007FF446AFC9F3130942F20F73269A59EADB
:102D0000060913601DD0289BDFF87880002B3FF464
:102D10004DAF08F10303289A404613601BB0BDE88D
:102D2000F08FDDE90812CDF84080A5F2FF35C2F33F
:102D300013030846DDF8608043F07F5141F44011F1
:102D40005FE7289BDFF84080002B3FF42FAF08F1AE
:102D50000803E0E7AFF3008061436F63A787D23FCA
:102D6000B3C8608B288AC63FFB799F501344D33F7A
:102D70000000F07FE9D90700E8D907000000F83F1C
:102D80006096070064DA070058DA0700B8F1000F10
:102D900040F3B1840F900A90069BCDF82CA05344C9
:102DA000069300230E93249B092B87D90023012728
:102DB000CDE924334FF0FF330C970793049B002198
:102DC0005964079B1193049854F08AFA05900028DF
:102DD00000F0E185079B0E2B8CBF002707F0010751
:102DE000DDE904321A64002F00F01B810B9A002ADF
:102DF00040F34A81BC4E02F00F03D4054FEA22187B
:102E000006EBC303D3E9006740F17083B74B08F0CA
:102E10000F080325D3E90823DDE90801FDF782FC4B
:102E2000CDE91201B8F1000F12D0DFF8C09218F00E
:102E3000010F08D0304639460135D9E90023FDF7A6
:102E400047FB06460F465FEA680809F10809EED11C
:102E500032463B46DDE91201FDF764FC80468946B7
:102E60000F9B43B10022A24B40464946FDF7A2FD0D
:102E7000002840F047842846FDF7C0FA42464B46FA
:102E8000FDF726FB9B4B0022FDF76CF9079B0646DE
:102E9000A1F15077002B00F0AB80079B0B9C1293A5
:102EA000059B404612995D1CCDE914678E4E06EBDA
:102EB000C10353E90212CDE916124946FEF704F8A0
:102EC00000F13007FDF79AFA02460B4640464946A4
:102ED000FFB2FDF745F989460C998046DDE91623D6
:102EE000002900F00F8100208349FDF71BFCDDE97C
:102EF0001423FDF735F9059E42464B4637700646CA
:102F00000F46FDF775FD002840F02F850023CDF812
:102F100058A0CDF850B09A46DDF848B012942BE096
:102F20000AF1010ADA4580F2BD84304639460022B2
:102F3000724BFDF7CDFA0022704B06460F46404615
:102F40004946FDF7C5FA89468046FDF7BDFF0446B0
:102F5000FDF754FA02460B46303440464946FDF729
:102F6000FFF832463B4605F8014B80468946FDF79F
:102F700021FD002840F09C8442464B4600205C49DD
:102F8000FDF7EEF832463B46FDF714FD0028C7D0AA
:102F9000DDF850B02F46129C059902E08F4200F0F8
:102FA0005F843A4617F8013D392BF7D00133DBB285
:102FB0003B70DDF8148005926BE101230F9308F15B
:102FC000FF33002BBFF667AEC8F101030A9300235D
:102FD000069362E62846FDF711FA42464B46FDF796
:102FE00077FA0022434BFDF7BDF80646A1F1507772
:102FF000404649460022424BFDF7B2F832463B4676
:1030000080468946FDF7F4FC002840F0AD83404639
:103010004946324607F10043FDF7CCFC002840F05A
:10302000D5810B9A199B0E2A02DC002B80F2AD8110
:103030000C9A002A00F0B580249A012A40F3858377
:10304000079A0E9B551EAB42C0F2C782002AA3EB23
:10305000050580F25B840A9B079AA3EB0208C9E28C
:103060005046FDF7CBF932463B46FDF799FC002868
:103070007FF4F3AD0AF1FF3AEFE5C3F1200306FA5E
:1030800003F0B7E501271FE600F0A3820B9B164E65
:103090005D4205F00F0306EBC303DDE90801D3E948
:1030A0000023FDF715FA2E11CDE9120100F052842C
:1030B0000E4C0023022580468946F00709D540467C
:1030C00049460135D4E90023FDF702FA3B46804624
:1030D0008946761004F10804EFD1002B7FF4C0AECE
:1030E000DDE91289BCE600BF60960700389607004C
:1030F0000000F03F00001C400000E03F00002440C2
:1031000000001440DDE91401FDF7E2F9059B1F7092
:10311000129B012BCDE90C0100F00984129F059B45
:10312000CDF840A01F440022AA4B40464946FDF777
:10313000CFF989468046FDF7C7FE8246FDF75EF966
:1031400002460B460AF1300A40464946FDF708F8A8
:1031500005F801ABAF4280468946E4D1DDF840A0D6
:1031600000229D4BDDE90C01FCF7FCFF42464B467B
:10317000FDF720FC002840F07B8300209649DDE924
:103180000C23FCF7EDFF42464B46FDF731FC0028CF
:1031900040F01982199B002B03DB0B9B0E2B40F395
:1031A000F58000230E9DDDF828801E460C93B8F1B3
:1031B000000F0DDD069900290B4609DD41450A9AED
:1031C000A8BF4346D21AA8EB0308CB1A0A9206936B
:1031D0000E9B53B10C9B13B1002D40F01E8259463B
:1031E0000E9A049854F08AFA83460121049854F008
:1031F000A5F90746BAF1000F40F06381249B012B2B
:1032000040F37A81012306990B4413F01F0308D081
:10321000C3F12002042A00F3B5810AD0C3F13C03B4
:1032200000E01C230A9A98441A440A92069A1A4407
:1032300006920A9B002B05DD59461A46049854F065
:10324000B7FA8346069B002B05DD39461A460498DB
:1032500054F0AEFA0746249B022B0F9BD4BF0025E7
:103260000125002B40F0BE80079B002B24DC1DB302
:10327000079B002B00F08F81259BDDF81480DC4339
:103280003946049854F052F81EB13146049854F06F
:103290004DF85946049854F049F800220599631CEA
:1032A0000A70269A1360289B002B3FF47FAC40469F
:1032B00019601BB0BDE8F08F0C9B002B00F0AF80B5
:1032C000B8F1000F00F3C081BAF1000F40F0D382D3
:1032D000B146059D079C6B1E1C44029B089403F09D
:1032E0000103049C0A933946584653F063FA314669
:1032F0008246584654F0D0FA4A463946804620461F
:1033000054F0EAFAC26801460AF13003002A40F09C
:10331000A281CDE90603584654F0BEFA06990690FC
:10332000204654F003F8249B069A52EA0301079BB7
:1033300040F0C2810A9A002A00F0F282B8F1000F30
:10334000C0F2AD81089AA846AA4208F8013B00F0F5
:10335000D282594600230A22204653F0F1FF4E45FF
:10336000834631464FF000034FF00A02204600F03A
:103370009D8153F0E5FF4946064600230A22204678
:1033800053F0DEFF45468146ADE7144E0B9B06EB3E
:10339000C306D6E90034CDE90234259B002B80F228
:1033A000E881079B002B00F3E481079B73B900229F
:1033B0000B4BDDE90201FDF78BF802460B46DDE918
:1033C0000801FDF701FB002800F0CE8100273E46F2
:1033D00052E700BF000024400000E03F6096070075
:1033E000000014403946584654F056FA0028BFF6FB
:1033F0003BAF0B9B59460A220498013B0B930023D9
:1034000053F09EFF0C9B8346002B40F09282119B51
:10341000002B119B079302DC002D7FF429AFDDF810
:1034200014800125079CDDF8109007E05946002321
:103430000A22484653F084FF0135834639465846F0
:1034400053F0B8F9A54200F1300308F8013BEDDB79
:10345000079A0025002ACCBF90464FF00108059A34
:103460009044594601220498029354F0A1F9394638
:10347000834654F011FA002840F3E481059A02E0F3
:10348000904500F0D48118F8013CC24608F1FF389D
:10349000392BF5D001330B9C88F80030394604985D
:1034A00053F044FF002E00F0C8812DB1B54203D087
:1034B0002946049853F03AFFDDF81480CDF814A0A3
:1034C000E3E601465246049854F018F9249B074657
:1034D000012B40F395804FF0000A3B6907EB830313
:1034E000186953F0D7FFC0F120038CE6DDE90834FA
:1034F0000225CDE9123495E4029B002B7FF482AEC5
:10350000DDE90212C2F31303002B7FF47BAEAD4B57
:10351000134033B10A9B01330A93069B0133069390
:103520000123BAF1000F40F0F9819A466AE60123BF
:103530000C93259B0B9A134411930133012B1D46C9
:103540000793B8BF0125172D40F3138201220423EE
:103550005B001146013203F11400A842F8D9049B24
:10356000596430E401230C93259B002B40F3BE806B
:103570001D4611930793E6E700230C93D9E7002338
:103580000C93F1E7C3F11C030A9A19441A449844B6
:103590000A9206914DE639460522049853F0D0FE72
:1035A00007465846394654F077F900287FF764AE4D
:1035B000DDF81480059B0B9C013301340593312306
:1035C00088F800305CE63A4617F8013D302BFAD017
:1035D000EFE40225DDE9088942E40E9B0E95EB1A23
:1035E00000259A44DDE90632134406930A9B984667
:1035F00013440A930121049853F0A0FF0646D6E530
:10360000029B002B7FF467AFDDE90201C1F31303D6
:103610000A46002B3FF47BAF5DE7049C31462A4607
:10362000204654F06BF806465A462046314653F081
:10363000B3FF59468346204653F078FE0E9B5B1B32
:103640000E933FF4D2ADCAE531464246049854F099
:10365000AFF8064638E60498069353F067FEB8F1D3
:10366000000F069B08DB029A249902F0010248EA47
:10367000010852EA08022ED1594601220498029309
:1036800054F096F83946834654F006F90028029B18
:1036900040F36581392B00F031810AF13103AA46EC
:1036A0000B9C35464E460AF8013BF7E653F048FEC0
:1036B00045460646814616E6B8F1000FC0F25E8127
:1036C000249948EA01080A9951EA080800F056814D
:1036D000002A7FF737AE392B00F01081AA4601335C
:1036E00035460B9C4E460AF8013BD7E6012325934D
:1036F0000793FFF763BBC8F1010306900F900A938D
:10370000FFF74ABB079B002B3FF464AC119B002BD7
:103710007FF787AC0B9A404649461293541E2A4BBA
:103720000022FCF7D5FE80468946681CFCF766FE41
:1037300042464B46FCF7CCFE0022244BFCF712FD20
:103740000646A1F15077FFF7ABBB109A002A00F0B4
:103750008B8003F23343069A0E9D1A4406920A9A0E
:1037600090461A440A9245E70027DDF814803E4649
:1037700020E7DDE90889DDE9022340464946FCF7F8
:10378000D1FF059FFDF7A0FB0546FCF737FEDDE9FD
:103790000223FCF79DFE0B46024649464046FCF7D5
:1037A000DFFC05F1300307F8013B079B012B00F01C
:1037B0008980CDF818B00126DDF81C90DDE902AB58
:1037C00022E000BF0000F07F0000244000001C4009
:1037D00052465B4620462946FCF7A4FF0136FDF71A
:1037E00073FB8046FCF70AFE52465B46FCF770FE10
:1037F0000B46024629462046FCF7B2FC08F130038E
:10380000B14507F8013B5AD00022704BFCF760FE2F
:103810000022002304460D46FDF7C2F80028D7D049
:10382000DDF818B0DDF814800B9C059731E50B9C92
:103830003123059A0134137030E6DDF81480CDF899
:1038400014A026E503D1029BDB073FF517AE18F85D
:10385000013CC24608F1FF38302BF8D00B9C1DE626
:1038600001343123FFF7A4BB189BC3F1360372E781
:103870000599FFF796BB7168049853F031FD054632
:10388000002800F08F80336906F10C010C30023300
:103890009A00FDF7AFF929460122049853F088FFFA
:1038A000814616E5DDF858A0DDF850B0FFF7B9BB4A
:1038B000DDF81480DDF850B0129C0595E9E4DDF8E0
:1038C00018B0454602460B46FCF74CFC804689463C
:1038D000DDE90223FDF78CF848B940464946DDE9A9
:1038E0000223FDF75DF800289CD0E9079AD50B9CD0
:1038F0000599FFF756BB35464E46B2E5A846392333
:103900003546059A4E4608F8013BBCE5069B134434
:1039100006930A9B984613440A936BE69A46DCE5A5
:10392000392BEBD0B8F1000F3FF7B7AEB7E62F4613
:1039300016E4314600230A22049853F001FD119B3E
:103940000646002B119B07933FF7BAAC002D7FF47E
:103950008FACB5E4DDE912890225FFF781BA7FF467
:103960009EAEDA077FF59BAE94E6DDF814800595F0
:103970008FE40021049B5964FFF725BA002A3FF722
:103980007BAE8CE6049B0025184629465D6453F007
:10399000A7FC059068B90E4B00224FF4D5710D4875
:1039A0004CF08CFC02460A4B40F2EA2109484CF0EC
:1039B00085FCDDE9043225951A644FF0FF330122BE
:1039C00011930C920793FFF72CBB00BF000024401B
:1039D00068DA07007CDA07002DE9F04F1C46794BC6
:1039E0009FB00E4600258346186807921A950890E6
:1039F0004EF0A6FA0021024633460020CDE904012C
:103A00009846199313F801ABBAF12D0F5ED801A1B6
:103A100051F82AF0AB3B0000CD3A0000CD3A00004F
:103A2000CD3A0000CD3A0000CD3A0000CD3A00007A
:103A3000CD3A0000CD3A0000013A0000013A000002
:103A4000013A0000013A0000013A0000CD3A0000BE
:103A5000CD3A0000CD3A0000CD3A0000CD3A00004A
:103A6000CD3A0000CD3A0000CD3A0000CD3A00003A
:103A7000CD3A0000CD3A0000CD3A0000CD3A00002A
:103A8000CD3A0000CD3A0000CD3A0000CD3A00001A
:103A9000CD3A0000013A0000CD3A0000CD3A0000D6
:103AA000CD3A0000CD3A0000CD3A0000CD3A0000FA
:103AB000CD3A0000CD3A0000CD3A0000CD3A0000EA
:103AC0007F410000CD3A0000994100000023099396
:103AD000BAF1300F00F0688200230A93AAF1300394
:103AE000092B00F25684002740463D463C460130F3
:103AF000082C07EB870104F1010405EB850C1990F4
:103B000090F800A0CCBF03EB410703EB4C05AAF1F2
:103B10003003092BEBD9089908924EF03FFA089A26
:103B20008146002850D1199B014608949818199095
:103B30009B5CA3F13002092A00F2F0820131924627
:103B40001998002A40F0F884431C19934378F0E751
:103B50004FF0010EB31C1993B378A3F1300CBCF1F4
:103B6000090F00F2F582199A302B0B9240F02B834B
:103B7000013219921378302BFAD0A3F131000B9255
:103B8000082840F21E8300220C9254BB0A9A0A4372
:103B900040F09882BAF1000F07D1692B00F0398309
:103BA00040F318826E2B00F01B82079B4FF0000839
:103BB0004FF0000903B11E60404649461FB0BDE802
:103BC000F08F00BFE0DC07002AF0200200215346FE
:103BD0000894452A89468A4600F0AD820C91002C53
:103BE000D4D0089A2846A2461346002A08BF234686
:103BF0000893FCF7F3FB0B460246102CCDE9042397
:103C00000C9BA8BF4FF0100A092CA3EB09030B93E0
:103C100017DD544B03EBCA0353E91223FCF758FC9E
:103C2000024638460F461646FCF7D8FB02460B46BE
:103C300030463946FCF796FA0F2CCDE9040100F323
:103C4000E1810B9B002B00F097820B9B40F3A78236
:103C5000162B40F39A84C4F125030B9A934280F209
:103C6000DA84A4EB0A06164416F00F000AD03D4988
:103C700001EBC001DDE90423D1E90001FCF728FCD8
:103C8000CDE9040136F00F034ED0B3F59A7F00F36F
:103C90004684102B4FEA231640F3B285DFF8C8E0C4
:103CA0004FF0000CCDF828907746E246F146DDE96A
:103CB000042316F0010F104619464FEA66060AF172
:103CC000010A07D0D7E90023FCF702FC4FF0010CF2
:103CD00002460B46012E07F10807EAD1CE46DDF871
:103CE0002890BCF1000F01D0CDE90423059B0EEB19
:103CF000CA0E1E4EA3F154730593DDE90423DEE9D9
:103D00000001FCF7E5FB1A4B0A460B40B342CDE934
:103D1000040100F2048417498B4240F2FE844FF004
:103D2000FF33154ACDE9043200230A932346089A4B
:103D300041465846009553F055FB1590002800F079
:103D4000EE830B9A4FF0000A0C9B002ACDF820A0BE
:103D5000A9EB0303A8BF00230C9322EAE273149398
:103D6000E2E000BF60960700389607000000A07CE4
:103D70000000F07F0000907CFFFFEF7FD21A1F2A27
:103D8000A4EB020400F3C682012300259340984669
:103D900026443C440A9BA7421E443B46A8BF2346F8
:103DA000B342A8BF3346002B02DDE41AF61AFF1A0D
:103DB0000C9B002B00F35482002C00F36A820B9BB7
:103DC000002B00F39D82002E00F38E82002F08DD71
:103DD00051463A46584653F0EBFC8246002800F024
:103DE0008C824A461A99584653F076FD089000286E
:103DF00000F08382089A0023D168D3600D91514668
:103E000053F04AFD0028C0F2C584059F00F02284CB
:103E10005146089853F0F0FE00224FF080430446CC
:103E20000D46FCF7D1FD002800F00A820D9B002B07
:103E300040F07C82049B002B40F06183C7F31303A6
:103E4000002B40F0E6820022AB4B20462946FCF7CF
:103E5000B1FD002840F0F5832046A84B29460022FA
:103E6000FCF736FB03460C460E90CDE9123401F107
:103E700000430F93A24EA34B3E409E42DDE90E4508
:103E800000F05B820A9B23B3B6F1D46F21D8DDE941
:103E9000127897A3D3E9002338464146FCF794FDF6
:103EA000A0B141463846FCF7ADFD012838BF0120DE
:103EB000FCF794FA0D9BCDE91201002B40F03783FB
:103EC00001F1004316901793DDE9164505F1D6631D
:103ED0009D1BDDE910783846414653F0ADFD0246A2
:103EE0000B4620462946FCF7F3FA3A464346FCF7D0
:103EF00039F90C46CDE90401814B2340B34203D18B
:103F00000A9B002B00F08E821A99584653F00EFA45
:103F10004946584653F00AFA5146584653F006FAB5
:103F20000899584653F002FA159C5846616853F0B8
:103F3000D7F98146002800F0E081226904F10C01E4
:103F40000C3002329200FCF755FE1CAB5846019330
:103F50001BAB0093DDE904341A46CDE91034234647
:103F600053F0EAFD1A90002800F09C810121584688
:103F700053F0E4FA8246002800F0BF811B9B002B1F
:103F8000C0F2AE810C9A149E9F180A9A1C9C9B1A30
:103F90005D4A2344C4F13604013B9342FFF6EEAE82
:103FA000012300259846F3E698F8013003F0DF037B
:103FB000582B00F0758243460133199393F800A003
:103FC000BAF1300FF8D09846BAF1000F7AD0012339
:103FD0000A9383E5492B00F01C814E2B7FF4E5AD5D
:103FE0004A4919A854F07CFD00283FF4DEAD199B26
:103FF0001B78282B00F07E83454854F07DFE8046D8
:10400000894663E0A4EB0A060B9B1E44002E3FF793
:104010002BAE3FF489AE764216F00F020AD03D4B2C
:1040200003EBC203DDE90401D3E90023FCF77AFBCB
:10403000CDE9040136113FF477AE1F2E3FDC16F0B8
:104040001003354F4FF0000C18BF6A230A93DDE9C7
:10405000042316F0010F1046194607D0D7E90023B4
:10406000FCF736FA4FF0010C02460B46761007F1CA
:104070000807EED1BCF1000F01D0CDE904230A9B63
:10408000A3B1DDE90401C1F30A52C2F16B03002BB5
:104090000ADD1F2B40F3FA830020342B049040F3F9
:1040A00021844FF05C7305936A230A930022002356
:1040B000DDE90401FCF774FC00283FF437AE22234D
:1040C000CBF800304FF000084FF00009079A0AB112
:1040D000199B1360099B002B3FF46EAD09F100435F
:1040E0004046994649461FB0BDE8F08FAFF30080C7
:1040F0000000C0FFFFFFDF410000F03F0000E03F95
:104100000000F07F0000E07F02FCFFFF54DB0700AF
:1041100060E8070060960700289707004FF0010A43
:1041200023F02002452A7FF42EAD44EA01030A9AC7
:1041300013433FF43AAD199E731C199373782B2BDC
:1041400000F023812D2B3FF403AD4FF0000E04E56A
:10415000002219960C9218E51C9A03F2334304923C
:104160001D9A22F4801242EA03530593210703D5D6
:10417000059B43F000430593DDE90489A6E700238E
:10418000099308F10103199398F801A0BAF1000FFF
:104190003FF40BAD98469BE401230993F1E71633F6
:1041A000FFF630AF0C9BA9EB0309B34B03EBC9033C
:1041B000DDE90401D3E90023FCF7B4FA804689461F
:1041C00084E7A3F1300C0B9B581C19905B78A3F18A
:1041D0003002092A00F2D18101300CEB8C0C1990CD
:1041E00003EB4C0C0378ACF1300CA3F13002092A3C
:1041F000F2D90B9A801A082840F3BF8144F61F6257
:104200000C92BEF1000F3FF4C0AC0C9A52420C92DB
:10421000BBE49A4919A854F063FC00283FF4C5ACEC
:10422000199B19A89649013B199354F059FC10B9F0
:10423000199B013319934FF00008DFF8489245E7C6
:10424000914B204629460022FCF742F90D9BCDE90F
:104250001201002B65D101F100430E900F9309E686
:1042600051461A46584653F049FA8246002844D02F
:1042700001461A9A584653F08FF900283DD00D9008
:1042800058461A9953F052F80D9B002C1A937FF759
:1042900096AD22461A99584653F08AFA1A90002889
:1042A0007FF48DAD4F46054622234FF00008DFF81E
:1042B000D491CBF800302946584653F037F83946A8
:1042C000584653F033F85146584653F02FF8159995
:1042D000584653F02BF80899584653F027F8F5E65E
:1042E000149A0C9FD61A50E649463246584653F067
:1042F0005FFA814600287FF469AD4F461A9DD3E7E7
:104300004946149A584653F0F9F9814600287FF43B
:104310005AADF2E75D4AD31A012202FA03F590463C
:1043200036E5DDE91234CDE90E34A3E50023584C1F
:10433000CDE90E34CDE912349CE5A7F15473514F09
:104340000593DDE904452046294653F075FBDDE978
:104350000E23FCF7BDF82B462246FBF703FF4D4B1F
:104360000F409F42CDE9040140F2DD8003F1547318
:10437000DDE91001994202D1B0F1FF3FBDD04FF00D
:10438000FF33454ACDE90432BEE54FF0000EFFF79A
:10439000E1BB089940460B924DF000FE0B9A089045
:1043A00048B100225346174692461546114691469B
:1043B00014460892B4E6199B981819909B5C302B10
:1043C00040F0278102461146013219921378302BB2
:1043D000F9D0C0F101000144A3F13102082A10D83C
:1043E000DDF864800025A3F1300A01F10109012400
:1043F00040462F4605EB850500210AEB4505FFF7F2
:10440000A3BB4FF000094FF0010A4C464F464D4602
:1044100086E60023214CCDE90E3400231C4CCDE967
:10442000123427E5DDE91256C4F313072846314656
:10443000FDF710FCFCF71EF802460B4628463146F5
:10444000FBF78EFE049D0D9E04462E430D4637431A
:1044500043D107A3D3E90023FCF7ACFA00283FF4CB
:1044600053AD4F461A9DDDE9048924E7AFF3008080
:104470009535A094FFFFCF3F6096070048DB07000B
:104480004CDB07000000F07F0000E03FE2FBFFFF95
:104490000000F03FFFFF9F7CFFFFEF7F0000F0BFB9
:1044A000099B19A90294584601931AABB04A00938C
:1044B0001BAB54F019F810F0070504463FF402AEA8
:1044C000062D7BD1079A12B108F1010313604FF05A
:1044D00000084FF00009FFF76FBBA1A3D3E9002349
:1044E000FCF768FA0028BCD1204629469EA3D3E9F0
:1044F0000023FCF77DFA00283FF406ADB1E7049BEA
:10450000012B86D1002F84D14F461A9C22232546A9
:104510004FF000084FF00009CBF80030CBE6222323
:10452000CBF8003087E601F154740594E4E4DDE94A
:104530001234CDE91634C7E4012900F0138204EBEC
:10454000010E0EF1FF3CCDF82CE003E04FEA4E05E2
:10455000A4450BD0082C05EB850E04F10104F5D918
:1045600007EB8703102CD8BF5F00F1E7DDF82CE0E4
:10457000082C894416DC74463CE744F61F629445D7
:10458000A8BF9446CDF830C03BE60B98794901EBC3
:10459000C001DDE90423D1E90001FBF799FF804662
:1045A000894693E5BEF1100F74464FF00001DCBF61
:1045B00007EB870702EB4707FFF7C6BA1A9A3AB12B
:1045C00035211CA853F042FB58461A9952F0AEFE12
:1045D000013D1B9B042D3FF6C9AD01A252F825F009
:1045E000594100000946000003460000F54500005F
:1045F000594100004FF0FF336FF00040CDE9043027
:10460000B4E55D4B0593B1E51C9B04931D9B05939D
:10461000ACE50899E0E6C4F10F04564D05EBC40182
:10462000DDE90423D1E90001FBF752FF0B9B1C1BC2
:1046300005EBC405D5E90023FBF74AFF8046894610
:1046400044E500234D4CCDE90E3400234C4CCDE91C
:1046500012340FE43B460D98C4464F46AE464949D6
:10466000C3F31302DDE9108900285BD08A4200F011
:10467000FB80B5BB049A1CEA020F35D04046494680
:10468000049353F0D9F90A9B04460D46002B00F021
:104690001F81049BC3F30A53C3F16B06002E40F342
:1046A0006481394C002204EB0653FBF711FF0246EC
:1046B0000B4640464946FBF755FD1A9C8046894605
:1046C00040464946314B0022FBF702FF0B46254688
:1046D0008046034389467FF4EEAD2223CBF80030B9
:1046E000E9E51EEA030FC9D11A9C0A9B2546002B57
:1046F000E6D1E0E519A81CAA254954F00BFA0528D3
:104700007FF47AAC1D9B43F0FF4343F4E003059331
:104710001C9B0493DDE90489D8E402F154730593EA
:10472000FFF702BB002A71D1DDE904452246002CC7
:1047300040F0B4800A9A002A40F0F08025F000444E
:10474000240D2405A4F580141A9D6FEA14536FEA12
:10475000035305934FF0FF330493DDE90489AAE581
:104760009535A094FFFFDF3F35E5AF350000E03F12
:104770006CDB0700609607000000F07F0000E0BFE0
:104780000000E03FFFFF0F000000F03F0000503945
:1047900058DB07000D9B4F46DDE90401DDE9108978
:1047A0000343A1D1C1F31303002B9DD121F0004499
:1047B000240D2405B4F1D66F264695D9089A53697D
:1047C00013B91369012B8FDD08990122584652F065
:1047D000EFFF5146089053F05FF8002884DD0A9BF4
:1047E000002BAFD0A6F580131A9C6FEA13536FEA23
:1047F000035305934FF0FF330493DDE904895FE72A
:104800004FF0000ADFF87CE1FFF770BA002D48D1C5
:10481000049A1CEA020F3FF467AF404649460493EE
:1048200053F00AF90A9B002B40D0049BC3F30A53B0
:10483000C3F16B06002E40F3A280534C002204EB20
:104840000653FBF745FE02460B4640464946FBF73A
:1048500087FC0022002380468946FCF7A1F8002847
:104860007FF453AE1A9C2BE7DDE904010A9A044653
:10487000002A40D1024601326DD0BEF1000F7FF414
:1048800030AF14EA0C0F3FF42FAFF7E64FF0FF32D2
:1048900002FA03F3049A1A40049205E4BEF1000FF1
:1048A000B7D01EEA030F3FF41FAFB6E702460B4630
:1048B00040464946FBF754FC1A9C002200238046E0
:1048C00089462546FCF76CF800283FF4F4AC1DE659
:1048D000404649462B462246FBF744FC1A9D80463B
:1048E0008946E8E4C2F14B024FF0FF3393400B409E
:1048F0000593FFF7D9BB254A1A40B2F1D46F21D9ED
:10490000611CBAD122498B423FF4F8AC02F5801306
:10491000059300230493DDE90489E5E61B4E1E4060
:10492000B6F1D66F3FF65EAF1A9DB6F15C7F2C46AE
:104930003FF6C6AE22234FF000084FF00009CBF837
:104940000030B8E4100D4FF0FF31C0F16B00814032
:104950008C4292D1DAE70E4A93423FF4CFAC013257
:104960001A40D3E704F1010E02E6404649462246CA
:104970002B46FBF7F7FB1A9C80468946A0E60246C9
:104980000B4662E7389607000000F03F0000F07F1A
:10499000FFFFEF7F000000002DE9F04F84468E46B8
:1049A00087B0002942D032A3D3E9002332A7D7E948
:1049B000006733A5D5E900450FF2CC0BDBE900AB6E
:1049C00033A1D1E90001CDE9042333A3D3E90023C6
:1049D000CDE9022332A3D3E90023CDE9002332A39A
:1049E000D3E900234FF000084FF00009CCE90A0199
:1049F000DDE90401CCE90C01DDE90201CCE90E019D
:104A0000DDE90001CCE910010020CCE90089CCE906
:104A10000289CCE90467CCE90645CCE908ABCCE9CE
:104A20001223CCF8D0E007B0BDE8F08F20A3D3E983
:104A3000002321A7D7E90067CDE9042320A5D5E904
:104A4000004521A3D3E900230FF2840BDBE900AB7F
:104A5000CDE9022320A1D1E9000121A3D3E900235C
:104A6000CDE9002320A3D3E90023BBE7AFF3008007
:104A7000310BC0FF67263367D89E05C15D9DBBCB58
:104A800007D57C362A299A6217DD70305A01599170
:104A900039590EF7D8EC2F1511155868874AB48E7E
:104AA000A78FF9640D2E0CDBA44FFABE1D48B54745
:104AB000D182E6AD7F520E5108C9BCF367E6096AA0
:104AC0003BA7CA8485AE67BB1F6C3E2B8C68059BD9
:104AD0002BF894FE72F36E3CF1361D5F3AF54FA54C
:104AE0006BBD41FBABD9831F79217E1319CDE05BF0
:104AF00010B500EA0104E20701D500F07DFAA30732
:104B000006D5012108461FF073FD0122014B1A70E2
:104B100010BD00BFB27200202DE9F041B4B014F016
:104B200019FD00212022064668464CF0F3F805F0F6
:104B300083F94A4D28604A481FF0B0FC014610B185
:104B400048485AF065FE1FF063FC014610B1464824
:104B50005AF05EFE00214FF400404AF0ABFD01F038
:104B60003BFD014628B141485AF052FE34B0BDE841
:104B7000F08100F025FE002868D13D485AF048FE3B
:104B800001F0DEFBA0B318AF384601F009FC044683
:104B900070BB38485AF03CFEBDF8803000978DF865
:104BA00004309DF8CA3002948DF817308DF80C400F
:104BB00004948DF814402BB122AB0293BDF8C83099
:104BC0008DF80C309DF8CC3031468DF816309DF8BC
:104BD000CB306A468DF81530012327488DF8183000
:104BE000202361F06AFB011E34DA24485AF010FEDB
:104BF000234E244F4FF4004000214AF05BFD3378F0
:104C0000002BF7D008AA90461F4B03F1100C144656
:104C100018685968083303C463452246F7D11B78E6
:104C20002F22002123700DF131004CF073F8414622
:104C300028685CF078F8014610B138465AF0E8FD73
:104C40000021012031701FF0D3FCD3E70F485AF048
:104C5000DFFD8BE70E485AF0DBFDC9E7903C0020F2
:104C6000F14A000062EA070080EA07009BEA0700B9
:104C7000C9EA070036EB0700020056515AEB07005D
:104C8000B2720020A5EB0700B6EB0700FAEA0700B6
:104C90008DEB07002DE9F04F984BB7B0994200AF6C
:104CA00000F0A2800333994200F03C81053B994219
:104CB00040F08D8084684822914907F14000FBF75D
:104CC00099FF4FF49E03012607F18805C7E90935CE
:104CD0003D6287F8406087F844603E23214694F89F
:104CE000202007F14A004BF081FF94F8203004F1B6
:104CF0002601A7F8483094F82C2007F16C00062A0A
:104D000028BF0622FBF776FF94F82C3087F87860EE
:104D1000062B28BF0623A7F86A3094F823303BB14E
:104D2000B34258D0022B58D0032B14BF04230623C0
:104D300087F8793094F822307B67012387F8723046
:104D400094F8212022B1D01A4242424102FA03F3E0
:104D500087F87330012387F87C3094F925303C467E
:104D6000C7F88030002329464F22384687F8843020
:104D700007F12C0547F03CF90FCC0FC523686149BA
:104D80002B6007F1400207F12C0047F0B1FBBB6B31
:104D9000BB84034618BB5C480268510717D0F96B07
:104DA0005A4A6C468AB0002908BF11466A46584DD7
:104DB0005561584DC2E9065140F2013111845649FE
:104DC00042F8101F4FF411515AF0FDFBA546DC3795
:104DD000BD46BDE8F08F0423AAE70323A8E707F147
:104DE000200001F019F9F2E784684549482207F1EB
:104DF0004000FBF7FFFE4FF49E0307F18801C7E96F
:104E00000931396203F16D73266803F20123FB61F6
:104E1000002E3ED040F201533D464F223846A7F8BF
:104E2000843007F12C0447F0E3F80FCD0FC42B6852
:104E30003449236007F1400207F12C0047F058FB8A
:104E40000346E0B93048026852071ED0F96B2F4A7A
:104E50006C468AB0002908BF11466A462C4D556140
:104E60002E4DC2E9065140F2013111842A4942F81F
:104E7000101F4FF411515AF0A6FBA54605E0BB6B7D
:104E800007F12000BB8401F0C7F80022244B1A7000
:104E90009DE7B1464FF0010ADFF868B007F11C0842
:104EA0003D46B96A18F8013B3846FA8C396287F8F2
:104EB0008530A7F8249087F8409087F884A007F100
:104EC0002C0447F095F80FCD0FC42B68594623608A
:104ED00007F1400207F12C0047F00AFB03460028C7
:104EE000B0D0BB6B07F12000BB84013601F094F811
:104EF000042ED5D101F0C6FAC7E700BF030056D192
:104F0000E0930700E09B0700D4130020C7EB0700E5
:104F1000F3EB0700ACEF07000400000191EF07007E
:104F2000B37200202A4D84682B6803F00703022B1C
:104F300023D9A3786E46072B98BF264A8CB094BF1E
:104F400052F82330244BE07821796A46DFF88CC090
:104F5000C2E90801C2F814C0DFF884C04FF453510D
:104F6000C2E906C340F2013313851E4B184842F8CC
:104F7000103F00235AF027FBB546A378042B23D01B
:104F80002B6803F00703022B1ED9617B164A174BCF
:104F9000207C002918BF1346A1686C468CB06A4675
:104FA000134DC2E9080155610D4D4FF45351C2E94B
:104FB000065340F2013313850A4B054842F8103F6F
:104FC00000235AF000FBA54601220A4B5FE700BF11
:104FD000D4130020509A0700CEEB07000CEC07001A
:104FE0007BEF070006000001EBEB0700E8EB070092
:104FF0003EEC0700B3720020F0B587B04B4D4C4B30
:105000004C4A297800AF00290CBF114619464A487E
:105010005AF0FEFB14F09EFA142200210446381DBB
:105020004BF078FE454928780A7801233A72002827
:105030006DD0072A98BFD2183B713B7398BFD3B28B
:105040000B7000232B70214614233D483A1D61F05C
:1050500072F93C4C002833D023685B0753D03B796E
:10506000002B5ED03849394A012B18BF11467B7995
:105070006D46022B98BF364A8AB094BF52F823007F
:1050800034486B4618623846334E03F110025E61B5
:10509000324EC3E90661324903F12706396003F154
:1050A000230110F801CB01F801CFB142F9D12D490C
:1050B0002448196100234FF441515AF084FAAD4657
:1050C000236803F00703022B1DD93A795AB31E4B0C
:1050D0001E49012A18BF0B466C468AB0397A6A46C7
:1050E0002148116250611D484FF43351C2E9060353
:1050F00040F2013393841D4B124842F8103F0023C5
:105100005AF061FAA54600201C37BD46F0BD7B74FD
:1051100040F2011343F698227B824123FA603B75EB
:1051200091E71349A3E7124BD6E700BFB372002003
:1051300093EC070089EC0700CFEC0700AC110020CE
:1051400009005651D41300208FEC07009CEC070097
:10515000709A0700B2EC0700D7EC070075F0070063
:105160000103020405000002EDEC07000500000148
:1051700085EC070070B58CB001236C46C2880168CD
:10518000064607AD68468DF8183046F031FF0FCC63
:105190000FC52368074906AA07A82B6047F0A8F99E
:1051A00020B100200A9BB3800CB070BD6FF00400EA
:1051B000FAE700BFBC9B07002DE9F047ACB00378CD
:1051C00005460C46A24E00AF1BB14378013B042BB1
:1051D00018D9336803F00703022B10D96D4688B045
:1051E0006A469C4B4FF4C65153619B4B9848936160
:1051F000032342F8103F00235AF0E5F9AD4640F290
:105200000113E7E001230B7043784B70336803F020
:105210000703022B10D9E84688B06A468F4B4FF43B
:10522000C65153618C4B30469361032342F8103FC3
:1052300000235AF0C8F9C5466B78012B40F09380E3
:1052400014F088F93C2205460021381D4BF062FD20
:10525000336803F00703022B10D9E84688B06A468A
:105260007F4B4FF4C65153617E4B794893610323C2
:1052700042F8103F00235AF0A6F9C5464FF0010846
:1052800084F8048001F05CF838B9A0720123E07062
:10529000A370B037BD46BDE8F08784F80A8007F1F7
:1052A000400001F07DF8B7F8609007F140014A46F0
:1052B00004F10E00FBF79EFCD7F862302946236309
:1052C000B7F866306848A3860623E38597F8AC30C4
:1052D000A4F80C90A36397F8AA3084F83C8084F873
:1052E0003D303A1D3C2361F01BF8B0B1336813F038
:1052F000060F10D06D4688B06A465C4B5361594B1F
:105300004FF4C45193610323514842F8103F0023E6
:105310005AF059F9AD460320B8E77B6884F8088055
:10532000052B1EDD4FF0040A3946284684F809A0F3
:1053300014F022F9002808DA336813F0060FEAD0D7
:105340006D4688B06A464A4BD8E73B6884F840808F
:1053500084F842805B68A4F844A0C4F84630012376
:1053600038E06072FBE7023B032B00F25681DFE876
:1053700013F0040033004A002F0114F0EBF83368F7
:10538000054603F00703022B10D96E4688B06A4623
:10539000384B4FF4C6515361374B2D48936103236B
:1053A00042F8103F00235AF00EF9B5460023294673
:1053B0001A46324860F0B0FF002329461A463048AA
:1053C00013F0CEFD10F1160F3FF419AF0028C6D030
:1053D00040F2013363805CE7336803F00703022B7C
:1053E000BDD96D4688B06A46264B4FF4C65153610D
:1053F000254B17489361032342F8103F00235AF0CE
:10540000E2F8AD46ABE714F0A5F820228046002173
:10541000381D4BF07FFC336803F00703022B10D9D3
:10542000E94688B06A46194B4FF4C6515361184B90
:1054300007489361032342F8103F00235AF0C3F852
:10544000CD462B7E33BB01230122E370A27020E7FF
:10545000D41300201DED070060F0070031ED0700B8
:1054600046ED070048F007000600565161ED0700C1
:105470007DED070098ED070030F00700030056515E
:1054800001005651B3ED070019F00700CDED0700FC
:1054900001F007002B7F002BD5D0B5F820A007F135
:1054A00040096E235246484605F122014BF09EFB0F
:1054B000B5F84230A7F860A0062B72D0326812F01F
:1054C000060F11D06E4688B06A4661496148516145
:1054D0006149C2E9061304234FF4025142F8103F18
:1054E00000235AF070F8B546FF2387F8AC3095F8E2
:1054F000543093B1B5F856604623324605F1580151
:1055000007F168004BF072FB95F85030A7F8A860DF
:1055100033B195F85130002B4BD1002387F8AA30D6
:1055200095F84A3023B195F84B309A1E53425341B7
:1055300095F8981087F8AB3009B195F8991048465E
:1055400000F064FF002341461A46444860F0E4FE40
:10555000B7F8603097F8AA203B720023C7F8049090
:10556000FA76FB603B747B613B762AB107F16803F6
:10557000FB60B7F8A8303B74012597F8AC30414682
:10558000BB7697F8AB3036487B763D7720233A1DC3
:1055900060F093FE10F1160F3FF455AFB0B965807F
:1055A00077E66B6CC7F86230B5F84830A7F866301C
:1055B0009AE7042B01D10123B0E7032B01D1022389
:1055C000ACE7062B0CBF03230423A7E703233BE729
:1055D00013F0C0FF3368054603F00703022B10D910
:1055E0006E4688B06A461F4B4FF4C65153611E4B3E
:1055F00018489361032342F8103F002359F0E3FF5A
:10560000B546002329461A46144860F085FE002856
:105610007FF4DEAE00F090FFD8E6336803F00703B6
:10562000022B10D96E4688B06A46104B4FF4C65113
:1056300053610F4B07489361032342F8103F002347
:1056400059F0C1FFB546012323706B786370D6E52E
:10565000E8ED0700D413002001F0070003005651C5
:105660000200565114EE0700E6EF070032EE070085
:1056700060F007002DE9F041ECB000AF9C22002162
:10568000054607F58A704BF045FB6022002107F1C3
:10569000B4004BF03FFB4FF4B002DFF8048107F198
:1056A0005C03C7E90C23FB62D8F80030590719D511
:1056B0006C468AB06A463B4BA98853613A4BC1F3AA
:1056C0000B019361394BC904D36140F20133138458
:1056D000374B404642F8103F41F414512B6859F0C3
:1056E00072FFA54607F118063046AA88296807F117
:1056F000380446F0F5FF96E80F0084E80F002046D6
:105700002C4907F58A726EF01CF9034600283CD13B
:10571000D8F80020520714D0E1686C468AB06A4677
:10572000254850612048C2E9060140F20131118448
:105730001F491B4842F8101F4FF4115159F043FF05
:10574000A54640F20123A7F8B6303C4638467A8E8B
:10575000F96A07F1480546F04BFC0FCC0FC52368EA
:10576000164907F1B40207F148002B6046F0C0FE6D
:1057700090B17B6D07F12C003B8600F0DBFB002035
:1057800007F5D877BD46BDE8F08107F1B40107F50C
:105790008A70FFF711FDD8E76FF00400F0E700BF53
:1057A000D4130020E53F0900D3EF07004AEE0700BD
:1057B00004000001449C07005DEE0700B89C070050
:1057C00098B500AF00F08AFC0346A8B10F48026804
:1057D00012F0060F10D06C4688B06A460C49516131
:1057E0000C49C2E9061304234FF4025142F8103F5A
:1057F000002359F0E8FEA5460748084B4360084BD4
:10580000036114F047FD0020BD4698BDD41300206D
:105810008EEE0700C4EF0700943C0020954C00007A
:10582000070056D198B5114800AF036803F007038D
:10583000022B18D90E4A0F4B6C468AB0012908BFBB
:1058400013466A460C4951610C49C2E9061340F2FD
:10585000013313840A4B4FF4135142F8103F0023D5
:1058600059F0B3FEA546BD4698BD00BFD413002035
:10587000BE6109008394090082F0070038F6070032
:105880000400000198B5114800AF036803F0070356
:10589000022B18D90E4A0F4B6C468AB0022908BF5A
:1058A00013466A460C4951610C49C2E9061340F29D
:1058B000013313840A4B4FF4135142F8103F002375
:1058C00059F083FEA546BD4698BD00BFD413002005
:1058D000BE61090083940900BEF007001AF60700B4
:1058E000040000012DE9F04184B0244E1C463368C9
:1058F00015465B0700AF18D5E8468AB06A46204BCC
:10590000C4F30B0153611F4BC90493611E4B304616
:10591000D36140F2013313841C4B41F4145142F81B
:10592000103F2B4659F051FEC54622462946381DE8
:1059300060F0ECF8381DFFF79DFE00281BDA336895
:1059400013F0060F05D16FF0FD001037BD46BDE81E
:10595000F0816C4688B06A460D4B4FF4C4515361D8
:10596000084B06489361032342F8103F002359F087
:105970002CFEA546E7E72046E7E700BFD41300204A
:10598000E53F090001F607004AEE070004000001A8
:10599000FDF00700B0B504460E4800AF036803F001
:1059A0000703022B10D96D4688B06A460A4B536133
:1059B0000A4BC2E9063104234FF4035142F8103F69
:1059C000002359F002FEAD46052120465EF026FC7C
:1059D000BD46B0BDD413002042F107004DF50700CD
:1059E000B0B590B000AF13F0B5FD3C2200210546E4
:1059F000381D4BF08FF90123214C237400F0A0FCDB
:105A0000637C90BB03F0FE03637429463C231D486E
:105A10003A1D60F085FC10B97B68052B28DC637C9F
:105A200023F0020363748023E37403210123164AE5
:105A300016480CF051FE0346A0B115480268520703
:105A400010D56C4688B06A46124951611249C2E9C4
:105A5000061304234FF4045142F8103F002359F079
:105A6000B4FDA5464037BD46B0BD43F00103CBE7CA
:105A7000637C43F00203637497F83C30D4E700BFC3
:105A80003512002006005651309B0700389B070056
:105A9000D41300206DF1070016F50700B0B58CB0E7
:105AA00002AF0CF0B3FF0346C8B12248026802F00F
:105AB0000702022A10D96C4688B002AA1E49516119
:105AC0001E49C2E9061304234FF4035142F8103F64
:105AD000002359F07AFDA5462837BD46B0BDFFF733
