:020000040000FA
:10000000F05C012071DF00009F2C060045DF00003E
:1000100045DF000045DF000045DF000045DF000050
:1000200000000000000000000000000081D7000078
:1000300045DF00000000000025D7000045DF00007C
:1000400005D8000005D8000005D8000005D800003C
:1000500005D8000005D8000005D8000005D800002C
:1000600005D8000005D8000005D8000005D800001C
:1000700005D8000005D8000005D8000005D800000C
:1000800005D8000005D8000005D8000005D80000FC
:1000900005D8000005D8000005D8000005D80000EC
:1000A00005D8000005D8000005D8000005D80000DC
:1000B00005D8000005D8000005D8000005D80000CC
:1000C00005D8000005D8000005D8000005D80000BC
:1000D00005D8000005D8000005D8000005D80000AC
:1000E00005D8000005D8000005D8000005D800009C
:1000F00005D8000005D8000005D8000005D800008C
:1001000005D8000005D8000005D8000005D800007B
:1001100005D8000005D8000005D8000005D800006B
:1001200005D8000005D8000005D8000005D800005B
:1001300005D8000005D8000005D8000005D800004B
:1001400005D8000005D8000005D8000005D800003B
:1001500005D80000FFFFFFFF81F0004102E000BF73
:1001600083F0004330B54FEA41044FEA430594EA77
:10017000050F08BF90EA020F1FBF54EA000C55EAB2
:10018000020C7FEA645C7FEA655C00F0E2804FEA83
:100190005454D4EB5555B8BF6D420CDD2C4480EA65
:1001A000020281EA030382EA000083EA010180EA95
:1001B000020281EA0303362D88BF30BD11F0004FE3
:1001C0004FEA01314FF4801C4CEA113102D0404219
:1001D00061EB410113F0004F4FEA03334CEA133354
:1001E00002D0524263EB430394EA050F00F0A7806C
:1001F000A4F10104D5F1200E0DDB02FA0EFC22FA67
:1002000005F2801841F1000103FA0EF2801843FA5A
:1002100005F359410EE0A5F120050EF1200E012A4B
:1002200003FA0EFC28BF4CF0020C43FA05F3C01889
:1002300051EBE37101F0004507D54FF0000EDCF102
:10024000000C7EEB00006EEB0101B1F5801F1BD3AB
:10025000B1F5001F0CD349085FEA30004FEA3C0CAF
:1002600004F101044FEA445212F5800F80F09A80A5
:10027000BCF1004F08BF5FEA500C50F1000041EBA9
:10028000045141EA050130BD5FEA4C0C404141EBAD
:100290000101013C28BFB1F5801FE9D291F0000FA8
:1002A00004BF01460020B1FA81F308BF2033A3F157
:1002B0000B03B3F120020CDA0C3208DD02F1140C4E
:1002C000C2F10C0201FA0CF021FA02F10CE002F189
:1002D0001402D8BFC2F1200C01FA02F120FA0CFC82
:1002E000DCBF41EA0C019040E41AA2BF01EB0451CB
:1002F000294330BD6FEA04041F3C1CDA0C340EDCC9
:1003000004F11404C4F1200220FA04F001FA02F30B
:1003100040EA030021FA04F345EA030130BDC4F1C9
:100320000C04C4F1200220FA02F001FA04F340EABE
:100330000300294630BD21FA04F0294630BD94F06F
:10034000000F83F4801306BF81F480110134013D56
:100350004EE77FEA645C18BF7FEA655C29D094EAC7
:10036000050F08BF90EA020F05D054EA000C04BF45
:100370001946104630BD91EA030F1EBF0021002030
:1003800030BD5FEA545C05D14000494128BF41F0CF
:10039000004130BD14F580043CBF01F5801130BD33
:1003A00001F0004545F0FE4141F470014FF00000BE
:1003B00030BD7FEA645C1ABF194610467FEA655C6F
:1003C0001CBF0B46024650EA013406BF52EA033511
:1003D00091EA030F41F4002130BD00BF90F0000FFF
:1003E00004BF0021704730B54FF4806404F132043B
:1003F0004FF000054FF0000150E700BF90F0000FF4
:1004000004BF0021704730B54FF4806404F132041A
:1004100010F0004548BF40424FF000013EE700BFEA
:1004200042004FEAE2014FEA31014FEA02701FBF7A
:1004300012F07F4393F07F4F81F06051704732F0AC
:100440007F4208BF704793F07F4F04BF41F4002103
:10045000704730B54FF4607401F0004521F0004161
:100460001CE700BF50EA010208BF704730B54FF0EB
:1004700000050AE050EA010208BF704730B511F0EC
:10048000004502D5404261EB41014FF4806404F124
:1004900032045FEA915C3FF4D8AE4FF003025FEAAA
:1004A000DC0C18BF03325FEADC0C18BF033202EB2E
:1004B000DC02C2F1200300FA03FC20FA02F001FA88
:1004C00003FE40EA0E0021FA02F11444BDE600BF2B
:1004D00070B54FF0FF0C4CF4E06C1CEA11541DBFDA
:1004E0001CEA135594EA0C0F95EA0C0F00F0DEF8A5
:1004F0002C4481EA030621EA4C5123EA4C5350EA8A
:10050000013518BF52EA033541F4801143F48013DA
:1005100038D0A0FB02CE4FF00005E1FB02E506F06B
:100520000042E0FB03E54FF00006E1FB03569CF0C0
:10053000000F18BF4EF0010EA4F1FF04B6F5007FC6
:1005400064F5407404D25FEA4E0E6D4146EB060638
:1005500042EAC62141EA55514FEAC52040EA5E50C1
:100560004FEACE2EB4F1FD0C88BFBCF5E06F1ED86B
:10057000BEF1004F08BF5FEA500E50F1000041EBA2
:10058000045170BD06F0004646EA010140EA02004F
:1005900081EA0301B4EB5C04C2BFD4EB0C0541EA71
:1005A000045170BD41F480114FF0000E013C00F386
:1005B000AB8014F1360FDEBF002001F0004170BDAA
:1005C000C4F10004203C35DA0C341BDC04F11404C3
:1005D000C4F1200500FA05F320FA04F001FA05F24F
:1005E00040EA020001F0004221F0004110EBD3701C
:1005F00021FA04F642EB06015EEA430E08BF20EA48
:10060000D37070BDC4F10C04C4F1200500FA04F3EA
:1006100020FA05F001FA04F240EA020001F000417C
:1006200010EBD37041F100015EEA430E08BF20EAEF
:10063000D37070BDC4F1200500FA05F24EEA020E37
:1006400020FA04F301FA05F243EA020321FA04F066
:1006500001F0004121FA04F220EA020000EBD3701D
:100660005EEA430E08BF20EAD37070BD94F0000F1D
:100670000FD101F00046400041EB010111F4801F51
:1006800008BF013CF7D041EA060195F0000F18BF02
:10069000704703F00046520043EB030313F4801F3E
:1006A00008BF013DF7D043EA0603704794EA0C0FF8
:1006B0000CEA135518BF95EA0C0F0CD050EA41060E
:1006C00018BF52EA4306D1D181EA030101F000418B
:1006D0004FF0000070BD50EA410606BF10461946B3
:1006E00052EA430619D094EA0C0F02D150EA0136BF
:1006F00013D195EA0C0F05D152EA03361CBF104600
:1007000019460AD181EA030101F0004141F0FE419E
:1007100041F470014FF0000070BD41F0FE4141F422
:10072000780170BD70B54FF0FF0C4CF4E06C1CEA22
:1007300011541DBF1CEA135594EA0C0F95EA0C0FD7
:1007400000F0A7F8A4EB050481EA030E52EA033592
:100750004FEA013100F088804FEA03334FF08055B3
:1007600045EA131343EA12634FEA022245EA1115E0
:1007700045EA10654FEA00260EF000419D4208BF91
:10078000964244F1FD0404F5407402D25B084FEA3E
:100790003202B61A65EB03055B084FEA32024FF4EA
:1007A00080104FF4002CB6EB020E75EB030E22BF47
:1007B000B61A754640EA0C005B084FEA3202B6EB07
:1007C000020E75EB030E22BFB61A754640EA5C00B6
:1007D0005B084FEA3202B6EB020E75EB030E22BF46
:1007E000B61A754640EA9C005B084FEA3202B6EB47
:1007F000020E75EB030E22BFB61A754640EADC0006
:1008000055EA060E18D04FEA051545EA16754FEA67
:1008100006164FEAC30343EA52734FEAC2025FEA85
:100820001C1CC0D111F4801F0BD141EA00014FF014
:1008300000004FF0004CB6E711F4801F04BF0143E5
:100840000020B4F1FD0C88BFBCF5E06F3FF6AFAE01
:10085000B5EB030C04BFB6EB020C5FEA500C50F191
:10086000000041EB045170BD0EF0004E4EEA113114
:1008700014EB5C04C2BFD4EB0C0541EA045170BD1B
:1008800041F480114FF0000E013C90E645EA060E5F
:100890008DE60CEA135594EA0C0F08BF95EA0C0F8D
:1008A0003FF43BAF94EA0C0F0AD150EA01347FF4D5
:1008B00034AF95EA0C0F7FF425AF104619462CE7AC
:1008C00095EA0C0F06D152EA03353FF4FDAE10460F
:1008D000194622E750EA410618BF52EA43067FF460
:1008E000C5AE50EA41047FF40DAF52EA43057FF4F0
:1008F000EBAE12E74FF0FF3C06E000BF4FF0010CFB
:1009000002E000BF4FF0010C4DF804CD4FEA410C5E
:100910007FEA6C5C4FEA430C18BF7FEA6C5C1BD02B
:1009200001B050EA410C0CBF52EA430C91EA030FAC
:1009300002BF90EA020F0020704710F1000F91EA09
:10094000030F58BF994208BF90422CBFD8176FEAD7
:10095000E37040F0010070474FEA410C7FEA6C5CA5
:1009600002D150EA013C07D14FEA430C7FEA6C5CAC
:10097000D6D152EA033CD3D05DF8040B704700BFD8
:100980008446104662468C461946634600E000BF26
:1009900001B5FFF7B7FF002848BF10F1000F01BDF8
:1009A0004DF808EDFFF7F4FF0CBF012000205DF8C3
:1009B00008FB00BF4DF808EDFFF7EAFF34BF012048
:1009C00000205DF808FB00BF4DF808EDFFF7E0FFE1
:1009D00094BF012000205DF808FB00BF4DF808ED32
:1009E000FFF7CEFF94BF012000205DF808FB00BF99
:1009F0004DF808EDFFF7C4FF34BF012000205DF87B
:100A000008FB00BF4A0011D212F5001211D20DD519
:100A10006FF47873B3EB62520ED44FEAC12343F004
:100A2000004343EA505323FA02F070474FF00000AE
:100A3000704750EA013002D14FF0FF3070474FF05D
:100A4000000070474FEA4102B2F1E04324BFB3F522
:100A5000001CDCF1FE5C0DD901F0004C4FEAC00235
:100A60004CEA5070B2F1004F40EB830008BF20F019
:100A70000100704711F0804F21D113F13872BCBFD3
:100A800001F00040704741F480114FEA5252C2F128
:100A90001802C2F1200C10FA0CF320FA02F018BF71
:100AA00040F001004FEAC1234FEAD32303FA0CFCC4
:100AB00040EA0C0023FA02F34FEA4303CCE77FEA53
:100AC000625307D150EA01331EBF4FF0FE4040F49D
:100AD0004000704701F0004040F0FE4040F400004C
:100AE000704700BF7BB972B90029BEBF00204FF02C
:100AF000004106E008BF00281CBF6FF000414FF026
:100B0000FF3000F075B8ADF1080C6DE904CE002996
:100B100009DB002B1ADB01F0B4F8DDF804E0DDE9B5
:100B2000022304B07047404261EB4101002B1BDB04
:100B300001F0A7F8DDF804E0DDE9022304B040424B
:100B400061EB4101524263EB43037047524263EB56
:100B5000430301F096F8DDF804E0DDE9022304B078
:100B6000404261EB41017047524263EB430301F0A5
:100B700088F8DDF804E0DDE9022304B0524263EBBB
:100B80004303704753B94AB9002908BF00281CBF66
:100B90004FF0FF314FF0FF3000F02AB8ADF1080CF4
:100BA0006DE904CE01F06DF8DDF804E0DDE9022323
:100BB00004B07047D0B500220B4B06460F46FFF736
:100BC00087FCFFF71FFF0446FFF708FC0022074BD6
:100BD000FFF77EFC02460B4630463946FFF7C0FA67
:100BE000FFF710FF2146D0BD0000F03D0000F041AE
:100BF000704700BF844641EA000313F0030349D164
:100C0000403A23D30B6803604B6843608B68836072
:100C1000CB68C3600B6903614B6943618B69836176
:100C2000CB69C3610B6A03624B6A43628B6A83625E
:100C3000CB6AC3620B6B03634B6B43638B6B836346
:100C4000CB6BC36340304031403ADBD230320BD300
:100C50000B6803604B6843608B688360CB68C3603C
:100C600010301031103AF3D20C3205D351F8043B56
:100C700040F8043B043AF9D2043208D0D2071CBF32
:100C800011F8013B00F8013B01D30B88038060465B
:100C9000704700BF082A13D38B07B1D010F00303AD
:100CA000AED0C3F10403D21ADB071CBF11F8013B1D
:100CB00000F8013BA4D331F8023B20F8023B9FE748
:100CC000043AD9D3013A11F8013B00F8013BF9D2BB
:100CD0000B7803704B7843708B7883706046704755
:100CE00080EA010C1CF0030F37D110F0030C20F048
:100CF000030021F0030150F8042B08BF51F8043B16
:100D00000ED08CF0030C6FF07F434FEACC0C23FA2B
:100D10000CFC51F8043B42EA0C0243EA0C0300BF0E
:100D2000A2F1013C9A4201BF2CEA020C1CF0803F68
:100D300050F8042B51F8043BF2D04FEA02604FEA1E
:100D40001222012828BFB0EB036F08BF1B0AF4D0A2
:100D500003F0FF03000EC01A704710F0030F0AD013
:100D600010F8012B11F8013B012A28BF9A42F4D058
:100D7000A2EB030070474DF8045D50F8042B01F01E
:100D8000030521F0030151F8043B022D26D04DD874
:100D900022F07F45B5EB132FA2F1013C2CEA020CA7
:100DA0000DD11CF0803C08BF51F8043B0AD185EA04
:100DB0000205B5EB036F0CD150F8042BE8E74FEABE
:100DC00013235BE03CF07F4C54D10B784FEA126563
:100DD00054E04FEA126503F0FF034FE04FEA02458B
:100DE000A2F1013C4FEA15452CEA020CB5EB134F7A
:100DF00018D11CF0803C08BF51F8043B07D185EAAC
:100E00000205B5EB034F09D150F8042BE6E75FEA82
:100E10000C4C2FD10B884FEA12452FE04FEA0343C9
:100E20004FEA12454FEA134328E000BF02F0FF05E6
:100E3000B5EB136FA2F1013C2CEA020C0DD11CF0B2
:100E4000803C08BF51F8043B0AD185EA0205B5EBA6
:100E5000032F0AD150F8042BE8E74FEA13630DE0A3
:100E600012F0FF0F06D051F8043B4FEA122523F091
:100E70007F4303E04FF0000020BC704705F0FF0205
:100E800003F0FF00012828BF904204BF2D0A1B0A6F
:100E9000F4D0A2EB000020BC704700BF4FEA410C29
:100EA0007FEA6C5C02D150EA013C0AD14FEA430C64
:100EB0007FEA6C5C02D152EA033C02D14FF00000A1
:100EC00070474FF0010070474FEA410212F50012DF
:100ED00015D211D56FF47873B3EB625212D94FEA81
:100EE000C12343F0004343EA505311F0004F23FA6B
:100EF00002F018BF404270474FF00000704750EAC0
:100F0000013005D111F0004008BF6FF0004070477C
:100F10004FF00000704700BF2DE9F14F03F11C04B2
:100F200002EB840C4FEA930B8A68CB680868496827
:100F300000F046F93CE9F0006040694072407B40B7
:100F40000BF1060E4EE083EA134480EA134582EA71
:100F5000134746BA96EA3444604000F00F1684EA1C
:100F6000063420F00F1684EA161054BA94EA0106EB
:100F7000724002F00F1486EA043622F00F1486EA5B
:100F800014124CBA6540694001F00F1485EA04352B
:100F900021F00F1485EA14115CBA67407B4003F01E
:100FA0000F1487EA043723F00F1487EA141344BAA6
:100FB00044404DBA4D4056BA56405FBA5F4087EA4A
:100FC000174886EA174B84EA17464FEA38488BEAF7
:100FD0001B4485EA1B4788EA1B4580EA3440694088
:100FE00072407B4000F0703400F0803500F00F302C
:100FF00040EA440040EAD50080EA900404F033243B
:1010000080EA8400604001F0703401F0803501F026
:101010000F3141EA440141EAD50181EA910404F02B
:10102000332481EA8401614002F0703402F080359B
:1010300002F00F3242EA440242EAD50282EA920406
:1010400004F0332482EA8402624003F0703403F037
:10105000803503F00F3343EA440343EAD50383EAC0
:10106000930404F0332483EA84036340C943DB43DD
:1010700081EA000483EA044686EA020183EA014326
:1010800082EA334583EA14435C4084EA00077FEA3E
:10109000040A8AEA024A8AEA010B87EA11488AEAC4
:1010A000374A80EA060181EA1A418AEA030A04EA19
:1010B0000A00454088EA040707EA0B0041408AEA33
:1010C0000B0608EA060084EA34428AEA3A4602EA53
:1010D000060358404540414087EA37438BEA3B408E
:1010E00003EA000985EA090582EA0309464006EA9F
:1010F0000906714085EA010005EA3546464006EAE0
:10110000314181EA304181EA364606EA304686EAD4
:10111000354634400F4086EA010508EA050886EAAC
:101120003640024088EA020881EA314213405C40BE
:1011300080EA020309EA030987EA0907674088EAA7
:10114000040806EA0A0601EA0B018AEA0B042540B4
:101150008AEA3A44204045408BEA3B4B02EA0B02C4
:10116000564084EA0B04234059406E40694087EAA8
:10117000364080EA384080EA060380EA104481EA7B
:10118000134585EA344585EA17427D4082EA3541B8
:1011900080EA05403CE9F0006040694072407B40D5
:1011A000BEF1010E3FF6CFAE20BC00F05FF8286024
:1011B0006960AA60EB60BDE8F08F00BF00F000BA84
:1011C00080EA101404F0F01480EA0410604081EA10
:1011D000111404F0F01481EA0411614082EA12143F
:1011E00004F0F01482EA0412624083EA131404F05B
:1011F000F01483EA0413634080EA102404F47F446B
:1012000080EA0420604081EA112404F47F4481EAEA
:101210000421614082EA122404F47F4482EA042219
:10122000624083EA132404F47F4483EA0423634086
:1012300081EA500404F0553480EA4400614083EAB6
:10124000520404F0553482EA4402634082EA900476
:1012500004F0333480EA8400624083EA910404F0AD
:10126000333481EA84016340704700BF82EA90040E
:1012700004F0333480EA8400624083EA910404F08D
:10128000333481EA8401634081EA500404F0553428
:1012900080EA4400614083EA520404F0553482EA53
:1012A0004402634080EA102404F47F4480EA04206E
:1012B000604081EA112404F47F4481EA0421614002
:1012C00082EA122404F47F4482EA0422624083EA20
:1012D000132404F47F4483EA0423634080EA101457
:1012E00004F0F01480EA0410604081EA111404F064
:1012F000F01481EA0411614082EA121404F0F0143F
:1013000082EA0412624083EA131404F0F01483EAC0
:1013100004136340704700BF2DE9F14F94464FEA34
:10132000930B8A68CB6808684968FFF749FF0BF19F
:10133000060E33E083EA134480EA134582EA13473A
:1013400046BA96EA3444604000F00F1684EA063448
:1013500020F00F1684EA161054BA94EA010672407F
:1013600002F00F1486EA043622F00F1486EA1412F3
:101370004CBA6540694001F00F1485EA043521F04C
:101380000F1485EA14115CBA67407B4003F00F1418
:1013900087EA043723F00F1487EA1413BCE8F0003F
:1013A0006040694072407B4000F0E03400F010354E
:1013B00000F00F3040EA540040EAC50080EA900493
:1013C00004F0332480EA8400604001F0E03401F04E
:1013D000103501F00F3141EA540141EAC50181EABB
:1013E000910404F0332481EA8401614002F0E03486
:1013F00002F0103502F00F3242EA540242EAC5020E
:1014000082EA920404F0332482EA8402624003F008
:10141000E03403F0103503F00F3343EA540343EA9A
:10142000C50383EA930404F0332483EA840363400E
:1014300081EA324787EA134581EA354690EA060495
:1014400084EA034B82EA1B4280EA044484EA0544AE
:1014500083EA144A85EA14448BEA044B84EA37444D
:1014600081EA0B4181EA164104EA0A00454082EA1A
:1014700004082BEA080041408AEA0B0602EA06004B
:1014800084EA34438AEA3A4603EA0607784045404C
:10149000414088EA38478BEA3B4007EA000985EA81
:1014A000090583EA0709464006EA0906714085EA0C
:1014B000010005EA3546464006EA314181EA3041FD
:1014C00081EA364606EA304686EA3546344008EA7E
:1014D000010886EA01052A4086EA364003405A4060
:1014E00081EA31431F407C4080EA030709EA07098B
:1014F00088EA0908544088EA020806EA0A0601EA6E
:101500000B018AEA0B0215408AEA3A421040454034
:101510008BEA3B4003405E404240174079404D40DB
:101520004E40E443F64386EA18435D4085EA0540B1
:1015300083EA134386EA034183EA384284EA11438B
:1015400083EA04435FEA3343BEF1010E3FF6F2AE95
:101550001ED4BCE8F0006040694072407B4020BC73
:10156000FFF784FE28606960AA60EB60BDE8F08F39
:101570002DE9E0414FF2F00280EA1031114080EA9B
:101580000130484041088208C3084FF0000E4FE781
:1015900000F0113001F0113102F0113203F011337B
:1015A00040EA410040EA820040EAC3004FF2F00204
:1015B00080EA1031114080EA01304840BDE8E08106
:1015C0002DE9F04F02F11C050646074600EB8508A1
:1015D00051F8040B043A46F8040BF9D14FF0010C12
:1015E000FFF7C6FF5FEA302080EA0C001ECF4140C3
:1015F0004A4053405C401EC62000464517D04FEA83
:101600004C0C1CF4807F18BFACF1E50C2C2DE7D0FE
:101610003C2D06D1FFF7ACFF06CF41404A4006C63D
:10162000100006CF41404A4006C61000D8E736E910
:101630000F00FFF7C5FD043D86E80F00F7D1BDE8B8
:10164000F08F00BF2DE9F04FB0E8FE0783B02DE921
:10165000010790E8005F4FF00A0006900198DB193F
:101660009CEA030C18EB3C4897EA080713EB375346
:1016700093EA3C4C18EB3C6898EA375724189EEAEA
:10168000040E19EB3E4990EA090014EB305494EA39
:101690003E4E19EB3E6999EA3050CDE90489DDE907
:1016A000028949199AEA010A18EB3A4895EA0805AD
:1016B00011EB355191EA3A4A18EB3A6898EA3555F8
:1016C00092199BEA020B19EB3B4996EA090612EBC9
:1016D000365292EA3B4B19EB3B6999EA365613EBCB
:1016E000706393EA3B6B18EB3B4898EA706013EB2E
:1016F000305393EA3B4B5FEA3B6B18EB0B0898EADD
:1017000030505FEA706014EB756494EA3C6C19EB3E
:101710003C4999EA756514EB355494EA3C4C5FEA10
:101720003C6C19EB0C0999EA35555FEA7565CDE912
:101730000289DDE9048911EB766191EA3E6E18EBCE
:101740003E4898EA766611EB365191EA3E4E5FEAE2
:101750003E6E18EB0E0898EA36565FEA766612EB94
:10176000776292EA3A6A19EB3A4999EA776712EB9B
:10177000375292EA3A4A5FEA3A6A19EB0A0999EA59
:1017800037575FEA77670190069801387FF465AFB5
:1017900001BC80E8005FBDE8000700E9FE0703B078
:1017A000BDE8F08F30B44FF0000310F8014B11F892
:1017B000015B013A84EA050443EA0403F5D1A3F18D
:1017C00001034FEAD37030BC704700BF4FF00003F5
:1017D00010F8012B013943EA0203F9D1A3F1010307
:1017E0004FEAD370704700BF30B411F8014B12F8C4
:1017F000015B6C4000F8014B013BF6D130BC7047F7
:101800002DE9F14FF8C892E8005E19EB03095AEB95
:10181000040A5BEB050B5CEB060C4EEB070E91E844
:10182000E001A9FB0502AAFB0543E9FB6624EAFBEC
:101830006634A9FB0765E9FB6845B1E80003EBFBEB
:101840006836ECFB6846EEFB6856ABFB0987ECFBA1
:101850006957EEFB696791E80202EAFB6148EBFB1E
:101860006158ECFB6168EEFB61784FF00001EAFB28
:101870000951EBFB6961ECFB6971EEFB69814FF487
:10188000A03C4FEA154949EA06495FF0000AE9FB26
:101890000C0A4FEA164646EA0746E6FB6C2A4FEA70
:1018A000174747EA0847E7FB6C3A4FEA184848EA07
:1018B0000148E8FB6C4AADB25544AF0805F003059A
:1018C00007EB8707C01952F1000153F1000254F1F0
:1018D000000345F1000420BC1FC5BDE8F08F00BF28
:1018E00030B490E83C10511D53F1000154F1000157
:1018F00055F100014CF100014FEA9101494201F01C
:101900000501521853F1000354F1000455F100058C
:101910004CF1000C0CF0030C80E83C1030BC70471C
:101920002DE9F04F90E8F00F00F140004FF0040E69
:1019300059E0F0B4826BC36B0468052524268759EF
:101940003C444FEA724787EAF24787EA92273C44D1
:1019500042684FEAF21787EAB24787EAD2073C4467
:1019600040F8044B032D08BF6FF01B0687593A441B
:101970004FEA734787EAF34787EA93273A44436875
:101980004FEAF31787EAB34787EAD3073A4440F8A8
:10199000042B87593B444FEA744787EAF44787EAA8
:1019A00094273B4444684FEAF41787EAB44787EA30
:1019B000D4073B4440F8043B013DC0D1A0F13C00BA
:1019C000076A3C444FEA724787EAF24787EA922760
:1019D0003C4402684FEAF21787EAB24787EAD20727
:1019E0003C44C463F0BC4FF0020288EA781C8CEAE5
:1019F000F84C0BEBBC1C8AEA090303EA080383EAF0
:101A00000A039C4450F8043B9C4451F8043B9C441A
:101A1000674444EA050B0BEA060B04EA05034BEAAC
:101A2000030BE34484EAF42383EA34530BEBB30B54
:101A300087EA771C8CEAF74C0AEBBC1C89EA08039E
:101A400003EA070383EA09039C4450F8043B9C44DF
:101A500051F8043B9C4466444BEA040A0AEA050A2E
:101A60000BEA04034AEA030AE2448BEAFB2383EA13
:101A70003B530AEBB30A86EA761C8CEAF64C09EB78
:101A8000BC1C88EA070303EA060383EA08039C44B4
:101A900050F8043B9C4451F8043B9C4465444AEA9A
:101AA0000B0909EA04090AEA0B0349EA0309E144BC
:101AB0008AEAFA2383EA3A5309EBB30985EA751CEB
:101AC0008CEAF54C08EBBC1C87EA060303EA050325
:101AD00083EA07039C4450F8043B9C4451F8043BC0
:101AE0009C44644449EA0A0808EA0B0809EA0A0324
:101AF00048EA0308E04489EAF92383EA395308EB0A
:101B0000B30884EA741C8CEAF44C07EBBC1C86EA2C
:101B1000050303EA040383EA06039C4450F8043BEC
:101B20009C4451F8043B9C44E34448EA090707EA13
:101B30000A0708EA090347EA0307674488EAF82323
:101B400083EA385307EBB3078BEA7B1C8CEAFB4C28
:101B500006EBBC1C85EA040303EA0B0383EA0503D6
:101B60009C4450F8043B9C4451F8043B9C44E244A0
:101B700047EA080606EA090607EA080346EA0306F2
:101B8000664487EAF72383EA375306EBB3068AEA0B
:101B90007A1C8CEAFA4C05EBBC1C84EA0B0303EAC2
:101BA0000A0383EA04039C4450F8043B9C4451F824
:101BB000043B9C44E14446EA070505EA080506EAB9
:101BC000070345EA0305654486EAF62383EA3653AC
:101BD00005EBB30589EA791C8CEAF94C04EBBC1CD3
:101BE0008BEA0A0303EA090383EA0B039C4450F8D7
:101BF000043B9C4451F8043B9C44E04445EA060401
:101C000004EA070405EA060344EA0304644485EA97
:101C1000F52383EA355304EBB304013A7FF4E5AED0
:101C2000A0F14000BEF1010E7FF483AEA0F1400CA4
:101C30009CE80F00001949199219DB19ACE80F0054
:101C40009CE80F004044494452445B44ACE80F0018
:101C5000BDE8F08F38B50022002304460D46FEF79C
:101C6000A9FE28B920462946BDE83840FEF7A2BFA4
:101C7000204605F10041FEF79DFF404261EB410126
:101C800038BD2DE9F04786468C460846089E154625
:101C900074461946002B40F0C1808542B2FA82F2A8
:101CA00045D94AB1C2F1200300FA02FC95409440A4
:101CB0002EFA03F343EA0C0C4FEA154EA8B2230C9C
:101CC000BCFBFEF80EFB18CC08FB00F943EA0C4302
:101CD000994528D9EB1808F1FF3704D2994502D964
:101CE000A8F102072B44A3EB0903A4B2B3FBFEFC4B
:101CF0000EFB1C330CFB00F044EA0344A04214D951
:101D00002C190CF1FF3304D2A04202D9ACF102032A
:101D10002C44241A43EA07401EB1D4400023346007
:101D20007360BDE8F0874746DDE76346F1E792BBA5
:101D3000431B01214FEA154EAFB2200CB3FBFEFC52
:101D40000EFB1C330CFB07F840EA0343984561D9AE
:101D5000EB180CF1FF3004D2984502D9ACF1020027
:101D60002B44A3EB0803A4B2B3FBFEFC0EFB1C3315
:101D70000CFB07F744EA0344A7424DD92C190CF198
:101D8000FF3304D2A74202D9ACF102032C44E41B76
:101D900043EA0040C0E7C2F120039540944020FA96
:101DA00003F12EFA03F34FEA154E9040AFB203430E
:101DB000B1FBFEFC0EFB1C10190C0CFB07F841EAF2
:101DC0000041884522D969180CF1FF3004D28845BA
:101DD00002D9ACF102002944A1EB08019BB2B1FB8E
:101DE000FEFC0EFB1C110CFB07F743EA01439F426C
:101DF0000ED9EB180CF1FF3104D29F4202D9ACF19D
:101E000002012B44DB1B41EA004193E76046E3E714
:101E10006146F7E76046A4E76346B8E7834206D920
:101E200016B9002108467CE7C6E900E0F9E7B3FAF5
:101E300083F78FB9834201D3724508D8BEEB020401
:101E400060EB030301209C461EB9002169E7384678
:101E5000FAE7C6E9004CF8E7C7F1200CBB400EFAE0
:101E600007F522FA0CF42EFA0CF1BA401C4320FAC2
:101E70000CF3B8404FEA144901431FFA84FEB3FB48
:101E8000F9F809FB18300B0C08FB0EFA43EA004383
:101E90009A4540D9E31808F1FF3004D29A4502D997
:101EA000A8F102002344A3EB0A0389B2B3FBF9F8BB
:101EB00009FB183308FB0EFE41EA03418E452CD97D
:101EC000611808F1FF3304D28E4502D9A8F102034C
:101ED000214443EA0040A1EB0E01A0FB02984145DA
:101EE000CE46434602D306D14D4504D20138B9EB64
:101EF000020E68EB0403002EA7D0B5EB0E0261EBD7
:101F0000030101FA0CFC22FA07F3F9404CEA03033F
:101F1000C6E9003199E74046C5E74346D9E70000E6
:101F2000012870B50D4606D060F025FF162303602A
:101F30004FF0FF3070BD76F0ACF81D4A2B686E682C
:101F4000A3FB023402FB0644AD685B1944EBE57465
:101F5000C50B45EA4145A5FB0256C90B02FB0161D1
:101F60005B1BC0F30E0064EB0101A0FB0204C20B7B
:101F700042EA4442981A61F100010BA3D3E900231D
:101F8000FEF7B0FD4FF02003EFF3118483F31288C6
:101F9000BFF36F8F074BC3E900019A6084F3118888
:101FA000BFF36F8F0020C5E700CA9A3B0000000016
:101FB00000CA9A3B402A0020F0B589B06B4D00AFB3
:101FC000D5F86431996811F001011AD140F6034047
:101FD0003A1D0DF067FB0446002840F0B880786891
:101FE000C3681B785BB905F1D403D3E8AF2F02F0C7
:101FF0000902D3E8EF1FC3E8E42F002CF9D114F055
:1020000095FE002141F203003A1D0DF04BFB044602
:10201000002840F09C807B68554EDA68D2F80100B9
:10202000D2F8051003C6184614F080FE214641F28E
:1020300001003A1D0DF036FB0446002840F0878071
:102040007868C3685A7885F870205A88A5F8722095
:102050001A7985F87120B3F80720A5F87420B3F831
:102060000530A5F8763014F061FE214641F20200F9
:102070003A1D0DF017FB0446002868D1D7F804C0BC
:10208000DCF80C20531C4132344618685968083378
:1020900003C493422646F7D1604614F047FE0FF082
:1020A000CFFA0446002852D195F88A30980619D400
:1020B0003048036813F0060F09D02F4B4FF48451BA
:1020C000FB61022307F11802BB6161F05FF895F82C
:1020D0007C30590654D4274803685A073BD16FF027
:1020E000120434E0072140F633400DF0A1FA064611
:1020F000002800F0528107210C3063F0EBF86FF0FC
:10210000680303700623C0F80240847144700471B0
:102110002246C370314640F633400DF0C3FA044600
:10212000A8B9012140F631400DF082FA0646002898
:1021300000F0338101210C3063F0DBF82246314698
:1021400040F631400DF0AEFA04460028BFD02046DC
:102150002437BD46F0BD094B4FF48251FB61022389
:1021600007F11802BB6161F011F8B8E70000002028
:10217000780000205C11002097380900C53809005C
:10218000002142F2030007F108020DF08BFA044629
:102190000028DCD1BB68B04EDA68D2F80100D2F872
:1021A000051003C6184614F0C1FD214642F2020094
:1021B00007F108020DF076FA04460028C7D1BC6882
:1021C000E368B3F8012091B249B1D97839B1A5F8E3
:1021D0000421DA78114606F1280075F080FC2046CB
:1021E00014F0A4FD95F87C6016F0200618D10221A9
:1021F00040F66D400DF01CFA0446002800F0CD803A
:1022000002210C3063F066F801232146037046700A
:10221000324640F66D400DF045FA0446002896D14E
:1022200095F89C301B0713D5002142F21C0007F1E2
:1022300008020DF037FA0446002888D1B868C36850
:10224000D3F80120D3F80530C5E9382314F06EFD2A
:1022500095F8D8309E0622D5391DB81C0DF0A8FA85
:10226000044600287FF473AF042142F224000DF0ED
:10227000DFF90646002800F0908004210C3063F05E
:1022800029F87B8822460380BB883146438042F28E
:1022900024000DF007FA044600287FF458AF95F8A3
:1022A000D8305C0611D5002142F22A0007F108025D
:1022B0000DF0F8F9044600287FF449AFB868C36808
:1022C0005B7885F8203114F031FD082142F20100DD
:1022D0000DF0AEF9044600285FD008210C3062F002
:1022E000F9FF95F8D81040F2022311F0400F08BF13
:1022F0000323024688074CBF43F02C0043F00C0038
:1023000095F8D9308E0648BF40F0400013F0090F11
:1023100018BF40F40060CB0795F8A23048BF40F0EA
:10232000100003F00603062B08BF40F4C070002124
:1023300060F037FF2146002242F201000DF0B2F9B1
:10234000044600287FF403AF95F87C30B5F80411FB
:102350009E0625D4D1B941F2050007F108020DF01F
:10236000A1F9044600287FF4F2AEB5F80431BC6848
:102370004BB9E368B3F80120A5F804219A883748DF
:10238000114675F0ACFB204614F0D0FC082140F655
:1023900001400DF04DF90446B0B96FF06804D6E67F
:1023A0000029F3D12E4803685C0702D16FF00404C2
:1023B000CDE62C4B4FF48251FB61022307F118024A
:1023C000BB6160F0E3FEF1E708210C3062F082FFB0
:1023D00095F8D8300246D90734D44FF0005122483E
:1023E00060F0DFFE2146002240F601400DF05AF970
:1023F000044600287FF4ABAE01463A1D4FF601407B
:102400000DF050F9164C98B3236813F0060F0AD05C
:10241000164B4FF48451FB6102232046BB6107F148
:10242000180260F0B3FE0EF03DFD044600287FF474
:102430008EAE10F0FFF9044600287FF488AE0DF050
:10244000A9FF84E602A1D1E90001C9E7AFF300804A
:102450009088000200800020D800002008010020A1
:102460005C110020E9380900108800020C390900CD
:102470007B68DD68236803F00703022B68D9B5F891
:1024800001306E46032B98BF514A8AB094BF52F870
:10249000231050496A46D3614FF400734E481384A9
:1024A0004E4BC2E9050142F8103F4FF413514C481E
:1024B00060F06CFE2368B54603F00703022B47D992
:1024C000B5F80120B5F80330022A5BD1032B59D8A7
:1024D000444A52F823106E468AB06A46D3614FF4DC
:1024E0000073414813843D4BC2E9050142F8103F97
:1024F0004FF413513A4860F049FE2368B54603F0A3
:102500000703022B24D96B7995F806C0032B98BFDB
:10251000364AB5F80760D5F809006D468CB094BF0F
:1025200052F823102B496A46C2E9073C4FF4007366
:10253000DFF8BCE093852F4BC2E905E1C2E90960F1
:102540004FF47351264842F8103F60F01FFEAD462D
:10255000786814F0EBFB00214FF602403A1D0DF0B5
:10256000A1F8054680B1236813F0060F3FF45BAF76
:10257000214BFB6102234FF484511948BB6107F1E1
:1025800018024EE71349A6E778681C4EC368B3F8F3
:102590000130A6F8C13014F0C9FB96F8C1305B07D2
:1025A0007FF541AF29464FF603403A1D0DF07AF80A
:1025B00030B1236813F0060F3FF435AF104BD8E766
:1025C0007868C3685B7886F8C03014F0AFFB2AE700
:1025D000DCD10700E43209003039090004000001B1
:1025E0005C110020CCD1070049390900BCD107009B
:1025F00061390900070000018E3909000000002040
:10260000B7390900000000002DE9F04F8846D0F8E6
:10261000201182460B6B16468FB053B1062218313B
:1026200006F120004BF05EFF18B901200FB0BDE8A5
:10263000F08F504604A9D8F86050D8F88040D6F8FA
:1026400080706BF05FFA002852D1DDF820B0BBF14A
:10265000000F04D1DDF81CB0BBF1000F27D042F20F
:102660000F71099B049A8B420AD16FF47A63D318D5
:1026700040F2657293428CBF6FF058036FF05B03BA
:102680004046ABEB030969F0A0FAD8F88C2003466A
:1026900008F194010AB9D8F89020D8F850005D46A6
:1026A000CDE9009050462FF0CDFECB46044604F510
:1026B0009C530833BB42B8D3336DB3F57A6F1ADD40
:1026C000D8F85030B3F57A6FACBF4FF0000A4FF036
:1026D000010A002D12DB07F59C5308339C4200F2DF
:1026E000CB80BBF1190F00F3C7804FF0020B3AE02B
:1026F0004FF0000BDBE74FF0000AEAE7336E03EB25
:102700004A03AB4215DA3846FDF768FE804620469C
:102710008946FDF763FE4FF033325B4BFDF7D8FE81
:1027200002460B4640464946FEF744F9002840F071
:10273000A38007F59C530833A342C0F09D80BBF1F2
:10274000190F00F3998015F1550F31DB15F1500F7A
:10275000CBDB15F14B0F2EDB15F1460FB4BF4FF05D
:10276000040B4FF0050B2046FDF738FE8046384637
:102770008946FDF733FE02460B46CDE902230022CF
:10278000424BFDF7A5FE02460B4640464946FEF782
:102790002FF998B10BF10A0BBAF1000F01D0ABF190
:1027A000020B306E401B5845B4BF002001203DE7AE
:1027B0004FF0010BD7E74FF0030BD4E74FF0333264
:1027C000DDE90201304BFDF783FE02460B46404631
:1027D0004946FEF70DF910B10BF1050BDCE728A314
:1027E000D3E90023DDE90201FDF772FE02460B4644
:1027F00040464946FEF7FCF810B10BF1020BCBE75F
:10280000BC4202D90BF1010BC6E700221F4B404628
:102810004946FDF75DFE02460B46DDE90201FEF783
:10282000E7F810B1ABF10A0BB6E74FF03332164BB5
:1028300040464946FDF74CFE02460B46DDE90201E3
:10284000FEF7D6F810B1ABF1050BA5E70CA3D3E961
:10285000002340464946FDF73BFE02460B46DDE9B4
:102860000201FEF7C5F810B1ABF1020B94E7BC42D0
:1028700038BF0BF1FF3B8FE70020D7E6AFF30080B6
:102880009A9999999999F13F3333F33F0000F83FB2
:10289000C1F30A5C02460B462DE9F041ACF2FF356C
:1028A0000C460646132D34DC002D20DBDFF8D080EB
:1028B0000F4648FA05F801EA080C5CEA000C2DD036
:1028C0002DA3D3E90023FDF74DFC00220023FEF7E2
:1028D0008FF840B1002C03DD4FF480132B411F44CF
:1028E00027EA0804002621463046BDE8F08122A3ED
:1028F000D3E90023FDF736FC00220023FEF778F829
:102900000028F0D0002C33DB3443EBD000261D4CE4
:10291000E9E7332D06DDB5F5806F26D01046194660
:10292000BDE8F081ACF2134C4FF0FF3727FA0CF7FB
:102930003842F3D010A3D3E90023FDF713FC0022A3
:102940000023FEF755F80028CDD0002C334609DDD2
:10295000142D06D0C5F134050122AA4013449E422D
:1029600000D9013423EA0706BDE7FDF7FBFBD7E7F3
:1029700000264FF00044B6E79C7500883CE4377EA3
:10298000FFFF0F000000F03FC1F30A5C02460B4658
:102990002DE9F041ACF2FF350C460646132D32DC32
:1029A000002D20DBDFF8E0800F4648FA05F801EA49
:1029B000080C5CEA000C2BD031A3D3E90023FDF70F
:1029C000D1FB00220023FEF713F840B1002C03DAFC
:1029D0004FF480132B411F4427EA080400262146A8
:1029E0003046BDE8F08126A3D3E90023FDF7BAFB0A
:1029F00000220023FDF7FCFF0028F0D0002C27DB8D
:102A000000263446EBE7332D06DDB5F5806F1CD08C
:102A100010461946BDE8F081ACF2134C4FF0FF3779
:102A200027FA0CF70742F3D015A3D3E90023FDF7EB
:102A300099FB00220023FDF7DBFF0028CFD0002CFC
:102A400033460CDB23EA0706C9E7FDF78BFBE1E71A
:102A500024F0004426430DD14FF00044BFE7142D6D
:102A600006D0C5F134050122AA401344B342E9D28D
:102A70000134E7E70026054CB1E700BFAFF3008063
:102A80009C7500883CE4377EFFFF0F000000F0BF1C
:102A9000F8B5C1F30A5604460D4617460B462EBB41
:102AA00021F00043034320D02D4B0022FDF710FD01
:102AB0002C4B04460D469F4241DBC1F30A560B46A0
:102AC000363EBA1940F2FE718A4217DC002A30DC29
:102AD00012F1350F1EDB244E363220461E40234BAA
:102AE00046EA02510022FDF7F3FCF8BD40F2FF7206
:102AF0009642E6D10246FDF735FBF8BD14A3D3E9B3
:102B00000023ED0F1A481C4665F3DF742146FDF7DC
:102B1000DFFCF8BD05F00044164844F0D27141F4E2
:102B2000B7310DA3D3E9002341F01F01FDF7D0FC1D
:102B3000F8BD0D4E20461E4046EA0251F8BD06A3E0
:102B4000D3E90023FDF7C4FCF8BD00BFAFF300805C
:102B50009C7500883CE4377E59F3F8C21F6EA501CE
:102B600000005043B03CFFFFFFFF0F800000903C8F
:102B70009C75008859F3F8C22DE9F04F016C9BB0A9
:102B800016461F46279D0490CDE9026749B1426C65
:102B90000123044693404A608B6053F0FBFE002300
:102BA0002364B7F10009C0F2B68000232B607E4B8E
:102BB00033EA090300F0BA800022DDE90234184646
:102BC00021460023CDE90801FDF7EAFE804668B101
:102BD0000123269A1360289B13B1744B289A136023
:102BE000DFF8CC8140461BB0BDE8F08F18AB0498ED
:102BF000019319AB0093DDE9082354F0D1FA834621
:102C00005FEA195540F0A980DDE91885454405F2D1
:102C10003243202B40F34D82C3F1400309FA03F9FC
:102C200005F2124326FA03F349EA0300FDF7D6FB47
:102C3000013D0123A1F1F871109300225D4BFDF7D6
:102C40008FFA53A3D3E90023FDF742FC52A3D3E943
:102C50000023FDF787FA06460F462846FDF7CEFB10
:102C60004FA3D3E90023FDF733FC02460B46304661
:102C70003946FDF777FA06460F46FEF725F900229A
:102C80008246002330463946FDF794FE002840F086
:102C90000382A8EB0508BAF1160F08F1FF3306937B
:102CA00000F2A781444E06EBCA06DDE90801D6E929
:102CB0000023FDF77FFE002800F0848000230AF146
:102CC000FF3A0F9308F1FF33002BC0F299810023E4
:102CD0000A93BAF1000F7BDA0A9BCDF82CA0A3EB84
:102CE0000A030A93CAF100034FF0000A0E93249BD3
:102CF000092B77D8052B40F3E181043B002724936F
:102D0000249B023B032B00F25986DFE813F05404A6
:102D1000510447042C04012329F000492B60224B65
:102D2000CDF80C9033EA09037FF446AFC9F31309D9
:102D300042F20F73269A59EA060913601DD0289BA8
:102D4000DFF87880002B3FF44DAF08F10303289A99
:102D5000404613601BB0BDE8F08FDDE90812CDF8E6
:102D60004080A5F2FF35C2F313030846DDF860800A
:102D700043F07F5141F440115FE7289BDFF840802A
:102D8000002B3FF42FAF08F10803E0E7AFF300801A
:102D900061436F63A787D23FB3C8608B288AC63F61
:102DA000FB799F501344D33F0000F07F11FC0800D3
:102DB00010FC08000000F83F10C30700ACFC08003E
:102DC000A0FC0800B8F1000F40F3B1840F900A9006
:102DD000069BCDF82CA05344069300230E93249B0E
:102DE000092B87D900230127CDE924334FF0FF3386
:102DF0000C970793049B00215964079B1193049837
:102E000053F0A2FD0590002800F0E185079B0E2BF2
:102E10008CBF002707F00107DDE904321A64002F98
:102E200000F01B810B9A002A40F34A81BC4E02F04D
:102E30000F03D4054FEA221806EBC303D3E900675A
:102E400040F17083B74B08F00F080325D3E908233E
:102E5000DDE90801FDF766FCCDE91201B8F1000FCC
:102E600012D0DFF8C09218F0010F08D03046394672
:102E70000135D9E90023FDF72BFB06460F465FEA33
:102E8000680809F10809EED132463B46DDE9120136
:102E9000FDF748FC804689460F9B43B10022A24BB8
:102EA00040464946FDF786FD002840F04784284605
:102EB000FDF7A4FA42464B46FDF70AFB9B4B002266
:102EC000FDF750F9079B0646A1F15077002B00F063
:102ED000AB80079B0B9C1293059B404612995D1C8F
:102EE000CDE914678E4E06EBC10353E90212CDE91A
:102EF00016124946FDF7E8FF00F13007FDF77EFAAC
:102F000002460B4640464946FFB2FDF729F989467D
:102F10000C998046DDE91623002900F00F8100207E
:102F20008349FDF7FFFBDDE91423FDF719F9059E41
:102F300042464B46377006460F46FDF759FD0028BE
:102F400040F02F850023CDF858A0CDF850B09A4618
:102F5000DDF848B012942BE00AF1010ADA4580F25C
:102F6000BD84304639460022724BFDF7B1FA00228B
:102F7000704B06460F4640464946FDF7A9FA89467A
:102F80008046FDF7A1FF0446FDF738FA02460B46DE
:102F9000303440464946FDF7E3F832463B4605F8F3
:102FA000014B80468946FDF705FD002840F09C84D2
:102FB00042464B4600205C49FDF7D2F832463B467C
:102FC000FDF7F8FC0028C7D0DDF850B02F46129C62
:102FD000059902E08F4200F05F843A4617F8013D00
:102FE000392BF7D00133DBB23B70DDF8148005924A
:102FF0006BE101230F9308F1FF33002BBFF667AE9F
:10300000C8F101030A930023069362E62846FDF700
:10301000F5F942464B46FDF75BFA0022434BFDF7BC
:10302000A1F80646A1F15077404649460022424B9E
:10303000FDF796F832463B4680468946FDF7D8FCB8
:10304000002840F0AD8340464946324607F1004330
:10305000FDF7B0FC002840F0D5810B9A199B0E2A91
:1030600002DC002B80F2AD810C9A002A00F0B580C2
:10307000249A012A40F38583079A0E9B551EAB4282
:10308000C0F2C782002AA3EB050580F25B840A9B8D
:10309000079AA3EB0208C9E25046FDF7AFF93246A2
:1030A0003B46FDF77DFC00287FF4F3AD0AF1FF3AC3
:1030B000EFE5C3F1200306FA03F0B7E501271FE6A9
:1030C00000F0A3820B9B164E5D4205F00F0306EB4A
:1030D000C303DDE90801D3E90023FDF7F9F92E1157
:1030E000CDE9120100F052840E4C002302258046E7
:1030F0008946F00709D5404649460135D4E9002301
:10310000FDF7E6F93B4680468946761004F108044F
:10311000EFD1002B7FF4C0AEDDE91289BCE600BF21
:1031200010C30700E8C207000000F03F00001C4089
:103130000000E03F0000244000001440DDE91401DD
:10314000FDF7C6F9059B1F70129B012BCDE90C0101
:1031500000F00984129F059BCDF840A01F44002277
:10316000AA4B40464946FDF7B3F989468046FDF72C
:10317000ABFE8246FDF742F902460B460AF1300AE1
:1031800040464946FCF7ECFF05F801ABAF428046EC
:103190008946E4D1DDF840A000229D4BDDE90C0119
:1031A000FCF7E0FF42464B46FDF704FC002840F0E8
:1031B0007B8300209649DDE90C23FCF7D1FF4246D2
:1031C0004B46FDF715FC002840F01982199B002B97
:1031D00003DB0B9B0E2B40F3F58000230E9DDDF8E7
:1031E00028801E460C93B8F1000F0DDD06990029CA
:1031F0000B4609DD41450A9AA8BF4346D21AA8EBFF
:103200000308CB1A0A9206930E9B53B10C9B13B181
:10321000002D40F01E8259460E9A049853F0A2FDEC
:1032200083460121049853F0BDFC0746BAF1000F14
:1032300040F06381249B012B40F37A81012306999E
:103240000B4413F01F0308D0C3F12002042A00F33B
:10325000B5810AD0C3F13C0300E01C230A9A9844CC
:103260001A440A92069A1A4406920A9B002B05DD1C
:1032700059461A46049853F0CFFD8346069B002B0F
:1032800005DD39461A46049853F0C6FD0746249BCF
:10329000022B0F9BD4BF00250125002B40F0BE80E0
:1032A000079B002B24DC1DB3079B002B00F08F81B4
:1032B000259BDDF81480DC433946049853F06AFB03
:1032C0001EB13146049853F065FB5946049853F0FB
:1032D00061FB00220599631C0A70269A1360289BE3
:1032E000002B3FF47FAC404619601BB0BDE8F08F67
:1032F0000C9B002B00F0AF80B8F1000F00F3C081F1
:10330000BAF1000F40F0D382B146059D079C6B1EB9
:103310001C44029B089403F00103049C0A93394661
:10332000584652F07BFD31468246584653F0E8FD40
:103330004A4639468046204653F002FEC26801469E
:103340000AF13003002A40F0A281CDE90603584675
:1033500053F0D6FD06990690204653F01BFB249BA4
:10336000069A52EA0301079B40F0C2810A9A002A9A
:1033700000F0F282B8F1000FC0F2AD81089AA846C1
:10338000AA4208F8013B00F0D282594600230A22E3
:10339000204653F009FB4E45834631464FF000036B
:1033A0004FF00A02204600F09D8153F0FDFA494695
:1033B000064600230A22204653F0F6FA4546814687
:1033C000ADE7144E0B9B06EBC306D6E90034CDE9FE
:1033D0000234259B002B80F2E881079B002B00F331
:1033E000E481079B73B900220B4BDDE90201FDF775
:1033F0006FF802460B46DDE90801FDF7E5FA002803
:1034000000F0CE8100273E4652E700BF0000244076
:103410000000E03F10C30700000014403946584642
:1034200053F06EFD0028BFF63BAF0B9B59460A22B6
:103430000498013B0B93002353F0B6FA0C9B834690
:10344000002B40F09282119B002B119B079302DC12
:10345000002D7FF429AFDDF814800125079CDDF8ED
:10346000109007E0594600230A22484653F09CFA80
:10347000013583463946584652F0D0FCA54200F14A
:10348000300308F8013BEDDB079A0025002ACCBF8A
:1034900090464FF00108059A90445946012204983D
:1034A000029353F0B9FC3946834653F029FD0028B6
:1034B00040F3E481059A02E0904500F0D48118F8C9
:1034C000013CC24608F1FF38392BF5D001330B9C83
:1034D00088F800303946049853F05CFA002E00F06A
:1034E000C8812DB1B54203D02946049853F052FA51
:1034F000DDF81480CDF814A0E3E6014652460498A6
:1035000053F030FC249B0746012B40F395804FF08D
:10351000000A3B6907EB8303186953F0EFFAC0F127
:1035200020038CE6DDE908340225CDE9123495E468
:10353000029B002B7FF482AEDDE90212C2F313037B
:10354000002B7FF47BAEAD4B134033B10A9B0133AC
:103550000A93069B013306930123BAF1000F40F052
:10356000F9819A466AE601230C93259B0B9A134432
:1035700011930133012B1D460793B8BF0125172D69
:1035800040F31382012204235B001146013203F150
:103590001400A842F8D9049B596430E401230C9329
:1035A000259B002B40F3BE801D4611930793E6E751
:1035B00000230C93D9E700230C93F1E7C3F11C031C
:1035C0000A9A19441A4498440A9206914DE63946DB
:1035D0000522049853F0E8F907465846394653F057
:1035E0008FFC00287FF764AEDDF81480059B0B9CF0
:1035F000013301340593312388F800305CE63A4604
:1036000017F8013D302BFAD0EFE40225DDE90889F7
:1036100042E40E9B0E95EB1A00259A44DDE9063232
:10362000134406930A9B984613440A930121049875
:1036300053F0B8FA0646D6E5029B002B7FF467AF3D
:10364000DDE90201C1F313030A46002B3FF47BAF0F
:103650005DE7049C31462A46204653F083FB06462C
:103660005A462046314653F0CBFA59468346204607
:1036700053F090F90E9B5B1B0E933FF4D2ADCAE55D
:1036800031464246049853F0C7FB064638E6049894
:10369000069353F07FF9B8F1000F069B08DB029AFE
:1036A000249902F0010248EA010852EA08022ED1E8
:1036B000594601220498029353F0AEFB39468346E3
:1036C00053F01EFC0028029B40F36581392B00F06B
:1036D00031810AF13103AA460B9C35464E460AF861
:1036E000013BF7E653F060F945460646814616E68B
:1036F000B8F1000FC0F25E81249948EA01080A99E6
:1037000051EA080800F05681002A7FF737AE392BBE
:1037100000F01081AA46013335460B9C4E460AF84C
:10372000013BD7E6012325930793FFF763BBC8F15D
:10373000010306900F900A93FFF74ABB079B002BEB
:103740003FF464AC119B002B7FF787AC0B9A40468B
:1037500049461293541E2A4B0022FCF7B9FE8046BC
:103760008946681CFCF74AFE42464B46FCF7B0FE11
:103770000022244BFCF7F6FC0646A1F15077FFF738
:10378000ABBB109A002A00F08B8003F23343069AF9
:103790000E9D1A4406920A9A90461A440A9245E7E8
:1037A0000027DDF814803E4620E7DDE90889DDE9E1
:1037B000022340464946FCF7B5FF059FFDF784FB11
:1037C0000546FCF71BFEDDE90223FCF781FE0B46F4
:1037D000024649464046FCF7C3FC05F1300307F8B2
:1037E000013B079B012B00F08980CDF818B0012622
:1037F000DDF81C90DDE902AB22E000BF0000F07FA5
:103800000000244000001C4052465B4620462946EA
:10381000FCF788FF0136FDF757FB8046FCF7EEFD0D
:1038200052465B46FCF754FE0B46024629462046AC
:10383000FCF796FC08F13003B14507F8013B5AD07C
:103840000022704BFCF744FE0022002304460D4684
:10385000FDF7A6F80028D7D0DDF818B0DDF8148001
:103860000B9C059731E50B9C3123059A01341370AD
:1038700030E6DDF81480CDF814A026E503D1029BD4
:10388000DB073FF517AE18F8013CC24608F1FF38D8
:10389000302BF8D00B9C1DE601343123FFF7A4BB7D
:1038A000189BC3F1360372E70599FFF796BB716861
:1038B000049853F049F80546002800F08F803369DA
:1038C00006F10C010C3002339A00FDF793F92946FA
:1038D0000122049853F0A0FA814616E5DDF858A0BD
:1038E000DDF850B0FFF7B9BBDDF81480DDF850B05B
:1038F000129C0595E9E4DDF818B0454602460B46F2
:10390000FCF730FC80468946DDE90223FDF770F8BC
:1039100048B940464946DDE90223FDF741F8002851
:103920009CD0E9079AD50B9C0599FFF756BB354605
:103930004E46B2E5A84639233546059A4E4608F864
:10394000013BBCE5069B134406930A9B984613442F
:103950000A936BE69A46DCE5392BEBD0B8F1000F01
:103960003FF7B7AEB7E62F4616E4314600230A22EA
:10397000049853F019F8119B0646002B119B0793EE
:103980003FF7BAAC002D7FF48FACB5E4DDE91289C6
:103990000225FFF781BA7FF49EAEDA077FF59BAE72
:1039A00094E6DDF8148005958FE40021049B5964AA
:1039B000FFF725BA002A3FF77BAE8CE6049B002573
:1039C000184629465D6452F0BFFF059068B90E4B5A
:1039D00000224FF4D5710D484AF01CF902460A4BFB
:1039E00040F2EA2109484AF015F9DDE9043225954B
:1039F0001A644FF0FF33012211930C920793FFF7E3
:103A00002CBB00BF00002440B0FC0800C4FC080030
:103A10002DE9F04F1C46794B9FB00E46002583469A
:103A2000186807921A9508904BF04EFF0021024645
:103A300033460020CDE904019846199313F801ABF1
:103A4000BAF12D0F5ED801A151F82AF0E33B000036
:103A5000053B0000053B0000053B0000053B000066
:103A6000053B0000053B0000053B0000053B000056
:103A7000393A0000393A0000393A0000393A00007A
:103A8000393A0000053B0000053B0000053B000003
:103A9000053B0000053B0000053B0000053B000026
:103AA000053B0000053B0000053B0000053B000016
:103AB000053B0000053B0000053B0000053B000006
:103AC000053B0000053B0000053B0000393A0000C3
:103AD000053B0000053B0000053B0000053B0000E6
:103AE000053B0000053B0000053B0000053B0000D6
:103AF000053B0000053B0000B7410000053B00000E
:103B0000D141000000230993BAF1300F00F0688220
:103B100000230A93AAF13003092B00F256840027F0
:103B200040463D463C460130082C07EB870104F136
:103B3000010405EB850C199090F800A0CCBF03EBB5
:103B4000410703EB4C05AAF13003092BEBD9089987
:103B500008924BF0E7FE089A8146002850D1199B45
:103B600001460894981819909B5CA3F13002092A29
:103B700000F2F082013192461998002A40F0F88450
:103B8000431C19934378F0E74FF0010EB31C1993CF
:103B9000B378A3F1300CBCF1090F00F2F582199A49
:103BA000302B0B9240F02B83013219921378302B7B
:103BB000FAD0A3F131000B92082840F21E830022B4
:103BC0000C9254BB0A9A0A4340F09882BAF1000F53
:103BD00007D1692B00F0398340F318826E2B00F077
:103BE0001B82079B4FF000084FF0000903B11E60D5
:103BF000404649461FB0BDE8F08F00BF28FF0800CF
:103C00002AF02002002153460894452A89468A4614
:103C100000F0AD820C91002CD4D0089A2846A24620
:103C20001346002A08BF23460893FCF7D7FB0B4630
:103C30000246102CCDE904230C9BA8BF4FF0100ABC
:103C4000092CA3EB09030B9317DD544B03EBCA03B9
:103C500053E91223FCF73CFC024638460F46164651
:103C6000FCF7BCFB02460B4630463946FCF77AFAB5
:103C70000F2CCDE9040100F3E1810B9B002B00F038
:103C800097820B9B40F3A782162B40F39A84C4F1D2
:103C900025030B9A934280F2DA84A4EB0A061644B9
:103CA00016F00F000AD03D4901EBC001DDE9042305
:103CB000D1E90001FCF70CFCCDE9040136F00F035B
:103CC0004ED0B3F59A7F00F34684102B4FEA2316AB
:103CD00040F3B285DFF8C8E04FF0000CCDF8289033
:103CE0007746E246F146DDE9042316F0010F10465F
:103CF00019464FEA66060AF1010A07D0D7E9002300
:103D0000FCF7E6FB4FF0010C02460B46012E07F1D3
:103D10000807EAD1CE46DDF82890BCF1000F01D0AB
:103D2000CDE90423059B0EEBCA0E1E4EA3F154737E
:103D30000593DDE90423DEE90001FCF7C9FB1A4B1A
:103D40000A460B40B342CDE9040100F2048417494E
:103D50008B4240F2FE844FF0FF33154ACDE9043226
:103D600000230A932346089A41465846009552F08C
:103D70006DFE1590002800F0EE830B9A4FF0000ABC
:103D80000C9B002ACDF820A0A9EB0303A8BF0023B9
:103D90000C9322EAE2731493E2E000BF10C3070021
:103DA000E8C207000000A07C0000F07F0000907CCB
:103DB000FFFFEF7FD21A1F2AA4EB020400F3C68292
:103DC000012300259340984626443C440A9BA74281
:103DD0001E443B46A8BF2346B342A8BF3346002B30
:103DE00002DDE41AF61AFF1A0C9B002B00F3548232
:103DF000002C00F36A820B9B002B00F39D82002EA7
:103E000000F38E82002F08DD51463A46584653F0A3
:103E100003F88246002800F08C824A461A995846D8
:103E200053F08EF80890002800F08382089A00234F
:103E3000D168D3600D91514653F062F80028C0F26A
:103E4000C584059F00F022845146089853F008FA73
:103E500000224FF0804304460D46FCF7B5FD0028D4
:103E600000F00A820D9B002B40F07C82049B002B0B
:103E700040F06183C7F31303002B40F0E682002279
:103E8000AB4B20462946FCF795FD002840F0F58312
:103E90002046A84B29460022FCF71AFB03460C4695
:103EA0000E90CDE9123401F100430F93A24EA34BC3
:103EB0003E409E42DDE90E4500F05B820A9B23B343
:103EC000B6F1D46F21D8DDE9127897A3D3E90023A6
:103ED00038464146FCF778FDA0B141463846FCF72C
:103EE00091FD012838BF0120FCF778FA0D9BCDE940
:103EF0001201002B40F0378301F100431690179315
:103F0000DDE9164505F1D6639D1BDDE910783846DD
:103F1000414653F0C5F802460B4620462946FCF7B9
:103F2000D7FA3A464346FCF71DF90C46CDE90401A1
:103F3000814B2340B34203D10A9B002B00F08E82B9
:103F40001A99584652F026FD4946584652F022FD2D
:103F50005146584652F01EFD0899584652F01AFD37
:103F6000159C5846616852F0EFFC8146002800F02D
:103F7000E081226904F10C010C3002329200FCF75E
:103F800039FE1CAB584601931BAB0093DDE90434AA
:103F90001A46CDE91034234653F002F91A9000284E
:103FA00000F09C810121584652F0FCFD8246002819
:103FB00000F0BF811B9B002BC0F2AE810C9A149EB7
:103FC0009F180A9A1C9C9B1A5D4A2344C4F136042C
:103FD000013B9342FFF6EEAE012300259846F3E63F
:103FE00098F8013003F0DF03582B00F07582434648
:103FF0000133199393F800A0BAF1300FF8D0984626
:10400000BAF1000F7AD001230A9383E5492B00F01F
:104010001C814E2B7FF4E5AD4A4919A853F0D6FF19
:1040200000283FF4DEAD199B1B78282B00F07E831F
:10403000454854F0D7F88046894663E0A4EB0A0669
:104040000B9B1E44002E3FF72BAE3FF489AE764209
:1040500016F00F020AD03D4B03EBC203DDE9040169
:10406000D3E90023FCF75EFBCDE9040136113FF4F0
:1040700077AE1F2E3FDC16F01003354F4FF0000CCB
:1040800018BF6A230A93DDE9042316F0010F1046D6
:10409000194607D0D7E90023FCF71AFA4FF0010CB4
:1040A00002460B46761007F10807EED1BCF1000F6F
:1040B00001D0CDE904230A9BA3B1DDE90401C1F3DA
:1040C0000A52C2F16B03002B0ADD1F2B40F3FA8367
:1040D0000020342B049040F321844FF05C7305934F
:1040E0006A230A9300220023DDE90401FCF758FC4F
:1040F00000283FF437AE2223CBF800304FF0000801
:104100004FF00009079A0AB1199B1360099B002B15
:104110003FF46EAD09F100434046994649461FB051
:10412000BDE8F08FAFF300800000C0FFFFFFDF416C
:104130000000F03F0000E03F0000F07F0000E07F63
:1041400002FCFFFF9CFD0800A80A090010C307003D
:10415000D8C307004FF0010A23F02002452A7FF45C
:104160002EAD44EA01030A9A13433FF43AAD199E77
:10417000731C199373782B2B00F023812D2B3FF4A4
:1041800003AD4FF0000E04E5002219960C9218E5DD
:104190001C9A03F2334304921D9A22F4801242EADD
:1041A00003530593210703D5059B43F00043059373
:1041B000DDE90489A6E70023099308F101031993B7
:1041C00098F801A0BAF1000F3FF40BAD98469BE4BC
:1041D00001230993F1E71633FFF630AF0C9BA9EBEF
:1041E0000309B34B03EBC903DDE90401D3E9002361
:1041F000FCF798FA8046894684E7A3F1300C0B9BC4
:10420000581C19905B78A3F13002092A00F2D18181
:1042100001300CEB8C0C199003EB4C0C0378ACF1D7
:10422000300CA3F13002092AF2D90B9A801A08281F
:1042300040F3BF8144F61F620C92BEF1000F3FF4C1
:10424000C0AC0C9A52420C92BBE49A4919A853F0A4
:10425000BDFE00283FF4C5AC199B19A89649013B47
:10426000199353F0B3FE10B9199B013319934FF012
:104270000008DFF8489245E7914B20462946002286
:10428000FCF726F90D9BCDE91201002B65D101F158
:1042900000430E900F9309E651461A46584652F0D5
:1042A00061FD8246002844D001461A9A584652F0D1
:1042B000A7FC00283DD00D9058461A9952F06AFB91
:1042C0000D9B002C1A937FF796AD22461A995846FB
:1042D00052F0A2FD1A9000287FF48DAD4F4605469E
:1042E00022234FF00008DFF8D491CBF800302946A4
:1042F000584652F04FFB3946584652F04BFB514658
:10430000584652F047FB1599584652F043FB08991E
:10431000584652F03FFBF5E6149A0C9FD61A50E629
:1043200049463246584652F077FD814600287FF4D0
:1043300069AD4F461A9DD3E74946149A584652F044
:1043400011FD814600287FF45AADF2E75D4AD31A89
:10435000012202FA03F5904636E5DDE91234CDE993
:104360000E34A3E50023584CCDE90E34CDE91234C8
:104370009CE5A7F15473514F0593DDE904452046B0
:10438000294652F08DFEDDE90E23FCF7A1F82B46FD
:104390002246FBF7E7FE4D4B0F409F42CDE904015B
:1043A00040F2DD8003F15473DDE91001994202D13E
:1043B000B0F1FF3FBDD04FF0FF33454ACDE90432A5
:1043C000BEE54FF0000EFFF7E1BB089940460B92A7
:1043D0004BF0A8FA0B9A089048B1002253461746B2
:1043E000924615461146914614460892B4E6199B2A
:1043F000981819909B5C302B40F02781024611469B
:10440000013219921378302BF9D0C0F10100014428
:10441000A3F13102082A10D8DDF864800025A3F149
:10442000300A01F10109012440462F4605EB8505BC
:1044300000210AEB4505FFF7A3BB4FF000094FF041
:10444000010A4C464F464D4686E60023214CCDE9F5
:104450000E3400231C4CCDE9123427E5DDE9125659
:10446000C4F3130728463146FDF7F4FBFCF702F8C6
:1044700002460B4628463146FBF772FE049D0D9E10
:1044800004462E430D46374343D107A3D3E9002307
:10449000FCF790FA00283FF453AD4F461A9DDDE932
:1044A000048924E7AFF300809535A094FFFFCF3F48
:1044B00010C3070090FD080094FD08000000F07F85
:1044C0000000E03FE2FBFFFF0000F03FFFFF9F7CAA
:1044D000FFFFEF7F0000F0BF099B19A90294584627
:1044E00001931AABB04A00931BAB53F073FA10F070
:1044F000070504463FF402AE062D7BD1079A12B1A0
:1045000008F1010313604FF000084FF00009FFF7B6
:104510006FBBA1A3D3E90023FCF74CFA0028BCD160
:10452000204629469EA3D3E90023FCF761FA002820
:104530003FF406ADB1E7049B012B86D1002F84D157
:104540004F461A9C222325464FF000084FF00009E1
:10455000CBF80030CBE62223CBF8003087E601F120
:1045600054740594E4E4DDE91234CDE91634C7E46B
:10457000012900F0138204EB010E0EF1FF3CCDF88F
:104580002CE003E04FEA4E05A4450BD0082C05EBC8
:10459000850E04F10104F5D907EB8703102CD8BF71
:1045A0005F00F1E7DDF82CE0082C894416DC744646
:1045B0003CE744F61F629445A8BF9446CDF830C04E
:1045C0003BE60B98794901EBC001DDE90423D1E911
:1045D0000001FBF77DFF8046894693E5BEF1100F91
:1045E00074464FF00001DCBF07EB870702EB47077B
:1045F000FFF7C6BA1A9A3AB135211CA852F05AFEF2
:1046000058461A9952F0C6F9013D1B9B042D3FF6FE
:10461000C9AD01A252F825F09141000041460000C9
:104620003B4600002D460000914100004FF0FF3353
:104630006FF00040CDE90430B4E55D4B0593B1E582
:104640001C9B04931D9B0593ACE50899E0E6C4F11F
:104650000F04564D05EBC401DDE90423D1E9000147
:10466000FBF736FF0B9B1C1B05EBC405D5E90023AC
:10467000FBF72EFF8046894644E500234D4CCDE9EB
:104680000E3400234C4CCDE912340FE43B460D9818
:10469000C4464F46AE464949C3F31302DDE91089CB
:1046A00000285BD08A4200F0FB80B5BB049A1CEA6C
:1046B000020F35D040464946049352F0F1FC0A9B64
:1046C00004460D46002B00F01F81049BC3F30A53E0
:1046D000C3F16B06002E40F36481394C002204EBD9
:1046E0000653FBF7F5FE02460B4640464946FBF7EC
:1046F00039FD1A9C8046894640464946314B002286
:10470000FBF7E6FE0B4625468046034389467FF4C9
:10471000EEAD2223CBF80030E9E51EEA030FC9D144
:104720001A9C0A9B2546002BE6D1E0E519A81CAA95
:10473000254953F065FC05287FF47AAC1D9B43F0B6
:10474000FF4343F4E00305931C9B0493DDE90489D4
:10475000D8E402F154730593FFF702BB002A71D12C
:10476000DDE904452246002C40F0B4800A9A002A74
:1047700040F0F08025F00044240D2405A4F58014B9
:104780001A9D6FEA14536FEA035305934FF0FF33FA
:104790000493DDE90489AAE59535A094FFFFDF3F86
:1047A00035E5AF350000E03FB4FD080010C3070059
:1047B0000000F07F0000E0BF0000E03FFFFF0F00BF
:1047C0000000F03F00005039A0FD08000D9B4F464F
:1047D000DDE90401DDE910890343A1D1C1F313032D
:1047E000002B9DD121F00044240D2405B4F1D66F97
:1047F000264695D9089A536913B91369012B8FDDA1
:1048000008990122584652F007FB5146089052F091
:1048100077FB002884DD0A9B002BAFD0A6F5801320
:104820001A9C6FEA13536FEA035305934FF0FF335B
:104830000493DDE904895FE74FF0000ADFF87CE1CB
:10484000FFF770BA002D48D1049A1CEA020F3FF41A
:1048500067AF40464946049352F022FC0A9B002B66
:1048600040D0049BC3F30A53C3F16B06002E40F300
:10487000A280534C002204EB0653FBF729FE0246AC
:104880000B4640464946FBF76BFC0022002380465E
:104890008946FCF785F800287FF453AE1A9C2BE775
:1048A000DDE904010A9A0446002A40D10246013299
:1048B0006DD0BEF1000F7FF430AF14EA0C0F3FF45F
:1048C0002FAFF7E64FF0FF3202FA03F3049A1A40D3
:1048D000049205E4BEF1000FB7D01EEA030F3FF4C7
:1048E0001FAFB6E702460B4640464946FBF738FC89
:1048F0001A9C00220023804689462546FCF750F882
:1049000000283FF4F4AC1DE6404649462B462246BB
:10491000FBF728FC1A9D80468946E8E4C2F14B0269
:104920004FF0FF3393400B400593FFF7D9BB254A67
:104930001A40B2F1D46F21D9611CBAD122498B42FD
:104940003FF4F8AC02F58013059300230493DDE9EE
:104950000489E5E61B4E1E40B6F1D66F3FF65EAF0A
:104960001A9DB6F15C7F2C463FF6C6AE22234FF06F
:1049700000084FF00009CBF80030B8E4100D4FF0FC
:10498000FF31C0F16B0081408C4292D1DAE70E4AD0
:1049900093423FF4CFAC01321A40D3E704F1010E49
:1049A00002E64046494622462B46FBF7DBFB1A9CB3
:1049B00080468946A0E602460B4662E7E8C2070049
:1049C0000000F03F0000F07FFFFFEF7F00000000DD
:1049D0002DE9F04F012984468E4687B064D800291E
:1049E00042D033A3D3E9002333A7D7E9006734A526
:1049F000D5E900450FF2D00BDBE900AB34A1D1E9DA
:104A00000001CDE9042334A3D3E90023CDE9002339
:104A100033A3D3E90023CDE9022333A3D3E9002351
:104A20004FF000084FF00009CCE90A01DDE904016C
:104A3000CCE90C01DDE90001CCE90E01DDE9020160
:104A4000CCE910010020CCE90089CCE90289CCE94D
:104A50000467CCE90645CCE908ABCCE91223CCF8D5
:104A6000D0E007B0BDE8F08F21A3D3E9002322A74F
:104A7000D7E90067CDE9042321A5D5E9004522A3A4
:104A8000D3E900230FF2880BDBE900ABCDE900236B
:104A900021A1D1E9000122A3D3E90023CDE902231A
:104AA00021A3D3E90023BBE76FF07400D9E700BF6F
:104AB000310BC0FF67263367D89E05C15D9DBBCB18
:104AC00007D57C362A299A6217DD70305A01599130
:104AD00039590EF7D8EC2F1511155868874AB48E3E
:104AE000A78FF9640D2E0CDBA44FFABE1D48B54705
:104AF000D182E6AD7F520E5108C9BCF367E6096A60
:104B00003BA7CA8485AE67BB1F6C3E2B8C68059B98
:104B10002BF894FE72F36E3CF1361D5F3AF54FA50B
:104B20006BBD41FBABD9831F79217E1319CDE05BAF
:104B300030B58DB00CF074FC014628B113480DB0AF
:104B4000BDE8304059F0E9BF114B5B7CDB0714D561
:104B5000104D02AC0FCD0FC42B6802A823600123B7
:104B60000D49009303220D4B0CF028FC014610B1B7
:104B70000B4859F0D2FF0DB030BD0A4D07AC0FCD38
:104B80000FC42B6807A82360E9E700BFAA0C09003F
:104B90003510002040C0070008C7070000C7070005
:104BA000CF0C090054C0070010B50446044859F062
:104BB000B4FF2046BDE8104005215EF07CBE00BF7A
:104BC000F50C090030B593B013F08EFC442200219F
:104BD000054601A849F04AFD0123124C237420F038
:104BE0005DFC637CA0B903F0FE0363742946442393
:104BF0000D4801AA60F01FFF10B9019B052B0ADCCC
:104C0000637C23F0020363748023E37413B030BD2C
:104C100043F00103E9E7637C43F0020363749DF80A
:104C20003C30F2E7351000200600565108B5FFF77A
:104C3000C9FF03210123064A06480CF065FA014624
:104C400020B1BDE80840044859F067BF08BD00BF67
:104C500000C7070008C707001D0D090070B50378DD
:104C60008AB004460E4607AD032B20D8DFE803F0D8
:104C700002191B1D114928464AF0D8FB0595637897
:104C80001E210493A37830460393E3780C4A0293E1
:104C90002379019363790093A37959F04BFF0AB00C
:104CA00070BD0849E7E70849E5E70849E3E70A2155
:104CB0002846074A59F03EFFE0E700BF490D0900CA
:104CC0006B0D0900500D0900570D0900610D090019
:104CD000254A090030B5154689B00C465EF070FED5
:104CE0006946FFF7BBFF35B922466946054859F0CA
:104CF00014FF09B030BD2B4622466946024859F0E0
:104D00000CFFF6E78E0D0900B10D090010B50C4639
:104D100090B010466946FFF7A1FF204608A9FFF7AB
:104D20009DFF6A46024808A959F0F7FE10B010BD71
:104D3000DA0D090010B50C4688B05EF041FE6946F8
:104D4000FFF78CFF22466946024859F0E6FE08B09C
:104D500010BD00BFFA0D090000B589B05EF030FE4D
:104D60006946FFF77BFF6946024859F0D6FE09B055
:104D70005DF804FB200E090010B50C4688B05EF00B
:104D80001FFE6946FFF76AFF22460A4C69460A4839
:104D900059F0C3FE4FF4004200232046074947F074
:104DA000F9FD002200232046054947F0F3FD08B035
:104DB00010BD00BF381900203B0E09000819002063
:104DC000D818002000B589B029B10A4809B05DF8AB
:104DD00004EB59F0A2BE5EF0F3FD6946FFF73EFF1B
:104DE0006946054859F099FE044872F060FF09B021
:104DF0005DF804FB610E0900850E0900D81800203B
:104E000070B590B013F070FB0568064649481FF076
:104E1000F1FC014610B1484859F07FFE1FF0ACFC90
:104E2000014610B1454859F078FE00214FF400408A
:104E300048F0D4F842480DF0CFFC42480DF0E6FCB3
:104E400000200BF08BFB014618B13F4859F065FE7E
:104E500031E03E4859F061FE20F03AFB044638BB91
:104E60003B4859F05AFE3B4A2D691046E97859F003
:104E700054FD901C297959F050FD101D697959F0A5
:104E80004CFD52F8020CD2F8021003AB8DF814401E
:104E900003C303A80BF042FB2F4B5B7CDB070DD455
:104EA0002E4D0BAC0FCD0FC42B680BA823600CE06C
:104EB0002B4859F032FE002010B070BD294D06ACD1
:104EC0000FCD0FC42B6806A8236001230322009393
:104ED0002549264B0CF072FA044610B101462448CD
:104EE000B4E7244859F019FEFFF76CFE224872F02F
:104EF000CAFE05234FF4805220491F48009447F012
:104F0000A3FC1F491F4872F0C4FE1F491F4872F0DE
:104F1000C0FE00F027FC00F0C9FA234622463146C5
:104F20001B4821F04BF800214FF4004048F056F8A0
:104F3000F9E700BFF7E80500960E0900B40E090076
:104F40006008002050080020CF0E0900F00E090074
:104F5000080F09004B1000203510002054C0070036
:104F6000390F090040C0070008C7070000C7070045
:104F7000750F09009E0F090038190020F0960020D7
:104F8000314B0000081900202D4C0000D8180020DB
:104F90006F00565198B503460F4800AF026802F003
:104FA0000702022A16D919680C4A0D4B6C4688B0C4
:104FB000002918BF13466A460A49C2E905134FF48F
:104FC00000739383084B4FF4E65142F8103F59F0B9
:104FD000B2FCA546BD4698BD68120020C40F09006A
:104FE000CA0F0900D30F0900030000012DE9F04F9B
:104FF000B84B87B0994200AF07D00133994200F017
:1050000065811C37BD46BDE8F08F8568B24C2A78B3
:105010002368012A03F0070318D1022B0FD96B79FB
:105020006D4688B06A46AD492046C2E905130323A0
:105030004FF4C65142F8103F59F07DFCAD460021B7
:10504000A74B084619701FF06BFCDAE7A54A69798F
:105050001170EA78002A40F02A81022B14D9A8782E
:1050600012F012FD6E4688B06A469F4B4FF4E6512F
:10507000C2E905304FF4007393839C4B204642F8FD
:10508000103F59F058FCB546AB78042BB9D101213B
:10509000934B002019701FF043FC236803F00703B3
:1050A000022BAED9E846924B4FF486517B61022326
:1050B00089483B6107F1100259F03DFC236803F079
:1050C0000703022B9DD988B06A462B7903268949AC
:1050D0008148C2E905134FF4C65142F8106F59F0E8
:1050E0002AFC2368C54603F00703022B89D988B040
:1050F0006A466B7980497848C2E905134FF4C65176
:1051000042F8106F59F017FC2368C54603F00703F7
:10511000022B7FF676AF687812F0AAFC88B06A4658
:105120004FF4007A754BDFF8C491C2E90530A2F85C
:105130001CA04FF4E651684842F8109F59F0FBFB61
:105140002368C54603F00703022B7FF65AAF2A7C7B
:105150006B4EDFF8B0B188B0002A0CBF33465B4617
:105160006A466949A2F81CA0C2E905135A484FF4DF
:10517000E65142F8109F59F0DEFB2368C54603F064
:105180000703022B7FF63DAFAA7C88B0002A0CBF34
:1051900033465B466A465D49A2F81CA0C2E9051386
:1051A0004D484FF4E65142F8109F59F0C4FB236874
:1051B000C54603F00703022B7FF623AFEA7C88B0D5
:1051C000002A0CBF33465B466A465149A2F81CA030
:1051D000C2E9051340484FF4E65142F8109F59F0D8
:1051E000AAFB2368C54603F00703022B7FF609AF2D
:1051F0006A7C002A0CBF33465B466E4688B06A461E
:105200004449A2F81CA0C2E9051333484FF4E65103
:1052100042F8109F59F08FFB2368C54603F007033F
:10522000022B7FF6EEAE88B06A4669693A4B2A488F
:1052300053614FF47A73B1FBF3F3C2E906310423EF
:105240004FF4035142F8103F59F075FB2368B546FF
:1052500003F00703022B7FF6D4AED5E902898AB0AA
:105260006D462E4B2E4A6B61404600234946FBF7A4
:1052700089FC06232A46C5E90601C5E908894FF4D9
:10528000435142F8103F144859F055FB2368B54686
:1052900003F00703022B7FF6B4AE224B4FF4865186
:1052A0007B6102230C483B6107F110020BE0022BEB
:1052B0007FF6A7AE1C4B4FF486517B61022320463C
:1052C0003B6107F1100259F036FB9AE68068FFF760
:1052D00061FE96E6060056D168120020F20F090022
:1052E0006C920020511000201810090003000001EA
:1052F00041100900611009007610090086100900AC
:10530000EC0F0900E70F09009F100900B110090018
:10531000C2100900D3100900E310090004110900AC
:1053200040420F0023110900291009002DE9F04324
:105330008FB000AF13F006FC20220021044607F1D5
:10534000180049F093F901234B494C480A78057835
:105350007A773B77002D43D187F82A304FF6E85310
:10536000FB620023464AC7E908232023214645481B
:1053700007F1180212F01AFC434C05462368002876
:105380003CD05B0729D0387E12F062FB0446787E61
:1053900012F06EFB97F830306D460A2B98BF3B4AEF
:1053A0008CB094BF52F82330394B6A463949D061EA
:1053B000C2E9051438491362396040F20241B980EC
:1053C00079683548354B506211852F484FF451515B
:1053D00042F8103F59F0AFFAAD464FF0FF3546E0C6
:1053E000072A98BF01323B76BB7698BFD3B20B70C9
:1053F0000021017008461FF093FAB6E703F0070397
:10540000022B34D9E9460226DFF894804FF4865106
:105410002046C7F814803E6107F1100259F08BFA5C
:10542000236803F00703B34221D9387E12F010FB42
:1054300088B06A461B4B4FF4E651C2E905304FF481
:1054400000739383184B204642F8103F59F073FACB
:105450002368CD4603F00703B34208D94FF48651C1
:105460002046C7E9046807F1100259F064FA28469B
:105470003C37BD46BDE8F083511000206C920020FF
:1054800080969800090056516812002020C7070036
:10549000431109004D11090000020103050000033A
:1054A0006C1109008C110900030000010348044B32
:1054B0004360044B036113F00DBF00BFC83F0020E1
:1054C000ED4F0000070056D1014816F00BBC00BF9D
:1054D000780800202DE9F04393B0044600AF464819
:1054E0000D4672F0E4FB002101201FF019FA4FF085
:1054F00004080023204607F10801C7E90238C7E97C
:105500000633C7E9083314F051FF064620B9FE20E0
:105510004C37BD46BDE8F0834146204661F04FFB65
:10552000204661F04CFC03281FD92046391D61F04C
:10553000E9FB0028EBD163F0D8FA7B682F4AC01A48
:10554000C0F30E03A3FB02317860C00BA0FB020284
:10555000DB0B2B4A43EA41431B18B3FBF2F3102148
:10556000284A07F1180049F03FFE07F128091023E7
:105570004A4605F10C01012013F06EFC102307F1DF
:105580003808E9184246012013F066FCDFF878C0BD
:10559000DCF8003003F00703022B28D96A887188F1
:1055A00052BA287A92B26D4649BA8EB0043A89B29C
:1055B0006B46164EC3E90910C3E90562144AC3E9F4
:1055C00007983A6140F20572BA8207F11802DA626E
:1055D0001A46D7E90401186399860E4B42F8103F2A
:1055E000002344F6C041604603F018F8AD4620465B
:1055F00061F0FDF900208BE7201A002000CA9A3BD9
:1056000040420F00AB1209002C120020B612090014
:1056100001030204080000032DE9F041DFF80C81CA
:105620000120424684B004AF22F8040B404913F035
:105630000BFD404C054628B323685A071BD05DF08C
:105640009AFB06685DF097FB00684AF033F96D46F7
:105650008AB004AA384BD061C2E9053640F2013362
:105660001384364B42F8103F00234FF4115120466B
:1056700002F0D4FFAD4640F267620023304847F0A5
:10568000B7F950E02F4E33680133336012F02CFF2E
:1056900004223388CDE902524FF0FF3208F10401B1
:1056A000CDE900522A4616F0B9F9034600B3236843
:1056B0005B07E0D05DF05FFBD0F800805DF05BFB46
:1056C00000684AF0F7F86E468AB004AA1E4BD06113
:1056D000C2E9053840F201331384184B42F8103FF9
:1056E0004FF411512B46204602F098FFB546C2E711
:1056F000226802F00702022A0FD96D4688B031688D
:1057000004AA1248C2E90501032142F8101F4FF410
:10571000C651204602F082FFAD464FF420320023EE
:105720000B4847F031F9BD46BDE8F081E03F00206D
:10573000E01209002C120020E81209000400000108
:10574000501A0020DC3F0020051309002113090036
:10575000201A002000220023014847F015B900BF9D
:10576000501A002008B505F0CDFE084B0849186016
:10577000084872F08EFA0848084972F08AFA16F062
:105780001FFBBDE80840064816F0ACBAE83F002011
:1057900019560000501A0020201A0020C954000099
:1057A0007808002010B5094C0A44914200D110BD80
:1057B00011F8013B58400309E35C0001C0B24340CB
:1057C0001809205C1B01DBB25840EEE738130900D2
:1057D0002DE9F84300AF81468846154600F0BAF837
:1057E000C36804461BB943691A78002A55D10023BF
:1057F000E36063684B4558F8232009DB444B636141
:10580000204600F08DF84FF0FF30BD46BDE8F8832C
:10581000511C616116782D2EF0D1911C6161517877
:105820002D29A16004D1927862B901336360E5E764
:1058300041B9374B31462846636149F08FFD002856
:10584000DED0A660A6682846314649F087FD3A2E8C
:10585000626900D030BB137813B9636801336360A9
:105860002368ABB12B783A2B12D02A48036859072A
:105870000ED06D4688B06A46274BC2E90536032331
:1058800042F8103F00234FF4C25102F0C7FEAD466C
:10589000204600F045F83F20B7E75A1C42611B78CC
:1058A0008360CFE743783A2B0BD000232361137832
:1058B00013B9636801336360204600F031F8A068D3
:1058C000A3E71378616812482BB9013189456160FB
:1058D00004DD58F82120C4E90420EAE760612D784E
:1058E0003A2D04D1204600F01BF828468DE72268A7
:1058F000002ACDD0074802685207C9D06D4688B04B
:105900006A460649C2E90516032142F8101FBAE7A4
:105910007DE3090098110020481309005D13090078
:105920000268074B1A604268064B1A608268064B91
:105930001A60C268054B1A600269054B1A6070470D
:10594000A00800209C080020F43F0020F03F002029
:10595000EC3F002000487047840800202DE9F04FFC
:1059600091B0009302F004030293C2F3C203013327
:10597000840705460E46DDF868900392059340F0D3
:10598000BB81041D30B1072909D86FF01B0011B08D
:10599000BDE8F08F01F00706341DC6F10806009B34
:1059A0004FF000084FF0040A591E4FF0FF334746EE
:1059B0000193C3465346CDF810800DB1009A226082
:1059C0000598002800F3E8809848009A824203D3A3
:1059D00097488242C0F0E080039AA4EB050E92073C
:1059E0004FEA9E0000F103810F2F00F2B180002DDD
:1059F00000F0058107F140020DEB020C019A0CF852
:105A0000200C0CF8102C049801300490E7E07A2860
:105A10005DD84B280ED8472859D829282DD82528B5
:105A200052D054D820287AD02338D0F1000B4BEB39
:105A3000000B74E04C382E2849D8DFE800F070489D
:105A4000484848484848484848484B4848484848D3
:105A500048484859484B4B595959704B6D48704804
:105A6000184B184848827F4B48484B487F0000201D
:105A70004FF0000B4FF0040A38E001222A38C0B280
:105A800002FA00F010EA0E0F49D110F0625C2FD13B
:105A900010EA020B43D06046013C5444B4FBFAF4D4
:105AA0000AFB04F4002D61D0A3EB050CA444664569
:105AB000FFF46BAF002868D1042B47D159F8043BA1
:105AC0002360042304342AE0019A013A01924FF042
:105AD000000B24E011F8010C6C2834D1002011F8DF
