:020000040000FA
:1000000050CA012025BF00004B30060011BF000080
:1000100011BF000011BF000011BF000011BF0000A0
:10002000000000000000000000000000E1C000002F
:1000300011BF00000000000085C0000011BF0000DB
:10004000B9C20000B9C20000B9C20000B9C20000C4
:10005000B9C20000B9C20000B9C20000B9C20000B4
:10006000B9C20000B9C20000B9C20000B9C20000A4
:10007000B9C20000B9C20000B9C20000B9C2000094
:10008000B9C20000B9C20000B9C20000B9C2000084
:10009000B9C20000B9C20000B9C20000B9C2000074
:1000A000B9C20000B9C20000B9C20000B9C2000064
:1000B000B9C20000B9C20000B9C20000B9C2000054
:1000C000B9C20000B9C20000B9C20000B9C2000044
:1000D000B9C20000B9C20000B9C20000B9C2000034
:1000E000B9C20000B9C20000B9C20000B9C2000024
:1000F000B9C20000B9C20000B9C20000B9C2000014
:10010000B9C20000B9C20000B9C20000B9C2000003
:10011000B9C20000B9C20000B9C20000B9C20000F3
:10012000B9C20000B9C20000B9C20000B9C20000E3
:10013000B9C20000B9C20000B9C20000B9C20000D3
:10014000B9C20000B9C20000B9C20000B9C20000C3
:10015000B9C20000FFFFFFFF81F0004102E000BFD5
:1001600083F0004330B54FEA41044FEA430594EA77
:10017000050F08BF90EA020F1FBF54EA000C55EAB2
:10018000020C7FEA645C7FEA655C00F0E2804FEA83
:100190005454D4EB5555B8BF6D420CDD2C4480EA65
:1001A000020281EA030382EA000083EA010180EA95
:1001B000020281EA0303362D88BF30BD11F0004FE3
:1001C0004FEA01314FF4801C4CEA113102D0404219
:1001D00061EB410113F0004F4FEA03334CEA133354
:1001E00002D0524263EB430394EA050F00F0A7806C
:1001F000A4F10104D5F1200E0DDB02FA0EFC22FA67
:1002000005F2801841F1000103FA0EF2801843FA5A
:1002100005F359410EE0A5F120050EF1200E012A4B
:1002200003FA0EFC28BF4CF0020C43FA05F3C01889
:1002300051EBE37101F0004507D54FF0000EDCF102
:10024000000C7EEB00006EEB0101B1F5801F1BD3AB
:10025000B1F5001F0CD349085FEA30004FEA3C0CAF
:1002600004F101044FEA445212F5800F80F09A80A5
:10027000BCF1004F08BF5FEA500C50F1000041EBA9
:10028000045141EA050130BD5FEA4C0C404141EBAD
:100290000101013C28BFB1F5801FE9D291F0000FA8
:1002A00004BF01460020B1FA81F308BF2033A3F157
:1002B0000B03B3F120020CDA0C3208DD02F1140C4E
:1002C000C2F10C0201FA0CF021FA02F10CE002F189
:1002D0001402D8BFC2F1200C01FA02F120FA0CFC82
:1002E000DCBF41EA0C019040E41AA2BF01EB0451CB
:1002F000294330BD6FEA04041F3C1CDA0C340EDCC9
:1003000004F11404C4F1200220FA04F001FA02F30B
:1003100040EA030021FA04F345EA030130BDC4F1C9
:100320000C04C4F1200220FA02F001FA04F340EABE
:100330000300294630BD21FA04F0294630BD94F06F
:10034000000F83F4801306BF81F480110134013D56
:100350004EE77FEA645C18BF7FEA655C29D094EAC7
:10036000050F08BF90EA020F05D054EA000C04BF45
:100370001946104630BD91EA030F1EBF0021002030
:1003800030BD5FEA545C05D14000494128BF41F0CF
:10039000004130BD14F580043CBF01F5801130BD33
:1003A00001F0004545F0FE4141F470014FF00000BE
:1003B00030BD7FEA645C1ABF194610467FEA655C6F
:1003C0001CBF0B46024650EA013406BF52EA033511
:1003D00091EA030F41F4002130BD00BF90F0000FFF
:1003E00004BF0021704730B54FF4806404F132043B
:1003F0004FF000054FF0000150E700BF90F0000FF4
:1004000004BF0021704730B54FF4806404F132041A
:1004100010F0004548BF40424FF000013EE700BFEA
:1004200042004FEAE2014FEA31014FEA02701FBF7A
:1004300012F07F4393F07F4F81F06051704732F0AC
:100440007F4208BF704793F07F4F04BF41F4002103
:10045000704730B54FF4607401F0004521F0004161
:100460001CE700BF50EA010208BF704730B54FF0EB
:1004700000050AE050EA010208BF704730B511F0EC
:10048000004502D5404261EB41014FF4806404F124
:1004900032045FEA915C3FF4D8AE4FF003025FEAAA
:1004A000DC0C18BF03325FEADC0C18BF033202EB2E
:1004B000DC02C2F1200300FA03FC20FA02F001FA88
:1004C00003FE40EA0E0021FA02F11444BDE600BF2B
:1004D00070B54FF0FF0C4CF4E06C1CEA11541DBFDA
:1004E0001CEA135594EA0C0F95EA0C0F00F0DEF8A5
:1004F0002C4481EA030621EA4C5123EA4C5350EA8A
:10050000013518BF52EA033541F4801143F48013DA
:1005100038D0A0FB02CE4FF00005E1FB02E506F06B
:100520000042E0FB03E54FF00006E1FB03569CF0C0
:10053000000F18BF4EF0010EA4F1FF04B6F5007FC6
:1005400064F5407404D25FEA4E0E6D4146EB060638
:1005500042EAC62141EA55514FEAC52040EA5E50C1
:100560004FEACE2EB4F1FD0C88BFBCF5E06F1ED86B
:10057000BEF1004F08BF5FEA500E50F1000041EBA2
:10058000045170BD06F0004646EA010140EA02004F
:1005900081EA0301B4EB5C04C2BFD4EB0C0541EA71
:1005A000045170BD41F480114FF0000E013C00F386
:1005B000AB8014F1360FDEBF002001F0004170BDAA
:1005C000C4F10004203C35DA0C341BDC04F11404C3
:1005D000C4F1200500FA05F320FA04F001FA05F24F
:1005E00040EA020001F0004221F0004110EBD3701C
:1005F00021FA04F642EB06015EEA430E08BF20EA48
:10060000D37070BDC4F10C04C4F1200500FA04F3EA
:1006100020FA05F001FA04F240EA020001F000417C
:1006200010EBD37041F100015EEA430E08BF20EAEF
:10063000D37070BDC4F1200500FA05F24EEA020E37
:1006400020FA04F301FA05F243EA020321FA04F066
:1006500001F0004121FA04F220EA020000EBD3701D
:100660005EEA430E08BF20EAD37070BD94F0000F1D
:100670000FD101F00046400041EB010111F4801F51
:1006800008BF013CF7D041EA060195F0000F18BF02
:10069000704703F00046520043EB030313F4801F3E
:1006A00008BF013DF7D043EA0603704794EA0C0FF8
:1006B0000CEA135518BF95EA0C0F0CD050EA41060E
:1006C00018BF52EA4306D1D181EA030101F000418B
:1006D0004FF0000070BD50EA410606BF10461946B3
:1006E00052EA430619D094EA0C0F02D150EA0136BF
:1006F00013D195EA0C0F05D152EA03361CBF104600
:1007000019460AD181EA030101F0004141F0FE419E
:1007100041F470014FF0000070BD41F0FE4141F422
:10072000780170BD70B54FF0FF0C4CF4E06C1CEA22
:1007300011541DBF1CEA135594EA0C0F95EA0C0FD7
:1007400000F0A7F8A4EB050481EA030E52EA033592
:100750004FEA013100F088804FEA03334FF08055B3
:1007600045EA131343EA12634FEA022245EA1115E0
:1007700045EA10654FEA00260EF000419D4208BF91
:10078000964244F1FD0404F5407402D25B084FEA3E
:100790003202B61A65EB03055B084FEA32024FF4EA
:1007A00080104FF4002CB6EB020E75EB030E22BF47
:1007B000B61A754640EA0C005B084FEA3202B6EB07
:1007C000020E75EB030E22BFB61A754640EA5C00B6
:1007D0005B084FEA3202B6EB020E75EB030E22BF46
:1007E000B61A754640EA9C005B084FEA3202B6EB47
:1007F000020E75EB030E22BFB61A754640EADC0006
:1008000055EA060E18D04FEA051545EA16754FEA67
:1008100006164FEAC30343EA52734FEAC2025FEA85
:100820001C1CC0D111F4801F0BD141EA00014FF014
:1008300000004FF0004CB6E711F4801F04BF0143E5
:100840000020B4F1FD0C88BFBCF5E06F3FF6AFAE01
:10085000B5EB030C04BFB6EB020C5FEA500C50F191
:10086000000041EB045170BD0EF0004E4EEA113114
:1008700014EB5C04C2BFD4EB0C0541EA045170BD1B
:1008800041F480114FF0000E013C90E645EA060E5F
:100890008DE60CEA135594EA0C0F08BF95EA0C0F8D
:1008A0003FF43BAF94EA0C0F0AD150EA01347FF4D5
:1008B00034AF95EA0C0F7FF425AF104619462CE7AC
:1008C00095EA0C0F06D152EA03353FF4FDAE10460F
:1008D000194622E750EA410618BF52EA43067FF460
:1008E000C5AE50EA41047FF40DAF52EA43057FF4F0
:1008F000EBAE12E74FF0FF3C06E000BF4FF0010CFB
:1009000002E000BF4FF0010C4DF804CD4FEA410C5E
:100910007FEA6C5C4FEA430C18BF7FEA6C5C1BD02B
:1009200001B050EA410C0CBF52EA430C91EA030FAC
:1009300002BF90EA020F0020704710F1000F91EA09
:10094000030F58BF994208BF90422CBFD8176FEAD7
:10095000E37040F0010070474FEA410C7FEA6C5CA5
:1009600002D150EA013C07D14FEA430C7FEA6C5CAC
:10097000D6D152EA033CD3D05DF8040B704700BFD8
:100980008446104662468C461946634600E000BF26
:1009900001B5FFF7B7FF002848BF10F1000F01BDF8
:1009A0004DF808EDFFF7F4FF0CBF012000205DF8C3
:1009B00008FB00BF4DF808EDFFF7EAFF34BF012048
:1009C00000205DF808FB00BF4DF808EDFFF7E0FFE1
:1009D00094BF012000205DF808FB00BF4DF808ED32
:1009E000FFF7CEFF94BF012000205DF808FB00BF99
:1009F0004DF808EDFFF7C4FF34BF012000205DF87B
:100A000008FB00BF4A0011D212F5001211D20DD519
:100A10006FF47873B3EB62520ED44FEAC12343F004
:100A2000004343EA505323FA02F070474FF00000AE
:100A3000704750EA013002D14FF0FF3070474FF05D
:100A4000000070474FEA4102B2F1E04324BFB3F522
:100A5000001CDCF1FE5C0DD901F0004C4FEAC00235
:100A60004CEA5070B2F1004F40EB830008BF20F019
:100A70000100704711F0804F21D113F13872BCBFD3
:100A800001F00040704741F480114FEA5252C2F128
:100A90001802C2F1200C10FA0CF320FA02F018BF71
:100AA00040F001004FEAC1234FEAD32303FA0CFCC4
:100AB00040EA0C0023FA02F34FEA4303CCE77FEA53
:100AC000625307D150EA01331EBF4FF0FE4040F49D
:100AD0004000704701F0004040F0FE4040F400004C
:100AE000704700BF7BB972B90029BEBF00204FF02C
:100AF000004106E008BF00281CBF6FF000414FF026
:100B0000FF3000F075B8ADF1080C6DE904CE002996
:100B100009DB002B1ADB01F0B4F8DDF804E0DDE9B5
:100B2000022304B07047404261EB4101002B1BDB04
:100B300001F0A7F8DDF804E0DDE9022304B040424B
:100B400061EB4101524263EB43037047524263EB56
:100B5000430301F096F8DDF804E0DDE9022304B078
:100B6000404261EB41017047524263EB430301F0A5
:100B700088F8DDF804E0DDE9022304B0524263EBBB
:100B80004303704753B94AB9002908BF00281CBF66
:100B90004FF0FF314FF0FF3000F02AB8ADF1080CF4
:100BA0006DE904CE01F06DF8DDF804E0DDE9022323
:100BB00004B07047D0B500220B4B06460F46FFF736
:100BC00087FCFFF71FFF0446FFF708FC0022074BD6
:100BD000FFF77EFC02460B4630463946FFF7C0FA67
:100BE000FFF710FF2146D0BD0000F03D0000F041AE
:100BF000704700BF844641EA000313F0030349D164
:100C0000403A23D30B6803604B6843608B68836072
:100C1000CB68C3600B6903614B6943618B69836176
:100C2000CB69C3610B6A03624B6A43628B6A83625E
:100C3000CB6AC3620B6B03634B6B43638B6B836346
:100C4000CB6BC36340304031403ADBD230320BD300
:100C50000B6803604B6843608B688360CB68C3603C
:100C600010301031103AF3D20C3205D351F8043B56
:100C700040F8043B043AF9D2043208D0D2071CBF32
:100C800011F8013B00F8013B01D30B88038060465B
:100C9000704700BF082A13D38B07B1D010F00303AD
:100CA000AED0C3F10403D21ADB071CBF11F8013B1D
:100CB00000F8013BA4D331F8023B20F8023B9FE748
:100CC000043AD9D3013A11F8013B00F8013BF9D2BB
:100CD0000B7803704B7843708B7883706046704755
:100CE00080EA010C1CF0030F37D110F0030C20F048
:100CF000030021F0030150F8042B08BF51F8043B16
:100D00000ED08CF0030C6FF07F434FEACC0C23FA2B
:100D10000CFC51F8043B42EA0C0243EA0C0300BF0E
:100D2000A2F1013C9A4201BF2CEA020C1CF0803F68
:100D300050F8042B51F8043BF2D04FEA02604FEA1E
:100D40001222012828BFB0EB036F08BF1B0AF4D0A2
:100D500003F0FF03000EC01A704710F0030F0AD013
:100D600010F8012B11F8013B012A28BF9A42F4D058
:100D7000A2EB030070474DF8045D50F8042B01F01E
:100D8000030521F0030151F8043B022D26D04DD874
:100D900022F07F45B5EB132FA2F1013C2CEA020CA7
:100DA0000DD11CF0803C08BF51F8043B0AD185EA04
:100DB0000205B5EB036F0CD150F8042BE8E74FEABE
:100DC00013235BE03CF07F4C54D10B784FEA126563
:100DD00054E04FEA126503F0FF034FE04FEA02458B
:100DE000A2F1013C4FEA15452CEA020CB5EB134F7A
:100DF00018D11CF0803C08BF51F8043B07D185EAAC
:100E00000205B5EB034F09D150F8042BE6E75FEA82
:100E10000C4C2FD10B884FEA12452FE04FEA0343C9
:100E20004FEA12454FEA134328E000BF02F0FF05E6
:100E3000B5EB136FA2F1013C2CEA020C0DD11CF0B2
:100E4000803C08BF51F8043B0AD185EA0205B5EBA6
:100E5000032F0AD150F8042BE8E74FEA13630DE0A3
:100E600012F0FF0F06D051F8043B4FEA122523F091
:100E70007F4303E04FF0000020BC704705F0FF0205
:100E800003F0FF00012828BF904204BF2D0A1B0A6F
:100E9000F4D0A2EB000020BC704700BF4FEA410C29
:100EA0007FEA6C5C02D150EA013C0AD14FEA430C64
:100EB0007FEA6C5C02D152EA033C02D14FF00000A1
:100EC00070474FF0010070474FEA410212F50012DF
:100ED00015D211D56FF47873B3EB625212D94FEA81
:100EE000C12343F0004343EA505311F0004F23FA6B
:100EF00002F018BF404270474FF00000704750EAC0
:100F0000013005D111F0004008BF6FF0004070477C
:100F10004FF00000704700BF2DE9F14F03F11C04B2
:100F200002EB840C4FEA930B8A68CB680868496827
:100F300000F046F93CE9F0006040694072407B40B7
:100F40000BF1060E4EE083EA134480EA134582EA71
:100F5000134746BA96EA3444604000F00F1684EA1C
:100F6000063420F00F1684EA161054BA94EA0106EB
:100F7000724002F00F1486EA043622F00F1486EA5B
:100F800014124CBA6540694001F00F1485EA04352B
:100F900021F00F1485EA14115CBA67407B4003F01E
:100FA0000F1487EA043723F00F1487EA141344BAA6
:100FB00044404DBA4D4056BA56405FBA5F4087EA4A
:100FC000174886EA174B84EA17464FEA38488BEAF7
:100FD0001B4485EA1B4788EA1B4580EA3440694088
:100FE00072407B4000F0703400F0803500F00F302C
:100FF00040EA440040EAD50080EA900404F033243B
:1010000080EA8400604001F0703401F0803501F026
:101010000F3141EA440141EAD50181EA910404F02B
:10102000332481EA8401614002F0703402F080359B
:1010300002F00F3242EA440242EAD50282EA920406
:1010400004F0332482EA8402624003F0703403F037
:10105000803503F00F3343EA440343EAD50383EAC0
:10106000930404F0332483EA84036340C943DB43DD
:1010700081EA000483EA044686EA020183EA014326
:1010800082EA334583EA14435C4084EA00077FEA3E
:10109000040A8AEA024A8AEA010B87EA11488AEAC4
:1010A000374A80EA060181EA1A418AEA030A04EA19
:1010B0000A00454088EA040707EA0B0041408AEA33
:1010C0000B0608EA060084EA34428AEA3A4602EA53
:1010D000060358404540414087EA37438BEA3B408E
:1010E00003EA000985EA090582EA0309464006EA9F
:1010F0000906714085EA010005EA3546464006EAE0
:10110000314181EA304181EA364606EA304686EAD4
:10111000354634400F4086EA010508EA050886EAAC
:101120003640024088EA020881EA314213405C40BE
:1011300080EA020309EA030987EA0907674088EAA7
:10114000040806EA0A0601EA0B018AEA0B042540B4
:101150008AEA3A44204045408BEA3B4B02EA0B02C4
:10116000564084EA0B04234059406E40694087EAA8
:10117000364080EA384080EA060380EA104481EA7B
:10118000134585EA344585EA17427D4082EA3541B8
:1011900080EA05403CE9F0006040694072407B40D5
:1011A000BEF1010E3FF6CFAE20BC00F05FF8286024
:1011B0006960AA60EB60BDE8F08F00BF00F000BA84
:1011C00080EA101404F0F01480EA0410604081EA10
:1011D000111404F0F01481EA0411614082EA12143F
:1011E00004F0F01482EA0412624083EA131404F05B
:1011F000F01483EA0413634080EA102404F47F446B
:1012000080EA0420604081EA112404F47F4481EAEA
:101210000421614082EA122404F47F4482EA042219
:10122000624083EA132404F47F4483EA0423634086
:1012300081EA500404F0553480EA4400614083EAB6
:10124000520404F0553482EA4402634082EA900476
:1012500004F0333480EA8400624083EA910404F0AD
:10126000333481EA84016340704700BF82EA90040E
:1012700004F0333480EA8400624083EA910404F08D
:10128000333481EA8401634081EA500404F0553428
:1012900080EA4400614083EA520404F0553482EA53
:1012A0004402634080EA102404F47F4480EA04206E
:1012B000604081EA112404F47F4481EA0421614002
:1012C00082EA122404F47F4482EA0422624083EA20
:1012D000132404F47F4483EA0423634080EA101457
:1012E00004F0F01480EA0410604081EA111404F064
:1012F000F01481EA0411614082EA121404F0F0143F
:1013000082EA0412624083EA131404F0F01483EAC0
:1013100004136340704700BF2DE9F14F94464FEA34
:10132000930B8A68CB6808684968FFF749FF0BF19F
:10133000060E33E083EA134480EA134582EA13473A
:1013400046BA96EA3444604000F00F1684EA063448
:1013500020F00F1684EA161054BA94EA010672407F
:1013600002F00F1486EA043622F00F1486EA1412F3
:101370004CBA6540694001F00F1485EA043521F04C
:101380000F1485EA14115CBA67407B4003F00F1418
:1013900087EA043723F00F1487EA1413BCE8F0003F
:1013A0006040694072407B4000F0E03400F010354E
:1013B00000F00F3040EA540040EAC50080EA900493
:1013C00004F0332480EA8400604001F0E03401F04E
:1013D000103501F00F3141EA540141EAC50181EABB
:1013E000910404F0332481EA8401614002F0E03486
:1013F00002F0103502F00F3242EA540242EAC5020E
:1014000082EA920404F0332482EA8402624003F008
:10141000E03403F0103503F00F3343EA540343EA9A
:10142000C50383EA930404F0332483EA840363400E
:1014300081EA324787EA134581EA354690EA060495
:1014400084EA034B82EA1B4280EA044484EA0544AE
:1014500083EA144A85EA14448BEA044B84EA37444D
:1014600081EA0B4181EA164104EA0A00454082EA1A
:1014700004082BEA080041408AEA0B0602EA06004B
:1014800084EA34438AEA3A4603EA0607784045404C
:10149000414088EA38478BEA3B4007EA000985EA81
:1014A000090583EA0709464006EA0906714085EA0C
:1014B000010005EA3546464006EA314181EA3041FD
:1014C00081EA364606EA304686EA3546344008EA7E
:1014D000010886EA01052A4086EA364003405A4060
:1014E00081EA31431F407C4080EA030709EA07098B
:1014F00088EA0908544088EA020806EA0A0601EA6E
:101500000B018AEA0B0215408AEA3A421040454034
:101510008BEA3B4003405E404240174079404D40DB
:101520004E40E443F64386EA18435D4085EA0540B1
:1015300083EA134386EA034183EA384284EA11438B
:1015400083EA04435FEA3343BEF1010E3FF6F2AE95
:101550001ED4BCE8F0006040694072407B4020BC73
:10156000FFF784FE28606960AA60EB60BDE8F08F39
:101570002DE9E0414FF2F00280EA1031114080EA9B
:101580000130484041088208C3084FF0000E4FE781
:1015900000F0113001F0113102F0113203F011337B
:1015A00040EA410040EA820040EAC3004FF2F00204
:1015B00080EA1031114080EA01304840BDE8E08106
:1015C0002DE9F04F02F11C050646074600EB8508A1
:1015D00051F8040B043A46F8040BF9D14FF0010C12
:1015E000FFF7C6FF5FEA302080EA0C001ECF4140C3
:1015F0004A4053405C401EC62000464517D04FEA83
:101600004C0C1CF4807F18BFACF1E50C2C2DE7D0FE
:101610003C2D06D1FFF7ACFF06CF41404A4006C63D
:10162000100006CF41404A4006C61000D8E736E910
:101630000F00FFF7C5FD043D86E80F00F7D1BDE8B8
:10164000F08F00BF2DE9F04FB0E8FE0783B02DE921
:10165000010790E8005F4FF00A0006900198DB193F
:101660009CEA030C18EB3C4897EA080713EB375346
:1016700093EA3C4C18EB3C6898EA375724189EEAEA
:10168000040E19EB3E4990EA090014EB305494EA39
:101690003E4E19EB3E6999EA3050CDE90489DDE907
:1016A000028949199AEA010A18EB3A4895EA0805AD
:1016B00011EB355191EA3A4A18EB3A6898EA3555F8
:1016C00092199BEA020B19EB3B4996EA090612EBC9
:1016D000365292EA3B4B19EB3B6999EA365613EBCB
:1016E000706393EA3B6B18EB3B4898EA706013EB2E
:1016F000305393EA3B4B5FEA3B6B18EB0B0898EADD
:1017000030505FEA706014EB756494EA3C6C19EB3E
:101710003C4999EA756514EB355494EA3C4C5FEA10
:101720003C6C19EB0C0999EA35555FEA7565CDE912
:101730000289DDE9048911EB766191EA3E6E18EBCE
:101740003E4898EA766611EB365191EA3E4E5FEAE2
:101750003E6E18EB0E0898EA36565FEA766612EB94
:10176000776292EA3A6A19EB3A4999EA776712EB9B
:10177000375292EA3A4A5FEA3A6A19EB0A0999EA59
:1017800037575FEA77670190069801387FF465AFB5
:1017900001BC80E8005FBDE8000700E9FE0703B078
:1017A000BDE8F08F30B44FF0000310F8014B11F892
:1017B000015B013A84EA050443EA0403F5D1A3F18D
:1017C00001034FEAD37030BC704700BF4FF00003F5
:1017D00010F8012B013943EA0203F9D1A3F1010307
:1017E0004FEAD370704700BF30B411F8014B12F8C4
:1017F000015B6C4000F8014B013BF6D130BC7047F7
:101800002DE9F14FF8C892E8005E19EB03095AEB95
:10181000040A5BEB050B5CEB060C4EEB070E91E844
:10182000E001A9FB0502AAFB0543E9FB6624EAFBEC
:101830006634A9FB0765E9FB6845B1E80003EBFBEB
:101840006836ECFB6846EEFB6856ABFB0987ECFBA1
:101850006957EEFB696791E80202EAFB6148EBFB1E
:101860006158ECFB6168EEFB61784FF00001EAFB28
:101870000951EBFB6961ECFB6971EEFB69814FF487
:10188000A03C4FEA154949EA06495FF0000AE9FB26
:101890000C0A4FEA164646EA0746E6FB6C2A4FEA70
:1018A000174747EA0847E7FB6C3A4FEA184848EA07
:1018B0000148E8FB6C4AADB25544AF0805F003059A
:1018C00007EB8707C01952F1000153F1000254F1F0
:1018D000000345F1000420BC1FC5BDE8F08F00BF28
:1018E00030B490E83C10511D53F1000154F1000157
:1018F00055F100014CF100014FEA9101494201F01C
:101900000501521853F1000354F1000455F100058C
:101910004CF1000C0CF0030C80E83C1030BC70471C
:101920002DE9F04F90E8F00F00F140004FF0040E69
:1019300059E0F0B4826BC36B0468052524268759EF
:101940003C444FEA724787EAF24787EA92273C44D1
:1019500042684FEAF21787EAB24787EAD2073C4467
:1019600040F8044B032D08BF6FF01B0687593A441B
:101970004FEA734787EAF34787EA93273A44436875
:101980004FEAF31787EAB34787EAD3073A4440F8A8
:10199000042B87593B444FEA744787EAF44787EAA8
:1019A00094273B4444684FEAF41787EAB44787EA30
:1019B000D4073B4440F8043B013DC0D1A0F13C00BA
:1019C000076A3C444FEA724787EAF24787EA922760
:1019D0003C4402684FEAF21787EAB24787EAD20727
:1019E0003C44C463F0BC4FF0020288EA781C8CEAE5
:1019F000F84C0BEBBC1C8AEA090303EA080383EAF0
:101A00000A039C4450F8043B9C4451F8043B9C441A
:101A1000674444EA050B0BEA060B04EA05034BEAAC
:101A2000030BE34484EAF42383EA34530BEBB30B54
:101A300087EA771C8CEAF74C0AEBBC1C89EA08039E
:101A400003EA070383EA09039C4450F8043B9C44DF
:101A500051F8043B9C4466444BEA040A0AEA050A2E
:101A60000BEA04034AEA030AE2448BEAFB2383EA13
:101A70003B530AEBB30A86EA761C8CEAF64C09EB78
:101A8000BC1C88EA070303EA060383EA08039C44B4
:101A900050F8043B9C4451F8043B9C4465444AEA9A
:101AA0000B0909EA04090AEA0B0349EA0309E144BC
:101AB0008AEAFA2383EA3A5309EBB30985EA751CEB
:101AC0008CEAF54C08EBBC1C87EA060303EA050325
:101AD00083EA07039C4450F8043B9C4451F8043BC0
:101AE0009C44644449EA0A0808EA0B0809EA0A0324
:101AF00048EA0308E04489EAF92383EA395308EB0A
:101B0000B30884EA741C8CEAF44C07EBBC1C86EA2C
:101B1000050303EA040383EA06039C4450F8043BEC
:101B20009C4451F8043B9C44E34448EA090707EA13
:101B30000A0708EA090347EA0307674488EAF82323
:101B400083EA385307EBB3078BEA7B1C8CEAFB4C28
:101B500006EBBC1C85EA040303EA0B0383EA0503D6
:101B60009C4450F8043B9C4451F8043B9C44E244A0
:101B700047EA080606EA090607EA080346EA0306F2
:101B8000664487EAF72383EA375306EBB3068AEA0B
:101B90007A1C8CEAFA4C05EBBC1C84EA0B0303EAC2
:101BA0000A0383EA04039C4450F8043B9C4451F824
:101BB000043B9C44E14446EA070505EA080506EAB9
:101BC000070345EA0305654486EAF62383EA3653AC
:101BD00005EBB30589EA791C8CEAF94C04EBBC1CD3
:101BE0008BEA0A0303EA090383EA0B039C4450F8D7
:101BF000043B9C4451F8043B9C44E04445EA060401
:101C000004EA070405EA060344EA0304644485EA97
:101C1000F52383EA355304EBB304013A7FF4E5AED0
:101C2000A0F14000BEF1010E7FF483AEA0F1400CA4
:101C30009CE80F00001949199219DB19ACE80F0054
:101C40009CE80F004044494452445B44ACE80F0018
:101C5000BDE8F08F38B50022002304460D46FEF79C
:101C6000A9FE28B920462946BDE83840FEF7A2BFA4
:101C7000204605F10041FEF79DFF404261EB410126
:101C800038BD2DE9F04786468C460846089E154625
:101C900074461946002B40F0C1808542B2FA82F2A8
:101CA00045D94AB1C2F1200300FA02FC95409440A4
:101CB0002EFA03F343EA0C0C4FEA154EA8B2230C9C
:101CC000BCFBFEF80EFB18CC08FB00F943EA0C4302
:101CD000994528D9EB1808F1FF3704D2994502D964
:101CE000A8F102072B44A3EB0903A4B2B3FBFEFC4B
:101CF0000EFB1C330CFB00F044EA0344A04214D951
:101D00002C190CF1FF3304D2A04202D9ACF102032A
:101D10002C44241A43EA07401EB1D4400023346007
:101D20007360BDE8F0874746DDE76346F1E792BBA5
:101D3000431B01214FEA154EAFB2200CB3FBFEFC52
:101D40000EFB1C330CFB07F840EA0343984561D9AE
:101D5000EB180CF1FF3004D2984502D9ACF1020027
:101D60002B44A3EB0803A4B2B3FBFEFC0EFB1C3315
:101D70000CFB07F744EA0344A7424DD92C190CF198
:101D8000FF3304D2A74202D9ACF102032C44E41B76
:101D900043EA0040C0E7C2F120039540944020FA96
:101DA00003F12EFA03F34FEA154E9040AFB203430E
:101DB000B1FBFEFC0EFB1C10190C0CFB07F841EAF2
:101DC0000041884522D969180CF1FF3004D28845BA
:101DD00002D9ACF102002944A1EB08019BB2B1FB8E
:101DE000FEFC0EFB1C110CFB07F743EA01439F426C
:101DF0000ED9EB180CF1FF3104D29F4202D9ACF19D
:101E000002012B44DB1B41EA004193E76046E3E714
:101E10006146F7E76046A4E76346B8E7834206D920
:101E200016B9002108467CE7C6E900E0F9E7B3FAF5
:101E300083F78FB9834201D3724508D8BEEB020401
:101E400060EB030301209C461EB9002169E7384678
:101E5000FAE7C6E9004CF8E7C7F1200CBB400EFAE0
:101E600007F522FA0CF42EFA0CF1BA401C4320FAC2
:101E70000CF3B8404FEA144901431FFA84FEB3FB48
:101E8000F9F809FB18300B0C08FB0EFA43EA004383
:101E90009A4540D9E31808F1FF3004D29A4502D997
:101EA000A8F102002344A3EB0A0389B2B3FBF9F8BB
:101EB00009FB183308FB0EFE41EA03418E452CD97D
:101EC000611808F1FF3304D28E4502D9A8F102034C
:101ED000214443EA0040A1EB0E01A0FB02984145DA
:101EE000CE46434602D306D14D4504D20138B9EB64
:101EF000020E68EB0403002EA7D0B5EB0E0261EBD7
:101F0000030101FA0CFC22FA07F3F9404CEA03033F
:101F1000C6E9003199E74046C5E74346D9E70000E6
:101F20002DE9F04706460F4690468AB077F0C4FD8B
:101F30004FF47A73A0FB034503FB0155E40B012F1B
:101F400044EA45444FEAD53508D108213046CDE969
:101F50000045294A5FF029FE002013E0D8F80470FC
:101F600026483946FEF7BCFE78B139462448FEF7CC
:101F7000B7FE50B130463B460121224A5FF015FEC4
:101F80006FF004000AB0BDE8F087204618A3D3E93B
:101F900000232946FEF7A6FD05460C4610461946C5
:101FA000194A0023FEF79EFD80460F46104619464B
:101FB0004EF660220023FEF795FD824689461046C4
:101FC00019464FF47A720023FEF78CFDCDE904A97F
:101FD000CDE90601CDE9082308213046CDE9028785
:101FE000CDE90054094A5FF0E0FDB5E7AFF30080AA
:101FF000005C2605000000003E5309004F53090015
:10200000525309005B53090080EE360072530900F9
:1020100001282DE9F041884607D061F07EF81623AB
:1020200003604FF0FF30BDE8F08177F045FD0546D5
:102030000F4677F041FD204CD8F80030D8F8042046
:10204000A3FB043604FB0266D8F808209B1846EB75
:10205000E276EA0B42EA4742A2FB0421FF0B9B1AFD
:10206000C0F30E0204FB0711A2FB04244FEAD23294
:1020700042EA444266EB0101981A61F100010CA3A7
:10208000D3E90023FEF72EFD4FF02003EFF3118478
:1020900083F31288BFF36F8F084BC3E900019A6086
:1020A00084F31188BFF36F8F0020BCE7AFF300808B
:1020B00000CA9A3B0000000000CA9A3BC82A0020D0
:1020C000F0B583B0654D00AFD5F86431996811F073
:1020D00001011AD140F603403A1D0BF0EBFB044618
:1020E000002840F0B2807868C3681B785BB905F1BE
:1020F000D403D3E8AF2F02F00902D3E8EF1FC3E8FF
:10210000E42F002CF9D112F05BFB002141F2030017
:102110003A1D0BF0CFFB0446002840F096807B6808
:102120004F4EDA68D2F80100D2F8051003C61846FF
:1021300012F046FB214641F201003A1D0BF0BAFBBA
:102140000446002840F081807868C3685A7885F892
:1021500070205A88A5F872201A7985F87120B3F892
:102160000720A5F87420B3F80530A5F8763012F0F2
:1021700027FB214641F202003A1D0BF09BFB04466F
:10218000002862D1D7F804C0DCF80C20531C41327F
:10219000344618685968083303C493422646F7D179
:1021A000604612F00DFB0DF02FFA044600284CD1CA
:1021B00095F88A30980613D42A48036813F0060F5E
:1021C00003D00221284A61F0B2F995F87C30590613
:1021D0004ED4244803685A073BD16FF0120434E010
:1021E000072140F633400BF02BFB0646002800F099
:1021F000478107210C3063F063FA6FF068030370C6
:102200000623C0F802408471447004712246C370F2
:10221000314640F633400BF04DFB0446A8B901218E
:1022200040F631400BF00CFB0646002800F02881F8
:1022300001210C3063F053FA2246314640F631401A
:102240000BF038FB04460028BFD020460C37BD46B3
:10225000F0BD0121054A61F06AF9BEE700000020E7
:10226000780000202C11002076700900A47009006D
:10227000002142F203003A1D0BF01CFB044600282B
:10228000E3D17B68A84EDA68D2F80100D2F80510D5
:1022900003C6184612F094FA214642F202003A1D93
:1022A0000BF008FB04460028CFD17C68E368B3F844
:1022B000012091B249B1D97839B1A5F80421DA7871
:1022C000114606F1280077F0C5F8204612F078FA9A
:1022D00095F87C6016F0200618D1022140F66D407A
:1022E0000BF0AEFA0446002800F0CA8002210C3040
:1022F00063F0E6F90123214603704670324640F64A
:102300006D400BF0D7FA044600289ED195F89C301A
:102310001B0712D5002142F21C003A1D0BF0CAFA2D
:102320000446002891D17868C368D3F80120D3F817
:102330000530C5E9382312F043FA95F8D8309E06E7
:1023400022D53846B91C0BF031FB044600287FF437
:102350007CAF042142F224000BF072FA06460028FA
:1023600000F08E8004210C3063F0AAF93B882246ED
:1023700003807B883146438042F224000BF09AFAB6
:10238000044600287FF461AF95F8D8305C0610D57C
:10239000002142F22A003A1D0BF08CFA0446002874
:1023A0007FF453AF7868C3685B7885F8203112F00A
:1023B00007FA082142F201000BF042FA0446002815
:1023C0005ED008210C3063F07BF995F8D81040F20C
:1023D000022311F0400F08BF0323024688074CBFB9
:1023E00043F02C0043F00C0095F8D9308E0648BF1E
:1023F00040F0400013F0090F18BF40F40060CB0715
:1024000095F8A23048BF40F0100003F00603062BF9
:1024100008BF40F4C070002161F0AFF821460022EF
:1024200042F201000BF046FA044600287FF40DAF9B
:1024300095F87C30B5F804119E0624D4C9B941F250
:1024400005003A1D0BF036FA044600287FF4FDAE75
:10245000B5F804317C684BB9E368B3F80120A5F8FE
:1024600004219A883148114676F0F4FF204612F094
:10247000A7F9082140F601400BF0E2F9044680B9C3
:102480006FF06804E1E60029F3D1294803685C078E
:1024900002D16FF00404D8E60121264A61F047F822
:1024A000F7E708210C3063F00BF995F8D8300246B5
:1024B000D9072ED44FF000511F4861F05EF8214635
:1024C000002240F601400BF0F5F9044600287FF4A5
:1024D000BCAE01463A1D4FF601400BF0EBF9144C2F
:1024E00070B3236813F0060F04D002212046134A6C
:1024F00061F01DF80CF0E6FC044600287FF4A5AE60
:102500000EF0F6F8044600287FF49FAE0BF0AEFF05
:102510009BE603A1D1E90001CFE700BFAFF3008044
:102520009088000200800020D800002008010020D0
:102530002C110020C870090010880002EB700900FF
:102540007B68DD68236803F00703022B68D9B5F8C0
:1025500001306E46032B98BF4E4A8AB094BF52F8A2
:1025600023104D496A46D3614FF400734B481384DE
:102570004B4BC2E9050142F8103F4FF41351494853
:1025800060F0F0FF2368B54603F00703022B47D93C
:10259000B5F80120B5F80330022A55D1052B53D8E0
:1025A000414A52F823106E468AB06A46D3614FF40E
:1025B00000733E4813843A4BC2E9050142F8103FCC
:1025C0004FF41351374860F0CDFF2368B54603F050
:1025D0000703022B24D96B7995F806C0032B98BF0B
:1025E000334AB5F80760D5F809006D468CB094BF42
:1025F00052F8231028496A46C2E9073C4FF4007399
:10260000DFF8B0E093852C4BC2E905E1C2E909602F
:102610004FF47351234842F8103F60F0A3FFAD46DA
:10262000786812F0CDF800214FF602403A1D0BF009
:1026300041F9054650B1236813F0060F3FF45AAF35
:102640001E4A0221174853E71349ACE778681C4E2D
:10265000C368B3F80130A6F8C13012F0B1F896F8AB
:10266000C1305B077FF546AF29464FF603403A1D60
:102670000BF020F930B1236813F0060F3FF43AAFA6
:10268000104ADEE77868C3685B7886F8C03012F0DD
:1026900097F82FE734020900CB6E09000F7109008B
:1026A000040000012C1100201C02090028710900FF
:1026B0000C02090040710900070000016D7109005A
:1026C00000000020967109002DE9F04F8846D0F8EF
:1026D000201182460B6B16468FB053B1062218317B
:1026E00006F120004CF04AFB18B901200FB0BDE8FC
:1026F000F08F504604A9D8F86050D8F88040D6F83A
:1027000080706CF034FE002852D1DDF820B0BBF1AF
:10271000000F04D1DDF81CB0BBF1000F27D042F24E
:102720000F71099B049A8B420AD16FF47A63D31814
:1027300040F2657293428CBF6FF058036FF05B03F9
:102740004046ABEB03096AF093FED8F88C200346B1
:1027500008F194010AB9D8F89020D8F850005D46E5
:10276000CDE9009050462FF069FBCB46044604F5B6
:102770009C530833BB42B8D3336DB3F57A6F1ADD7F
:10278000D8F85030B3F57A6FACBF4FF0000A4FF075
:10279000010A002D12DB07F59C5308339C4200F21E
:1027A000CB80BBF1190F00F3C7804FF0020B3AE06A
:1027B0004FF0000BDBE74FF0000AEAE7336E03EB64
:1027C0004A03AB4215DA3846FDF708FE804620463C
:1027D0008946FDF703FE4FF033325B4BFDF778FE81
:1027E00002460B4640464946FEF7E4F8002840F012
:1027F000A38007F59C530833A342C0F09D80BBF132
:10280000190F00F3998015F1550F31DB15F1500FB9
:10281000CBDB15F14B0F2EDB15F1460FB4BF4FF09C
:10282000040B4FF0050B2046FDF7D8FD80463846D7
:102830008946FDF7D3FD02460B46CDE9022300226F
:10284000424BFDF745FE02460B4640464946FEF721
:10285000CFF898B10BF10A0BBAF1000F01D0ABF130
:10286000020B306E401B5845B4BF002001203DE7ED
:102870004FF0010BD7E74FF0030BD4E74FF03332A3
:10288000DDE90201304BFDF723FE02460B464046D0
:102890004946FEF7ADF810B10BF1050BDCE728A3B4
:1028A000D3E90023DDE90201FDF712FE02460B46E3
:1028B00040464946FEF79CF810B10BF1020BCBE7FE
:1028C000BC4202D90BF1010BC6E700221F4B404668
:1028D0004946FDF7FDFD02460B46DDE90201FEF724
:1028E00087F810B1ABF10A0BB6E74FF03332164B55
:1028F00040464946FDF7ECFD02460B46DDE9020184
:10290000FEF776F810B1ABF1050BA5E70CA3D3E900
:10291000002340464946FDF7DBFD02460B46DDE954
:102920000201FEF765F810B1ABF1020B94E7BC426F
:1029300038BF0BF1FF3B8FE70020D7E6AFF30080F5
:102940009A9999999999F13F3333F33F0000F83FF1
:10295000C1F30A5C02460B462DE9F041ACF2FF35AB
:102960000C460646132D34DC002D20DBDFF8D0802A
:102970000F4648FA05F801EA080C5CEA000C2DD075
:102980002DA3D3E90023FDF7EDFB00220023FEF782
:102990002FF840B1002C03DD4FF480132B411F446E
:1029A00027EA0804002621463046BDE8F08122A32C
:1029B000D3E90023FDF7D6FB00220023FEF718F829
:1029C0000028F0D0002C33DB3443EBD000261D4C24
:1029D000E9E7332D06DDB5F5806F26D010461946A0
:1029E000BDE8F081ACF2134C4FF0FF3727FA0CF73B
:1029F0003842F3D010A3D3E90023FDF7B3FB002244
:102A00000023FDF7F5FF0028CDD0002C334609DD6B
:102A1000142D06D0C5F134050122AA4013449E426C
:102A200000D9013423EA0706BDE7FDF79BFBD7E792
:102A300000264FF00044B6E79C7500883CE4377EE2
:102A4000FFFF0F000000F03FC1F30A5C02460B4697
:102A50002DE9F041ACF2FF350C460646132D32DC71
:102A6000002D20DBDFF8E0800F4648FA05F801EA88
:102A7000080C5CEA000C2BD031A3D3E90023FDF74E
:102A800071FB00220023FDF7B3FF40B1002C03DAF5
:102A90004FF480132B411F4427EA080400262146E7
:102AA0003046BDE8F08126A3D3E90023FDF75AFBA9
:102AB00000220023FDF79CFF0028F0D0002C27DB2C
:102AC00000263446EBE7332D06DDB5F5806F1CD0CC
:102AD00010461946BDE8F081ACF2134C4FF0FF37B9
:102AE00027FA0CF70742F3D015A3D3E90023FDF72B
:102AF00039FB00220023FDF77BFF0028CFD0002CFC
:102B000033460CDB23EA0706C9E7FDF72BFBE1E7B9
:102B100024F0004426430DD14FF00044BFE7142DAC
:102B200006D0C5F134050122AA401344B342E9D2CC
:102B30000134E7E70026054CB1E700BFAFF30080A2
:102B40009C7500883CE4377EFFFF0F000000F0BF5B
:102B5000F8B5C1F30A5604460D4617460B462EBB80
:102B600021F00043034320D02D4B0022FDF7B0FCA1
:102B70002C4B04460D469F4241DBC1F30A560B46DF
:102B8000363EBA1940F2FE718A4217DC002A30DC68
:102B900012F1350F1EDB244E363220461E40234BE9
:102BA00046EA02510022FDF793FCF8BD40F2FF72A5
:102BB0009642E6D10246FDF7D5FAF8BD14A3D3E953
:102BC0000023ED0F1A481C4665F3DF742146FDF71C
:102BD0007FFCF8BD05F00044164844F0D27141F482
:102BE000B7310DA3D3E9002341F01F01FDF770FCBD
:102BF000F8BD0D4E20461E4046EA0251F8BD06A320
:102C0000D3E90023FDF764FCF8BD00BFAFF30080FB
:102C10009C7500883CE4377E59F3F8C21F6EA5010D
:102C200000005043B03CFFFFFFFF0F800000903CCE
:102C30009C75008859F3F8C22DE9F04F016C9BB0E8
:102C400016461F46279D0490CDE9026749B1426CA4
:102C50000123044693404A608B6054F0D9FB002363
:102C60002364B7F10009C0F2B68000232B607E4BCD
:102C700033EA090300F0BA800022DDE90234184685
:102C800021460023CDE90801FDF78AFE804668B1A0
:102C90000123269A1360289B13B1744B289A136062
:102CA000DFF8CC8140461BB0BDE8F08F18AB04982C
:102CB000019319AB0093DDE9082354F0AFFF83467D
:102CC0005FEA195540F0A980DDE91885454405F211
:102CD0003243202B40F34D82C3F1400309FA03F93C
:102CE00005F2124326FA03F349EA0300FDF776FBE7
:102CF000013D0123A1F1F871109300225D4BFDF716
:102D00002FFA53A3D3E90023FDF7E2FB52A3D3E943
:102D10000023FDF727FA06460F462846FDF76EFB0F
:102D20004FA3D3E90023FDF7D3FB02460B46304601
:102D30003946FDF717FA06460F46FEF7C5F800229A
:102D40008246002330463946FDF734FE002840F025
:102D50000382A8EB0508BAF1160F08F1FF330693BA
:102D600000F2A781444E06EBCA06DDE90801D6E968
:102D70000023FDF71FFE002800F0848000230AF1E5
:102D8000FF3A0F9308F1FF33002BC0F29981002323
:102D90000A93BAF1000F7BDA0A9BCDF82CA0A3EBC3
:102DA0000A030A93CAF100034FF0000A0E93249B12
:102DB000092B77D8052B40F3E181043B00272493AE
:102DC000249B023B032B00F25986DFE813F05404E6
:102DD000510447042C04012329F000492B60224BA5
:102DE000CDF80C9033EA09037FF446AFC9F3130919
:102DF00042F20F73269A59EA060913601DD0289BE8
:102E0000DFF87880002B3FF44DAF08F10303289AD8
:102E1000404613601BB0BDE8F08FDDE90812CDF825
:102E20004080A5F2FF35C2F313030846DDF8608049
:102E300043F07F5141F440115FE7289BDFF8408069
:102E4000002B3FF42FAF08F10803E0E7AFF3008059
:102E500061436F63A787D23FB3C8608B288AC63FA0
:102E6000FB799F501344D33F0000F07F153A0900CF
:102E7000143A09000000F83F90F60800B03A090043
:102E8000A43A0900B8F1000F40F3B1840F900A9002
:102E9000069BCDF82CA05344069300230E93249B4D
:102EA000092B87D900230127CDE924334FF0FF33C5
:102EB0000C970793049B00215964079B1193049876
:102EC00054F080FA0590002800F0E185079B0E2B56
:102ED0008CBF002707F00107DDE904321A64002FD8
:102EE00000F01B810B9A002A40F34A81BC4E02F08D
:102EF0000F03D4054FEA221806EBC303D3E900679A
:102F000040F17083B74B08F00F080325D3E908237D
:102F1000DDE90801FDF706FCCDE91201B8F1000F6B
:102F200012D0DFF8C09218F0010F08D030463946B1
:102F30000135D9E90023FDF7CBFA06460F465FEAD3
:102F4000680809F10809EED132463B46DDE9120175
:102F5000FDF7E8FB804689460F9B43B10022A24B58
:102F600040464946FDF726FD002840F047842846A4
:102F7000FDF744FA42464B46FDF7AAFA9B4B002266
:102F8000FDF7F0F8079B0646A1F15077002B00F003
:102F9000AB80079B0B9C1293059B404612995D1CCE
:102FA000CDE914678E4E06EBC10353E90212CDE959
:102FB00016124946FDF788FF00F13007FDF71EFAAB
:102FC00002460B4640464946FFB2FDF7C9F889461E
:102FD0000C998046DDE91623002900F00F810020BE
:102FE0008349FDF79FFBDDE91423FDF7B9F8059E42
:102FF00042464B46377006460F46FDF7F9FC00285F
:1030000040F02F850023CDF858A0CDF850B09A4657
:10301000DDF848B012942BE00AF1010ADA4580F29B
:10302000BD84304639460022724BFDF751FA00222A
:10303000704B06460F4640464946FDF749FA894619
:103040008046FDF741FF0446FDF7D8F902460B46DE
:10305000303440464946FDF783F832463B4605F892
:10306000014B80468946FDF7A5FC002840F09C8472
:1030700042464B4600205C49FDF772F832463B461B
:10308000FDF798FC0028C7D0DDF850B02F46129C01
:10309000059902E08F4200F05F843A4617F8013D3F
:1030A000392BF7D00133DBB23B70DDF81480059289
:1030B0006BE101230F9308F1FF33002BBFF667AEDE
:1030C000C8F101030A930023069362E62846FDF740
:1030D00095F942464B46FDF7FBF90022434BFDF7BD
:1030E00041F80646A1F15077404649460022424B3E
:1030F000FDF736F832463B4680468946FDF778FCB8
:10310000002840F0AD8340464946324607F100436F
:10311000FDF750FC002840F0D5810B9A199B0E2A30
:1031200002DC002B80F2AD810C9A002A00F0B58001
:10313000249A012A40F38583079A0E9B551EAB42C1
:10314000C0F2C782002AA3EB050580F25B840A9BCC
:10315000079AA3EB0208C9E25046FDF74FF9324641
:103160003B46FDF71DFC00287FF4F3AD0AF1FF3A62
:10317000EFE5C3F1200306FA03F0B7E501271FE6E8
:1031800000F0A3820B9B164E5D4205F00F0306EB89
:10319000C303DDE90801D3E90023FDF799F92E11F6
:1031A000CDE9120100F052840E4C00230225804626
:1031B0008946F00709D5404649460135D4E9002340
:1031C000FDF786F93B4680468946761004F10804EF
:1031D000EFD1002B7FF4C0AEDDE91289BCE600BF61
:1031E00090F6080068F608000000F03F00001C4060
:1031F0000000E03F0000244000001440DDE914011D
:10320000FDF766F9059B1F70129B012BCDE90C01A0
:1032100000F00984129F059BCDF840A01F440022B6
:10322000AA4B40464946FDF753F989468046FDF7CB
:103230004BFE8246FDF7E2F802460B460AF1300AE1
:1032400040464946FCF78CFF05F801ABAF4280468B
:103250008946E4D1DDF840A000229D4BDDE90C0158
:10326000FCF780FF42464B46FDF7A4FB002840F0E8
:103270007B8300209649DDE90C23FCF771FF424671
:103280004B46FDF7B5FB002840F01982199B002B37
:1032900003DB0B9B0E2B40F3F58000230E9DDDF826
:1032A00028801E460C93B8F1000F0DDD0699002909
:1032B0000B4609DD41450A9AA8BF4346D21AA8EB3E
:1032C0000308CB1A0A9206930E9B53B10C9B13B1C1
:1032D000002D40F01E8259460E9A049854F080FA50
:1032E00083460121049854F09BF90746BAF1000F78
:1032F00040F06381249B012B40F37A8101230699DE
:103300000B4413F01F0308D0C3F12002042A00F37A
:10331000B5810AD0C3F13C0300E01C230A9A98440B
:103320001A440A92069A1A4406920A9B002B05DD5B
:1033300059461A46049854F0ADFA8346069B002B72
:1033400005DD39461A46049854F0A4FA0746249B32
:10335000022B0F9BD4BF00250125002B40F0BE801F
:10336000079B002B24DC1DB3079B002B00F08F81F3
:10337000259BDDF81480DC433946049854F048F866
:103380001EB13146049854F043F85946049854F05D
:103390003FF800220599631C0A70269A1360289B47
:1033A000002B3FF47FAC404619601BB0BDE8F08FA6
:1033B0000C9B002B00F0AF80B8F1000F00F3C08130
:1033C000BAF1000F40F0D382B146059D079C6B1EF9
:1033D0001C44029B089403F00103049C0A933946A1
:1033E000584652F08DFF31468246584654F0C6FA90
:1033F0004A4639468046204654F0E0FAC268014603
:103400000AF13003002A40F0A281CDE906035846B4
:1034100054F0B4FA06990690204653F0F9FF249B25
:10342000069A52EA0301079B40F0C2810A9A002AD9
:1034300000F0F282B8F1000FC0F2AD81089AA84600
:10344000AA4208F8013B00F0D282594600230A2222
:10345000204653F0E7FF4E45834631464FF00003C8
:103460004FF00A02204600F09D8153F0DBFF4946F1
:10347000064600230A22204653F0D4FF45468146E3
:10348000ADE7144E0B9B06EBC306D6E90034CDE93D
:103490000234259B002B80F2E881079B002B00F370
:1034A000E481079B73B900220B4BDDE90201FDF7B4
:1034B0000FF802460B46DDE90801FDF785FA002802
:1034C00000F0CE8100273E4652E700BF00002440B6
:1034D0000000E03F90F608000000144039465846CE
:1034E00054F04CFA0028BFF63BAF0B9B59460A221A
:1034F0000498013B0B93002353F094FF0C9B8346ED
:10350000002B40F09282119B002B119B079302DC51
:10351000002D7FF429AFDDF814800125079CDDF82C
:10352000109007E0594600230A22484653F07AFFDC
:10353000013583463946584652F0E2FEA54200F175
:10354000300308F8013BEDDB079A0025002ACCBFC9
:1035500090464FF00108059A90445946012204987C
:10356000029354F097F93946834654F007FA00283D
:1035700040F3E481059A02E0904500F0D48118F808
:10358000013CC24608F1FF38392BF5D001330B9CC2
:1035900088F800303946049853F03AFF002E00F0C6
:1035A000C8812DB1B54203D02946049853F030FFAD
:1035B000DDF81480CDF814A0E3E6014652460498E5
:1035C00054F00EF9249B0746012B40F395804FF0F1
:1035D000000A3B6907EB8303186953F0CDFFC0F184
:1035E00020038CE6DDE908340225CDE9123495E4A8
:1035F000029B002B7FF482AEDDE90212C2F31303BB
:10360000002B7FF47BAEAD4B134033B10A9B0133EB
:103610000A93069B013306930123BAF1000F40F091
:10362000F9819A466AE601230C93259B0B9A134471
:1036300011930133012B1D460793B8BF0125172DA8
:1036400040F31382012204235B001146013203F18F
:103650001400A842F8D9049B596430E401230C9368
:10366000259B002B40F3BE801D4611930793E6E790
:1036700000230C93D9E700230C93F1E7C3F11C035B
:103680000A9A19441A4498440A9206914DE639461A
:103690000522049853F0C6FE07465846394654F0B2
:1036A0006DF900287FF764AEDDF81480059B0B9C54
:1036B000013301340593312388F800305CE63A4643
:1036C00017F8013D302BFAD0EFE40225DDE9088937
:1036D00042E40E9B0E95EB1A00259A44DDE9063272
:1036E000134406930A9B984613440A9301210498B5
:1036F00053F096FF0646D6E5029B002B7FF467AF9A
:10370000DDE90201C1F313030A46002B3FF47BAF4E
:103710005DE7049C31462A46204654F061F806468F
:103720005A462046314653F0A9FF59468346204663
:1037300053F06EFE0E9B5B1B0E933FF4D2ADCAE5B9
:1037400031464246049854F0A5F8064638E60498F7
:10375000069353F05DFEB8F1000F069B08DB029A5A
:10376000249902F0010248EA010852EA08022ED127
:10377000594601220498029354F08CF83946834646
:1037800054F0FCF80028029B40F36581392B00F0CF
:1037900031810AF13103AA460B9C35464E460AF8A0
:1037A000013BF7E653F03EFE45460646814616E6E7
:1037B000B8F1000FC0F25E81249948EA01080A9925
:1037C00051EA080800F05681002A7FF737AE392BFE
:1037D00000F01081AA46013335460B9C4E460AF88C
:1037E000013BD7E6012325930793FFF763BBC8F19D
:1037F000010306900F900A93FFF74ABB079B002B2B
:103800003FF464AC119B002B7FF787AC0B9A4046CA
:1038100049461293541E2A4B0022FCF759FE80465B
:103820008946681CFCF7EAFD42464B46FCF750FE11
:103830000022244BFCF796FC0646A1F15077FFF7D7
:10384000ABBB109A002A00F08B8003F23343069A38
:103850000E9D1A4406920A9A90461A440A9245E727
:103860000027DDF814803E4620E7DDE90889DDE920
:10387000022340464946FCF755FF059FFDF724FB10
:103880000546FCF7BBFDDDE90223FCF721FE0B46F4
:10389000024649464046FCF763FC05F1300307F851
:1038A000013B079B012B00F08980CDF818B0012661
:1038B000DDF81C90DDE902AB22E000BF0000F07FE4
:1038C0000000244000001C4052465B46204629462A
:1038D000FCF728FF0136FDF7F7FA8046FCF78EFD6E
:1038E00052465B46FCF7F4FD0B460246294620464D
:1038F000FCF736FC08F13003B14507F8013B5AD01C
:103900000022704BFCF7E4FD0022002304460D4624
:10391000FDF746F80028D7D0DDF818B0DDF81480A0
:103920000B9C059731E50B9C3123059A01341370EC
:1039300030E6DDF81480CDF814A026E503D1029B13
:10394000DB073FF517AE18F8013CC24608F1FF3817
:10395000302BF8D00B9C1DE601343123FFF7A4BBBC
:10396000189BC3F1360372E70599FFF796BB7168A0
:10397000049853F027FD0546002800F08F80336936
:1039800006F10C010C3002339A00FDF733F9294699
:103990000122049853F07EFF814616E5DDF858A019
:1039A000DDF850B0FFF7B9BBDDF81480DDF850B09A
:1039B000129C0595E9E4DDF818B0454602460B4631
:1039C000FCF7D0FB80468946DDE90223FDF710F8BD
:1039D00048B940464946DDE90223FCF7E1FF0028EB
:1039E0009CD0E9079AD50B9C0599FFF756BB354645
:1039F0004E46B2E5A84639233546059A4E4608F8A4
:103A0000013BBCE5069B134406930A9B984613446E
:103A10000A936BE69A46DCE5392BEBD0B8F1000F40
:103A20003FF7B7AEB7E62F4616E4314600230A2229
:103A3000049853F0F7FC119B0646002B119B07934B
:103A40003FF7BAAC002D7FF48FACB5E4DDE9128905
:103A50000225FFF781BA7FF49EAEDA077FF59BAEB1
:103A600094E6DDF8148005958FE40021049B5964E9
:103A7000FFF725BA002A3FF77BAE8CE6049B0025B2
:103A8000184629465D6453F09DFC059068B90E4BBD
:103A900000224FF4D5710D484BF010F802460A4B46
:103AA00040F2EA2109484BF009F8DDE90432259596
:103AB0001A644FF0FF33012211930C920793FFF722
:103AC0002CBB00BF00002440B43A0900C83A0900EA
:103AD0002DE9F04F1C46794B9FB00E4600258346DA
:103AE000186807921A9508904CF05CF9002102467C
:103AF00033460020CDE904019846199313F801AB31
:103B0000BAF12D0F5ED801A151F82AF0A33C0000B4
:103B1000C53B0000C53B0000C53B0000C53B0000A5
:103B2000C53B0000C53B0000C53B0000C53B000095
:103B3000F93A0000F93A0000F93A0000F93A0000B9
:103B4000F93A0000C53B0000C53B0000C53B000042
:103B5000C53B0000C53B0000C53B0000C53B000065
:103B6000C53B0000C53B0000C53B0000C53B000055
:103B7000C53B0000C53B0000C53B0000C53B000045
:103B8000C53B0000C53B0000C53B0000F93A000002
:103B9000C53B0000C53B0000C53B0000C53B000025
:103BA000C53B0000C53B0000C53B0000C53B000015
:103BB000C53B0000C53B000077420000C53B00004C
:103BC0009142000000230993BAF1300F00F068829F
:103BD00000230A93AAF13003092B00F25684002730
:103BE00040463D463C460130082C07EB870104F176
:103BF000010405EB850C199090F800A0CCBF03EBF5
:103C0000410703EB4C05AAF13003092BEBD90899C6
:103C100008924CF0F5F8089A8146002850D1199B7B
:103C200001460894981819909B5CA3F13002092A68
:103C300000F2F082013192461998002A40F0F8848F
:103C4000431C19934378F0E74FF0010EB31C19930E
:103C5000B378A3F1300CBCF1090F00F2F582199A88
:103C6000302B0B9240F02B83013219921378302BBA
:103C7000FAD0A3F131000B92082840F21E830022F3
:103C80000C9254BB0A9A0A4340F09882BAF1000F92
:103C900007D1692B00F0398340F318826E2B00F0B6
:103CA0001B82079B4FF000084FF0000903B11E6014
:103CB000404649461FB0BDE8F08F00BF2C3D0900CB
:103CC0002AF02002002153460894452A89468A4654
:103CD00000F0AD820C91002CD4D0089A2846A24660
:103CE0001346002A08BF23460893FCF777FB0B46D0
:103CF0000246102CCDE904230C9BA8BF4FF0100AFC
:103D0000092CA3EB09030B9317DD544B03EBCA03F8
:103D100053E91223FCF7DCFB024638460F461646F1
:103D2000FCF75CFB02460B4630463946FCF71AFAB4
:103D30000F2CCDE9040100F3E1810B9B002B00F077
:103D400097820B9B40F3A782162B40F39A84C4F111
:103D500025030B9A934280F2DA84A4EB0A061644F8
:103D600016F00F000AD03D4901EBC001DDE9042344
:103D7000D1E90001FCF7ACFBCDE9040136F00F03FB
:103D80004ED0B3F59A7F00F34684102B4FEA2316EA
:103D900040F3B285DFF8C8E04FF0000CCDF8289072
:103DA0007746E246F146DDE9042316F0010F10469E
:103DB00019464FEA66060AF1010A07D0D7E900233F
:103DC000FCF786FB4FF0010C02460B46012E07F173
:103DD0000807EAD1CE46DDF82890BCF1000F01D0EB
:103DE000CDE90423059B0EEBCA0E1E4EA3F15473BE
:103DF0000593DDE90423DEE90001FCF769FB1A4BBA
:103E00000A460B40B342CDE9040100F2048417498D
:103E10008B4240F2FE844FF0FF33154ACDE9043265
:103E200000230A932346089A41465846009553F0CA
:103E30004BFB1590002800F0EE830B9A4FF0000A20
:103E40000C9B002ACDF820A0A9EB0303A8BF0023F8
:103E50000C9322EAE2731493E2E000BF90F60800AC
:103E600068F608000000A07C0000F07F0000907C55
:103E7000FFFFEF7FD21A1F2AA4EB020400F3C682D1
:103E8000012300259340984626443C440A9BA742C0
:103E90001E443B46A8BF2346B342A8BF3346002B6F
:103EA00002DDE41AF61AFF1A0C9B002B00F3548271
:103EB000002C00F36A820B9B002B00F39D82002EE6
:103EC00000F38E82002F08DD51463A46584653F0E3
:103ED000E1FC8246002800F08C824A461A99584636
:103EE00053F06CFD0890002800F08382089A0023AC
:103EF000D168D3600D91514653F040FD0028C0F2C7
:103F0000C584059F00F022845146089853F0E6FED0
:103F100000224FF0804304460D46FCF755FD002873
:103F200000F00A820D9B002B40F07C82049B002B4A
:103F300040F06183C7F31303002B40F0E6820022B8
:103F4000AB4B20462946FCF735FD002840F0F583B1
:103F50002046A84B29460022FCF7BAFA03460C4635
:103F60000E90CDE9123401F100430F93A24EA34B02
:103F70003E409E42DDE90E4500F05B820A9B23B382
:103F8000B6F1D46F21D8DDE9127897A3D3E90023E5
:103F900038464146FCF718FDA0B141463846FCF7CB
:103FA00031FD012838BF0120FCF718FA0D9BCDE93F
:103FB0001201002B40F0378301F100431690179354
:103FC000DDE9164505F1D6639D1BDDE9107838461D
:103FD000414653F0A3FD02460B4620462946FCF716
:103FE00077FA3A464346FCF7BDF80C46CDE90401A2
:103FF000814B2340B34203D10A9B002B00F08E82F9
:104000001A99584653F004FA4946584653F000FAB4
:104010005146584653F0FCF90899584653F0F8F9C0
:10402000159C5846616853F0CDF98146002800F090
:10403000E081226904F10C010C3002329200FCF79D
:10404000D9FD1CAB584601931BAB0093DDE904344A
:104050001A46CDE91034234653F0E0FD1A900028AB
:1040600000F09C810121584653F0DAFA824600287C
:1040700000F0BF811B9B002BC0F2AE810C9A149EF6
:104080009F180A9A1C9C9B1A5D4A2344C4F136046B
:10409000013B9342FFF6EEAE012300259846F3E67E
:1040A00098F8013003F0DF03582B00F07582434687
:1040B0000133199393F800A0BAF1300FF8D0984665
:1040C000BAF1000F7AD001230A9383E5492B00F05F
:1040D0001C814E2B7FF4E5AD4A4919A854F0AEFE81
:1040E00000283FF4DEAD199B1B78282B00F07E835F
:1040F000454854F0AFFF8046894663E0A4EB0A06CA
:104100000B9B1E44002E3FF72BAE3FF489AE764248
:1041100016F00F020AD03D4B03EBC203DDE90401A8
:10412000D3E90023FCF7FEFACDE9040136113FF490
:1041300077AE1F2E3FDC16F01003354F4FF0000C0A
:1041400018BF6A230A93DDE9042316F0010F104615
:10415000194607D0D7E90023FCF7BAF94FF0010C54
:1041600002460B46761007F10807EED1BCF1000FAE
:1041700001D0CDE904230A9BA3B1DDE90401C1F319
:104180000A52C2F16B03002B0ADD1F2B40F3FA83A6
:104190000020342B049040F321844FF05C7305938E
:1041A0006A230A9300220023DDE90401FCF7F8FBEF
:1041B00000283FF437AE2223CBF800304FF0000840
:1041C0004FF00009079A0AB1199B1360099B002B55
:1041D0003FF46EAD09F100434046994649461FB091
:1041E000BDE8F08FAFF300800000C0FFFFFFDF41AC
:1041F0000000F03F0000E03F0000F07F0000E07FA3
:1042000002FCFFFFA03B09003846090090F60800B9
:1042100058F708004FF0010A23F02002452A7FF4E6
:104220002EAD44EA01030A9A13433FF43AAD199EB6
:10423000731C199373782B2B00F023812D2B3FF4E3
:1042400003AD4FF0000E04E5002219960C9218E51C
:104250001C9A03F2334304921D9A22F4801242EA1C
:1042600003530593210703D5059B43F000430593B2
:10427000DDE90489A6E70023099308F101031993F6
:1042800098F801A0BAF1000F3FF40BAD98469BE4FB
:1042900001230993F1E71633FFF630AF0C9BA9EB2E
:1042A0000309B34B03EBC903DDE90401D3E90023A0
:1042B000FCF738FA8046894684E7A3F1300C0B9B63
:1042C000581C19905B78A3F13002092A00F2D181C1
:1042D00001300CEB8C0C199003EB4C0C0378ACF117
:1042E000300CA3F13002092AF2D90B9A801A08285F
:1042F00040F3BF8144F61F620C92BEF1000F3FF401
:10430000C0AC0C9A52420C92BBE49A4919A854F0E2
:1043100095FD00283FF4C5AC199B19A89649013BAF
:10432000199354F08BFD10B9199B013319934FF079
:104330000008DFF8489245E7914B204629460022C5
:10434000FCF7C6F80D9BCDE91201002B65D101F1F8
:1043500000430E900F9309E651461A46584653F013
:104360003FFA8246002844D001461A9A584653F034
:1043700085F900283DD00D9058461A9953F048F819
:104380000D9B002C1A937FF796AD22461A9958463A
:1043900053F080FA1A9000287FF48DAD4F46054601
:1043A00022234FF00008DFF8D491CBF800302946E3
:1043B000584653F02DF83946584653F029F85146DF
:1043C000584653F025F81599584653F021F80899A6
:1043D000584653F01DF8F5E6149A0C9FD61A50E68D
:1043E00049463246584653F055FA814600287FF434
:1043F00069AD4F461A9DD3E74946149A584653F083
:10440000EFF9814600287FF45AADF2E75D4AD31AEE
:10441000012202FA03F5904636E5DDE91234CDE9D2
:104420000E34A3E50023584CCDE90E34CDE9123407
:104430009CE5A7F15473514F0593DDE904452046EF
:10444000294653F06BFBDDE90E23FCF741F82B46C0
:104450002246FBF787FE4D4B0F409F42CDE90401FA
:1044600040F2DD8003F15473DDE91001994202D17D
:10447000B0F1FF3FBDD04FF0FF33454ACDE90432E4
:10448000BEE54FF0000EFFF7E1BB089940460B92E6
:104490004BF0B6FC0B9A089048B1002253461746E1
:1044A000924615461146914614460892B4E6199B69
:1044B000981819909B5C302B40F0278102461146DA
:1044C000013219921378302BF9D0C0F10100014468
:1044D000A3F13102082A10D8DDF864800025A3F189
:1044E000300A01F10109012440462F4605EB8505FC
:1044F00000210AEB4505FFF7A3BB4FF000094FF081
:10450000010A4C464F464D4686E60023214CCDE934
:104510000E3400231C4CCDE9123427E5DDE9125698
:10452000C4F3130728463146FDF794FBFBF7A2FFBF
:1045300002460B4628463146FBF712FE049D0D9EAF
:1045400004462E430D46374343D107A3D3E9002346
:10455000FCF730FA00283FF453AD4F461A9DDDE9D1
:10456000048924E7AFF300809535A094FFFFCF3F87
:1045700090F60800943B0900983B09000000F07F8A
:104580000000E03FE2FBFFFF0000F03FFFFF9F7CE9
:10459000FFFFEF7F0000F0BF099B19A90294584666
:1045A00001931AABB04A00931BAB54F04BF910F0D7
:1045B000070504463FF402AE062D7BD1079A12B1DF
:1045C00008F1010313604FF000084FF00009FFF7F6
:1045D0006FBBA1A3D3E90023FCF7ECF90028BCD101
:1045E000204629469EA3D3E90023FCF701FA0028C0
:1045F0003FF406ADB1E7049B012B86D1002F84D197
:104600004F461A9C222325464FF000084FF0000920
:10461000CBF80030CBE62223CBF8003087E601F15F
:1046200054740594E4E4DDE91234CDE91634C7E4AA
:10463000012900F0138204EB010E0EF1FF3CCDF8CE
:104640002CE003E04FEA4E05A4450BD0082C05EB07
:10465000850E04F10104F5D907EB8703102CD8BFB0
:104660005F00F1E7DDF82CE0082C894416DC744685
:104670003CE744F61F629445A8BF9446CDF830C08D
:104680003BE60B98794901EBC001DDE90423D1E950
:104690000001FBF71DFF8046894693E5BEF1100F30
:1046A00074464FF00001DCBF07EB870702EB4707BA
:1046B000FFF7C6BA1A9A3AB135211CA853F038FB55
:1046C00058461A9952F0A4FE013D1B9B042D3FF65B
:1046D000C9AD01A252F825F0514200000147000087
:1046E000FB460000ED460000514200004FF0FF3352
:1046F0006FF00040CDE90430B4E55D4B0593B1E5C2
:104700001C9B04931D9B0593ACE50899E0E6C4F15E
:104710000F04564D05EBC401DDE90423D1E9000186
:10472000FBF7D6FE0B9B1C1B05EBC405D5E900234C
:10473000FBF7CEFE8046894644E500234D4CCDE98B
:104740000E3400234C4CCDE912340FE43B460D9857
:10475000C4464F46AE464949C3F31302DDE910890A
:1047600000285BD08A4200F0FB80B5BB049A1CEAAB
:10477000020F35D040464946049353F0CFF90A9BC7
:1047800004460D46002B00F01F81049BC3F30A531F
:10479000C3F16B06002E40F36481394C002204EB18
:1047A0000653FBF795FE02460B4640464946FBF78B
:1047B000D9FC1A9C8046894640464946314B002226
:1047C000FBF786FE0B4625468046034389467FF469
:1047D000EEAD2223CBF80030E9E51EEA030FC9D184
:1047E0001A9C0A9B2546002BE6D1E0E519A81CAAD5
:1047F000254954F03DFB05287FF47AAC1D9B43F01E
:10480000FF4343F4E00305931C9B0493DDE9048913
:10481000D8E402F154730593FFF702BB002A71D16B
:10482000DDE904452246002C40F0B4800A9A002AB3
:1048300040F0F08025F00044240D2405A4F58014F8
:104840001A9D6FEA14536FEA035305934FF0FF3339
:104850000493DDE90489AAE59535A094FFFFDF3FC5
:1048600035E5AF350000E03FB83B090090F60800A1
:104870000000F07F0000E0BF0000E03FFFFF0F00FE
:104880000000F03F00005039A43B09000D9B4F464B
:10489000DDE90401DDE910890343A1D1C1F313036C
:1048A000002B9DD121F00044240D2405B4F1D66FD6
:1048B000264695D9089A536913B91369012B8FDDE0
:1048C00008990122584652F0E5FF5146089053F0EE
:1048D00055F8002884DD0A9B002BAFD0A6F5801385
:1048E0001A9C6FEA13536FEA035305934FF0FF339B
:1048F0000493DDE904895FE74FF0000ADFF87CE10B
:10490000FFF770BA002D48D1049A1CEA020F3FF459
:1049100067AF40464946049353F000F90A9B002BC9
:1049200040D0049BC3F30A53C3F16B06002E40F33F
:10493000A280534C002204EB0653FBF7C9FD02464C
:104940000B4640464946FBF70BFC002200238046FD
:104950008946FCF725F800287FF453AE1A9C2BE714
:10496000DDE904010A9A0446002A40D102460132D8
:104970006DD0BEF1000F7FF430AF14EA0C0F3FF49E
:104980002FAFF7E64FF0FF3202FA03F3049A1A4012
:10499000049205E4BEF1000FB7D01EEA030F3FF406
:1049A0001FAFB6E702460B4640464946FBF7D8FB29
:1049B0001A9C00220023804689462546FBF7F0FF1B
:1049C00000283FF4F4AC1DE6404649462B462246FB
:1049D000FBF7C8FB1A9D80468946E8E4C2F14B020A
:1049E0004FF0FF3393400B400593FFF7D9BB254AA7
:1049F0001A40B2F1D46F21D9611CBAD122498B423D
:104A00003FF4F8AC02F58013059300230493DDE92D
:104A10000489E5E61B4E1E40B6F1D66F3FF65EAF49
:104A20001A9DB6F15C7F2C463FF6C6AE22234FF0AE
:104A300000084FF00009CBF80030B8E4100D4FF03B
:104A4000FF31C0F16B0081408C4292D1DAE70E4A0F
:104A500093423FF4CFAC01321A40D3E704F1010E88
:104A600002E64046494622462B46FBF77BFB1A9C52
:104A700080468946A0E602460B4662E768F60800D3
:104A80000000F03F0000F07FFFFFEF7F000000001C
:104A90002DE9F04F012984468E4687B064D800295D
:104AA00042D033A3D3E9002333A7D7E9006734A565
:104AB000D5E900450FF2D00BDBE900AB34A1D1E919
:104AC0000001CDE9042334A3D3E90023CDE9002379
:104AD00033A3D3E90023CDE9022333A3D3E9002391
:104AE0004FF000084FF00009CCE90A01DDE90401AC
:104AF000CCE90C01DDE90001CCE90E01DDE90201A0
:104B0000CCE910010020CCE90089CCE90289CCE98C
:104B10000467CCE90645CCE908ABCCE91223CCF814
:104B2000D0E007B0BDE8F08F21A3D3E9002322A78E
:104B3000D7E90067CDE9042321A5D5E9004522A3E3
:104B4000D3E900230FF2880BDBE900ABCDE90023AA
:104B500021A1D1E9000122A3D3E90023CDE9022359
:104B600021A3D3E90023BBE76FF07400D9E700BFAE
:104B7000310BC0FF67263367D89E05C15D9DBBCB57
:104B800007D57C362A299A6217DD70305A0159916F
:104B900039590EF7D8EC2F1511155868874AB48E7D
:104BA000A78FF9640D2E0CDBA44FFABE1D48B54744
:104BB000D182E6AD7F520E5108C9BCF367E6096A9F
:104BC0003BA7CA8485AE67BB1F6C3E2B8C68059BD8
:104BD0002BF894FE72F36E3CF1361D5F3AF54FA54B
:104BE0006BBD41FBABD9831F79217E1319CDE05BEF
:104BF00030B58DB00AF012FC014628B113480DB053
:104C0000BDE830405BF05AB8114B5B7CDB0714D534
:104C1000104D02AC0FCD0FC42B6802A823600123F6
:104C20000D49009303220D4B0AF0C6FB014610B15B
:104C30000B485BF043F80DB030BD0A4D07AC0FCD0B
:104C40000FC42B6807A82360E9E700BF6A48090082
:104C50001510002060D8070008FA080000FA0800C4
:104C60008F48090074D8070010B5044604485BF06B
:104C700025F82046BDE8104005215FF004B800BFCC
:104C8000B548090030B593B015F048FC4422002126
:104C9000054601A84AF036F90123124C237420F08E
:104CA00041F8637CA0B903F0FE03637429464423F2
:104CB0000D4801AA62F06DF810B9019B052B0ADCC2
:104CC000637C23F0020363748023E37413B030BD6C
:104CD00043F00103E9E7637C43F0020363749DF84A
:104CE0003C30F2E7151000200600565108B5FFF7DA
:104CF000C9FF03210123064A06480AF007FA0146C4
:104D000020B1BDE8084004485AF0D8BF08BD00BF34
:104D100000FA080008FA0800DD48090070B50378B9
:104D20008AB004460E4607AD032B20D8DFE803F017
:104D300002191B1D114928464AF0E6FD05956378C6
:104D40001E210493A37830460393E3780C4A029320
:104D50002379019363790093A3795AF0BEFF0AB0D7
:104D600070BD0849E7E70849E5E70849E3E70A2194
:104D70002846074A5AF0B1FFE0E700BF0949090099
:104D80002B49090010490900174909002149090068
:104D9000C881090030B5154689B00C465EF0F7FFB2
:104DA0006946FFF7BBFF35B92246694605485AF008
:104DB00085FF09B030BD2B462246694602485AF0AD
:104DC0007DFFF6E74E4909007149090010B50C4610
:104DD00090B010466946FFF7A1FF204608A9FFF7EB
:104DE0009DFF6A46024808A95AF068FF10B010BD3E
:104DF0009A49090010B50C4688B05EF0C8FF6946B4
:104E0000FFF78CFF2246694602485AF057FF08B068
:104E100010BD00BFBA49090000B589B05EF0B7FF08
:104E20006946FFF77BFF694602485AF047FF09B021
:104E30005DF804FBE049090010B50C4688B05EF04F
:104E4000A6FF6946FFF76AFF22460A4C69460A48F0
:104E50005AF034FF4FF4004200232046074948F03F
:104E600023FD002200232046054948F01DFD08B01F
:104E700010BD00BF68190020FB4909003819002047
:104E80000819002000B589B029B10A4809B05DF8B9
:104E900004EB5AF013BF5EF07AFF6946FFF73EFF5E
:104EA000694605485AF00AFF044874F0D7FB09B078
:104EB0005DF804FB214A0900454A09000819002051
:104EC00070B590B015F02AFB0568064649481FF0FA
:104ED0007BF9014610B148485AF0F0FE1FF03EF948
:104EE000014610B145485AF0E9FE00214FF4004058
:104EF00049F022F842480BF0C5FB42480BF0DCFBBE
:104F0000002009F097FB014618B13F485AF0D6FE41
:104F100031E03E485AF0D2FE1FF01EFF044638BB77
:104F20003B485AF0CBFE3B4A2D691046E9785AF0CF
:104F3000E4FD901C29795AF0E0FD101D69795AF0C2
:104F4000DCFD52F8020CD2F8021003AB8DF81440CD
:104F500003C303A809F04EFB2F4B5B7CDB070DD48A
:104F60002E4D0BAC0FCD0FC42B680BA823600CE0AB
:104F70002B485AF0A3FE002010B070BD294D06AC9E
:104F80000FCD0FC42B6806A82360012303220093D2
:104F90002549264B0AF010FA044610B10146244870
:104FA000B4E724485AF08AFEFFF76CFE224874F0FA
:104FB00041FB05234FF4805220491F48009448F0DC
:104FC000CDFB1F491F4874F03BFB1F491F4874F07D
:104FD00037FB00F019FC00F085FA234622463146E3
:104FE0001B4820F0DFFB00214FF4004048F0A4FFF5
:104FF000F9E700BFD7FA0500564A0900744A0900CC
:1050000060080020500800208F4A0900B04A0900BB
:10501000C84A09002B1000201510002074D8070082
:10502000F94A090060D8070008FA080000FA0800E9
:10503000354B09005E4B090068190020387F0020BD
:10504000F14B000038190020ED4C00000819002039
:105050006F00565198B503460F4800AF026802F042
:105060000702022A16D919680C4A0D4B6C4688B003
:10507000002918BF13466A460A49C2E905134FF4CE
:1050800000739383084B4FF4E65142F8103F5AF0F7
:1050900042FDA546BD4698BD40120020844B090044
:1050A0008A4B0900934B0900030000012DE9F04FE2
:1050B0009D4B83B0994202AF07D00133994200F073
:1050C0002E810437BD46BDE8F08F8568974C2A785D
:1050D0002368012A03F007030ED1022B05D9AB790F
:1050E00003212046924A5CF072FA0021914B084657
:1050F00019701FF0FBF8E4E78F4AA9791170EA787C
:10510000002A40F00381022B14D9A87814F040FE45
:105110006E4688B002AA894B4FF4E651C2E90530C9
:105120004FF400739383864B204642F8103F5AF0A9
:10513000F2FCB546AB78042BC3D101217D4B002096
:1051400019701FF0D3F8236803F00703022BB8D9B6
:1051500003217C4A75485CF031FA236803F00703A9
:10516000022BAED96B790321774A70485CF02FFA95
:10517000236803F00703022BA3D9AB790321734AF9
:105180006A485CF024FA236803F00703022B98D9DD
:10519000687814F0F1FDE84688B002AA4FF4007A6E
:1051A0006B4BDFF89C91C2E90530A2F81CA04FF4CC
:1051B000E6515E4842F8109F5AF0ADFC2368C546A0
:1051C00003F00703022B7FF67CAF2A7C614EDFF8E9
:1051D00088B188B0002A0CBF33465B4602AA5F49FB
:1051E000A2F81CA0C2E9051350484FF4E65142F85A
:1051F000109F5AF090FC2368C54603F00703022B6A
:105200007FF65FAFAA7C88B0002A0CBF33465B46AE
:1052100002AA5349A2F81CA0C2E9051343484FF45F
:10522000E65142F8109F5AF076FC2368C54603F019
:105230000703022B7FF645AFEA7C88B0002A0CBF3B
:1052400033465B4602AA4749A2F81CA0C2E90513EF
:1052500036484FF4E65142F8109F5AF05CFC236840
:10526000C54603F00703022B7FF62BAF6A7C002AAA
:105270000CBF33465B466E4688B002AA3A49A2F894
:105280001CA0C2E9051329484FF4E65142F8109FCB
:105290005AF041FC2368C54603F00703022B7FF652
:1052A00010AF6B694FF47A7200930321B3FBF2F3F2
:1052B0001E482E4A5CF095F9236803F00703022B81
:1052C0007FF6FFAED5E902898AB002AD284B294AA4
:1052D0006B61404600234946FBF754FC06232A46EF
:1052E000C5E90601C5E908894FF4435142F8103F6A
:1052F0000E485AF010FC2368B54603F00703022B52
:105300007FF6DFAE03211C4A084805E0022B7FF63A
:10531000D8AE03212046194A5CF050F9D1E68068E6
:10532000FFF798FECDE600BF060056D140120020E0
:10533000B24B0900FC73002031100020D84B09004B
:1053400003000001014C0900214C0900364C090002
:10535000464C0900AC4B0900A74B09005F4C090003
:10536000714C0900824C0900934C0900A34C0900C0
:10537000C44C090040420F00E34C0900E94B09000E
:10538000F0B58DB000AF15F0E7FC282200210446EF
:1053900007F1080049F0B6FD0123454945480A7860
:1053A0000578BA737B73002D42D1BB764FF6E85374
:1053B000FB610023404AC7E90423282321463F48D4
:1053C00007F1080214F022FD3D4C05462368002831
:1053D0003CD05B0729D0387A14F0BEFC0446787ABA
:1053E00014F0CAFC97F828306D460A2B98BF354A4E
:1053F0008CB094BF52F82330334B6A463349D061A6
:10540000C2E9051432491362396040F20241B980A1
:1054100079682F482F4B5062118529484FF451511C
:1054200042F8103F5AF077FBAD464FF0FF353AE0B7
:10543000072A98BF01323B72BB7298BFD3B20B7080
:105440000021017008461EF051FFB6E703F0070384
:10545000022B28D9032120461F4A5CF0AFF82368AD
:1054600003F00703022B1ED9387A14F075FC6E4640
:1054700088B06A46194B4FF4E651C2E905304FF443
:1054800000739383164B204642F8103F5AF043FBBB
:105490002368B54603F00703022B04D903212046F5
:1054A0000D4A5CF08BF828463437BD46F0BD00BF8E
:1054B00031100020FC73002080969800090056519E
:1054C0004012002020FA0800034D09000D4D09008C
:1054D00000020103050000032C4D09004C4D09009A
:1054E000030000010348044B4360044B036116F0C2
:1054F00005B800BFB8400020AD500000070056D1ED
:1055000008B5084803685B0703D00121064A5CF030
:1055100055F8064817F0CCF9054B1A68054B1A6088
:1055200008BD00BF001200206B4E0900F4400020AF
:10553000E4400020E84000202DE9F04391B005460A
:1055400000AF46480C46166874F088F80021012028
:105550001EF0CCFE4FF004090023204607F108019D
:10556000C7E90239C7E90433C7E9063317F05EF823
:10557000804628B96FF001004437BD46BDE8F0838E
:105580004946204662F0FEFC204662F023FE0328D6
:105590001DD92046391D62F0C0FD0028EAD164F013
:1055A0001EFF7B682E4AC01AC0F30E03A3FB023114
:1055B000DB0B43EA414310217860C00B02FB003350
:1055C000284A7818B3FBF2F3274A4AF07BF807F130
:1055D000200910234A4606F10C01012015F02AFD8E
:1055E00010230120F11807F1300215F023FDB8F85F
:1055F00002101E4B1E4849BA89B21960036803F0B5
:105600000703022B1ED9738896F808C05BBA6E4652
:105610009BB28CB0043B6A46DFF858E0C2E90791C0
:10562000C2E905E307F110039362134BC2F824C0EB
:10563000D362124B42F8103F002344F2C00102F043
:1056400095FEB546204662F0B2FB284617F030F9C9
:10565000386E47F09BFE00208EE700BF501A0020F6
:1056600000CA9A3B40420F00894E0900E4400020E6
:1056700000120020944E09000103040607000002F6
:105680002DE9F04389B002AF14F048FF0022404EEC
:10569000814633681146013333603E483E4B17F074
:1056A000DFF83E4D044610B32B685A0715D04AF078
:1056B0006FFBE8468AB002AA394BC2E9053440F2D2
:1056C00001331384374BD06142F8103F00234FF46D
:1056D0001151284602F04AFEC546334B40F267623C
:1056E0001B6832483360002348F00CF94CE0DFF8C7
:1056F000C080D9F8CC300122C8F804303368A8F84B
:105700000020FB804FF0FF33C7E903300423B8804B
:1057100038727B61DFF89C900146484673F09AFE30
:1057200014F0FCFE3B1D014642461A48CDF800909D
:1057300017F0F2F82B6888B15B07CED05DF0EDFC76
:10574000D0F800905DF0E9FC00684AF021FBE846E3
:105750008AB002AA184BC2E90539B0E703F0070383
:10576000022B05D9336803212846144A5BF02FFF2A
:105770004FF4004200230F4847F02EFE4FF4F02272
:1057800000230F4848F08AF81C37BD46BDE8F08377
:10579000E8400020F44000203955000000120020AD
:1057A000C04E090004000001E4400020801A0020DF
:1057B000EC400020CC400020DE4E0900FA4E0900EB
:1057C000501A0020084B1A68084B1B689A4207DAE7
:1057D000074803685B0705D00121064A5BF0EEBE6F
:1057E000FFF74EBF704700BFE4400020E8400020B4
:1057F00000120020114F090000220023014848F048
:105800004DB800BF801A002008B504F065F8064BBB
:1058100006491860064873F013FFBDE808400549C3
:10582000054873F00DBF00BF08410020C5570000B8
:10583000801A002001550000501A002010B5094CB4
:105840000A44914200D110BD11F8013B58400309B0
:10585000E35C0001C0B243401809205C1B01DBB2CD
:105860005840EEE7294F09002DE9F84380460F46DE
:10587000154600F0ABF8C36804461BB943691A78B3
:10588000002A4CD10023E3606368434557F8232086
:1058900008DB3D4B6361204600F07EF84FF0FF309F
:1058A000BDE8F883511C616116782D2EF1D1911C51
:1058B000616151782D29A16004D1927862B90133D8
:1058C0006360E6E741B9304B31462846636149F0F1
:1058D000B3FF0028DFD0A660D4F8089028464946D8
:1058E00049F0AAFFB9F13A0F626900D0E0B9137824
:1058F00013B963680133636023685BB12B783A2B7B
:1059000008D0224803685A0704D04B46204A012198
:105910005BF05DFE204600F03FF83F20C0E75A1CD8
:1059200042611B788360D7E743783A2B0BD0002382
:105930002361137813B9636801336360204600F074
:105940002BF8A068ACE7117866680F4B29B90136CF
:10595000B045666004DD57F82620C4E90423EAE771
:1059600063612D783A2D04D1204600F015F82846C1
:1059700096E72368002BCDD0044803685B07C9D0A5
:10598000044A4B46C3E700BF60190A0068110020B3
:10599000394F09004E4F09000268074B1A604268F0
:1059A000064B1A608268064B1A60C268054B1A6083
:1059B0000269054B1A607047940800209008002087
:1059C00014410020104100200C4100200048704785
:1059D000780800202DE9F04F91B0009302F0040305
:1059E0000293C2F3C2030133840705460E46DDF875
:1059F00068900392059340F0BB81041D30B10729E4
:105A000009D86FF01B0011B0BDE8F08F01F0070658
:105A1000341DC6F10806009B4FF000084FF0040A41
:105A2000591E4FF0FF3347460193C3465346CDF806
:105A300010800DB1009A22600598002800F3E880DC
:105A40009848009A824203D397488242C0F0E0808F
:105A5000039AA4EB050E92074FEA9E0000F1038122
:105A60000F2F00F2B180002D00F0058107F14002F8
:105A70000DEB020C019A0CF8200C0CF8102C049879
:105A800001300490E7E07A285DD84B280ED84728EB
:105A900059D829282DD8252852D054D820287AD052
:105AA0002338D0F1000B4BEB000B74E04C382E2860
:105AB00049D8DFE800F07048484848484848484816
:105AC00048484B484848484848484859484B4B592B
:105AD0005959704B6D487048184B184848827F4B95
