:020000040000FA
:1000000078DD012081C10000BF5706006DC10000EE
:100010006DC100006DC100006DC100006DC1000028
:1000200000000000000000000000000035C30000D8
:100030006DC1000000000000F5C200006DC10000AD
:10004000B1C40000B1C40000B1C40000B1C40000DC
:10005000B1C40000B1C40000B1C40000B1C40000CC
:10006000B1C40000B1C40000B1C40000B1C40000BC
:10007000B1C40000B1C40000B1C40000B1C40000AC
:10008000B1C40000B1C40000B1C40000B1C400009C
:10009000B1C40000B1C40000B1C40000B1C400008C
:1000A000B1C40000B1C40000B1C40000B1C400007C
:1000B000B1C40000B1C40000B1C40000B1C400006C
:1000C000B1C40000B1C40000B1C40000B1C400005C
:1000D000B1C40000B1C40000B1C40000B1C400004C
:1000E000B1C40000B1C40000B1C40000B1C400003C
:1000F000B1C40000B1C40000B1C40000B1C400002C
:10010000B1C40000B1C40000B1C40000B1C400001B
:10011000B1C40000B1C40000B1C40000B1C400000B
:10012000B1C40000B1C40000B1C40000B1C40000FB
:10013000B1C40000B1C40000B1C40000B1C40000EB
:10014000B1C40000B1C40000B1C40000B1C40000DB
:10015000B1C40000FFFFFFFF81F0004102E000BFDB
:1001600083F0004330B54FEA41044FEA430594EA77
:10017000050F08BF90EA020F1FBF54EA000C55EAB2
:10018000020C7FEA645C7FEA655C00F0E2804FEA83
:100190005454D4EB5555B8BF6D420CDD2C4480EA65
:1001A000020281EA030382EA000083EA010180EA95
:1001B000020281EA0303362D88BF30BD11F0004FE3
:1001C0004FEA01314FF4801C4CEA113102D0404219
:1001D00061EB410113F0004F4FEA03334CEA133354
:1001E00002D0524263EB430394EA050F00F0A7806C
:1001F000A4F10104D5F1200E0DDB02FA0EFC22FA67
:1002000005F2801841F1000103FA0EF2801843FA5A
:1002100005F359410EE0A5F120050EF1200E012A4B
:1002200003FA0EFC28BF4CF0020C43FA05F3C01889
:1002300051EBE37101F0004507D54FF0000EDCF102
:10024000000C7EEB00006EEB0101B1F5801F1BD3AB
:10025000B1F5001F0CD349085FEA30004FEA3C0CAF
:1002600004F101044FEA445212F5800F80F09A80A5
:10027000BCF1004F08BF5FEA500C50F1000041EBA9
:10028000045141EA050130BD5FEA4C0C404141EBAD
:100290000101013C28BFB1F5801FE9D291F0000FA8
:1002A00004BF01460020B1FA81F308BF2033A3F157
:1002B0000B03B3F120020CDA0C3208DD02F1140C4E
:1002C000C2F10C0201FA0CF021FA02F10CE002F189
:1002D0001402D8BFC2F1200C01FA02F120FA0CFC82
:1002E000DCBF41EA0C019040E41AA2BF01EB0451CB
:1002F000294330BD6FEA04041F3C1CDA0C340EDCC9
:1003000004F11404C4F1200220FA04F001FA02F30B
:1003100040EA030021FA04F345EA030130BDC4F1C9
:100320000C04C4F1200220FA02F001FA04F340EABE
:100330000300294630BD21FA04F0294630BD94F06F
:10034000000F83F4801306BF81F480110134013D56
:100350004EE77FEA645C18BF7FEA655C29D094EAC7
:10036000050F08BF90EA020F05D054EA000C04BF45
:100370001946104630BD91EA030F1EBF0021002030
:1003800030BD5FEA545C05D14000494128BF41F0CF
:10039000004130BD14F580043CBF01F5801130BD33
:1003A00001F0004545F0FE4141F470014FF00000BE
:1003B00030BD7FEA645C1ABF194610467FEA655C6F
:1003C0001CBF0B46024650EA013406BF52EA033511
:1003D00091EA030F41F4002130BD00BF90F0000FFF
:1003E00004BF0021704730B54FF4806404F132043B
:1003F0004FF000054FF0000150E700BF90F0000FF4
:1004000004BF0021704730B54FF4806404F132041A
:1004100010F0004548BF40424FF000013EE700BFEA
:1004200042004FEAE2014FEA31014FEA02701FBF7A
:1004300012F07F4393F07F4F81F06051704732F0AC
:100440007F4208BF704793F07F4F04BF41F4002103
:10045000704730B54FF4607401F0004521F0004161
:100460001CE700BF50EA010208BF704730B54FF0EB
:1004700000050AE050EA010208BF704730B511F0EC
:10048000004502D5404261EB41014FF4806404F124
:1004900032045FEA915C3FF4D8AE4FF003025FEAAA
:1004A000DC0C18BF03325FEADC0C18BF033202EB2E
:1004B000DC02C2F1200300FA03FC20FA02F001FA88
:1004C00003FE40EA0E0021FA02F11444BDE600BF2B
:1004D00070B54FF0FF0C4CF4E06C1CEA11541DBFDA
:1004E0001CEA135594EA0C0F95EA0C0F00F0DEF8A5
:1004F0002C4481EA030621EA4C5123EA4C5350EA8A
:10050000013518BF52EA033541F4801143F48013DA
:1005100038D0A0FB02CE4FF00005E1FB02E506F06B
:100520000042E0FB03E54FF00006E1FB03569CF0C0
:10053000000F18BF4EF0010EA4F1FF04B6F5007FC6
:1005400064F5407404D25FEA4E0E6D4146EB060638
:1005500042EAC62141EA55514FEAC52040EA5E50C1
:100560004FEACE2EB4F1FD0C88BFBCF5E06F1ED86B
:10057000BEF1004F08BF5FEA500E50F1000041EBA2
:10058000045170BD06F0004646EA010140EA02004F
:1005900081EA0301B4EB5C04C2BFD4EB0C0541EA71
:1005A000045170BD41F480114FF0000E013C00F386
:1005B000AB8014F1360FDEBF002001F0004170BDAA
:1005C000C4F10004203C35DA0C341BDC04F11404C3
:1005D000C4F1200500FA05F320FA04F001FA05F24F
:1005E00040EA020001F0004221F0004110EBD3701C
:1005F00021FA04F642EB06015EEA430E08BF20EA48
:10060000D37070BDC4F10C04C4F1200500FA04F3EA
:1006100020FA05F001FA04F240EA020001F000417C
:1006200010EBD37041F100015EEA430E08BF20EAEF
:10063000D37070BDC4F1200500FA05F24EEA020E37
:1006400020FA04F301FA05F243EA020321FA04F066
:1006500001F0004121FA04F220EA020000EBD3701D
:100660005EEA430E08BF20EAD37070BD94F0000F1D
:100670000FD101F00046400041EB010111F4801F51
:1006800008BF013CF7D041EA060195F0000F18BF02
:10069000704703F00046520043EB030313F4801F3E
:1006A00008BF013DF7D043EA0603704794EA0C0FF8
:1006B0000CEA135518BF95EA0C0F0CD050EA41060E
:1006C00018BF52EA4306D1D181EA030101F000418B
:1006D0004FF0000070BD50EA410606BF10461946B3
:1006E00052EA430619D094EA0C0F02D150EA0136BF
:1006F00013D195EA0C0F05D152EA03361CBF104600
:1007000019460AD181EA030101F0004141F0FE419E
:1007100041F470014FF0000070BD41F0FE4141F422
:10072000780170BD70B54FF0FF0C4CF4E06C1CEA22
:1007300011541DBF1CEA135594EA0C0F95EA0C0FD7
:1007400000F0A7F8A4EB050481EA030E52EA033592
:100750004FEA013100F088804FEA03334FF08055B3
:1007600045EA131343EA12634FEA022245EA1115E0
:1007700045EA10654FEA00260EF000419D4208BF91
:10078000964244F1FD0404F5407402D25B084FEA3E
:100790003202B61A65EB03055B084FEA32024FF4EA
:1007A00080104FF4002CB6EB020E75EB030E22BF47
:1007B000B61A754640EA0C005B084FEA3202B6EB07
:1007C000020E75EB030E22BFB61A754640EA5C00B6
:1007D0005B084FEA3202B6EB020E75EB030E22BF46
:1007E000B61A754640EA9C005B084FEA3202B6EB47
:1007F000020E75EB030E22BFB61A754640EADC0006
:1008000055EA060E18D04FEA051545EA16754FEA67
:1008100006164FEAC30343EA52734FEAC2025FEA85
:100820001C1CC0D111F4801F0BD141EA00014FF014
:1008300000004FF0004CB6E711F4801F04BF0143E5
:100840000020B4F1FD0C88BFBCF5E06F3FF6AFAE01
:10085000B5EB030C04BFB6EB020C5FEA500C50F191
:10086000000041EB045170BD0EF0004E4EEA113114
:1008700014EB5C04C2BFD4EB0C0541EA045170BD1B
:1008800041F480114FF0000E013C90E645EA060E5F
:100890008DE60CEA135594EA0C0F08BF95EA0C0F8D
:1008A0003FF43BAF94EA0C0F0AD150EA01347FF4D5
:1008B00034AF95EA0C0F7FF425AF104619462CE7AC
:1008C00095EA0C0F06D152EA03353FF4FDAE10460F
:1008D000194622E750EA410618BF52EA43067FF460
:1008E000C5AE50EA41047FF40DAF52EA43057FF4F0
:1008F000EBAE12E74FF0FF3C06E000BF4FF0010CFB
:1009000002E000BF4FF0010C4DF804CD4FEA410C5E
:100910007FEA6C5C4FEA430C18BF7FEA6C5C1BD02B
:1009200001B050EA410C0CBF52EA430C91EA030FAC
:1009300002BF90EA020F0020704710F1000F91EA09
:10094000030F58BF994208BF90422CBFD8176FEAD7
:10095000E37040F0010070474FEA410C7FEA6C5CA5
:1009600002D150EA013C07D14FEA430C7FEA6C5CAC
:10097000D6D152EA033CD3D05DF8040B704700BFD8
:100980008446104662468C461946634600E000BF26
:1009900001B5FFF7B7FF002848BF10F1000F01BDF8
:1009A0004DF808EDFFF7F4FF0CBF012000205DF8C3
:1009B00008FB00BF4DF808EDFFF7EAFF34BF012048
:1009C00000205DF808FB00BF4DF808EDFFF7E0FFE1
:1009D00094BF012000205DF808FB00BF4DF808ED32
:1009E000FFF7CEFF94BF012000205DF808FB00BF99
:1009F0004DF808EDFFF7C4FF34BF012000205DF87B
:100A000008FB00BF4A0011D212F5001211D20DD519
:100A10006FF47873B3EB62520ED44FEAC12343F004
:100A2000004343EA505323FA02F070474FF00000AE
:100A3000704750EA013002D14FF0FF3070474FF05D
:100A4000000070474FEA4102B2F1E04324BFB3F522
:100A5000001CDCF1FE5C0DD901F0004C4FEAC00235
:100A60004CEA5070B2F1004F40EB830008BF20F019
:100A70000100704711F0804F21D113F13872BCBFD3
:100A800001F00040704741F480114FEA5252C2F128
:100A90001802C2F1200C10FA0CF320FA02F018BF71
:100AA00040F001004FEAC1234FEAD32303FA0CFCC4
:100AB00040EA0C0023FA02F34FEA4303CCE77FEA53
:100AC000625307D150EA01331EBF4FF0FE4040F49D
:100AD0004000704701F0004040F0FE4040F400004C
:100AE000704700BF7BB972B90029BEBF00204FF02C
:100AF000004106E008BF00281CBF6FF000414FF026
:100B0000FF3000F075B8ADF1080C6DE904CE002996
:100B100009DB002B1ADB01F0B4F8DDF804E0DDE9B5
:100B2000022304B07047404261EB4101002B1BDB04
:100B300001F0A7F8DDF804E0DDE9022304B040424B
:100B400061EB4101524263EB43037047524263EB56
:100B5000430301F096F8DDF804E0DDE9022304B078
:100B6000404261EB41017047524263EB430301F0A5
:100B700088F8DDF804E0DDE9022304B0524263EBBB
:100B80004303704753B94AB9002908BF00281CBF66
:100B90004FF0FF314FF0FF3000F02AB8ADF1080CF4
:100BA0006DE904CE01F06DF8DDF804E0DDE9022323
:100BB00004B07047D0B500220B4B06460F46FFF736
:100BC00087FCFFF71FFF0446FFF708FC0022074BD6
:100BD000FFF77EFC02460B4630463946FFF7C0FA67
:100BE000FFF710FF2146D0BD0000F03D0000F041AE
:100BF000704700BF844641EA000313F0030349D164
:100C0000403A23D30B6803604B6843608B68836072
:100C1000CB68C3600B6903614B6943618B69836176
:100C2000CB69C3610B6A03624B6A43628B6A83625E
:100C3000CB6AC3620B6B03634B6B43638B6B836346
:100C4000CB6BC36340304031403ADBD230320BD300
:100C50000B6803604B6843608B688360CB68C3603C
:100C600010301031103AF3D20C3205D351F8043B56
:100C700040F8043B043AF9D2043208D0D2071CBF32
:100C800011F8013B00F8013B01D30B88038060465B
:100C9000704700BF082A13D38B07B1D010F00303AD
:100CA000AED0C3F10403D21ADB071CBF11F8013B1D
:100CB00000F8013BA4D331F8023B20F8023B9FE748
:100CC000043AD9D3013A11F8013B00F8013BF9D2BB
:100CD0000B7803704B7843708B7883706046704755
:100CE00080EA010C1CF0030F37D110F0030C20F048
:100CF000030021F0030150F8042B08BF51F8043B16
:100D00000ED08CF0030C6FF07F434FEACC0C23FA2B
:100D10000CFC51F8043B42EA0C0243EA0C0300BF0E
:100D2000A2F1013C9A4201BF2CEA020C1CF0803F68
:100D300050F8042B51F8043BF2D04FEA02604FEA1E
:100D40001222012828BFB0EB036F08BF1B0AF4D0A2
:100D500003F0FF03000EC01A704710F0030F0AD013
:100D600010F8012B11F8013B012A28BF9A42F4D058
:100D7000A2EB030070474DF8045D50F8042B01F01E
:100D8000030521F0030151F8043B022D26D04DD874
:100D900022F07F45B5EB132FA2F1013C2CEA020CA7
:100DA0000DD11CF0803C08BF51F8043B0AD185EA04
:100DB0000205B5EB036F0CD150F8042BE8E74FEABE
:100DC00013235BE03CF07F4C54D10B784FEA126563
:100DD00054E04FEA126503F0FF034FE04FEA02458B
:100DE000A2F1013C4FEA15452CEA020CB5EB134F7A
:100DF00018D11CF0803C08BF51F8043B07D185EAAC
:100E00000205B5EB034F09D150F8042BE6E75FEA82
:100E10000C4C2FD10B884FEA12452FE04FEA0343C9
:100E20004FEA12454FEA134328E000BF02F0FF05E6
:100E3000B5EB136FA2F1013C2CEA020C0DD11CF0B2
:100E4000803C08BF51F8043B0AD185EA0205B5EBA6
:100E5000032F0AD150F8042BE8E74FEA13630DE0A3
:100E600012F0FF0F06D051F8043B4FEA122523F091
:100E70007F4303E04FF0000020BC704705F0FF0205
:100E800003F0FF00012828BF904204BF2D0A1B0A6F
:100E9000F4D0A2EB000020BC704700BF4FEA410C29
:100EA0007FEA6C5C02D150EA013C0AD14FEA430C64
:100EB0007FEA6C5C02D152EA033C02D14FF00000A1
:100EC00070474FF0010070474FEA410212F50012DF
:100ED00015D211D56FF47873B3EB625212D94FEA81
:100EE000C12343F0004343EA505311F0004F23FA6B
:100EF00002F018BF404270474FF00000704750EAC0
:100F0000013005D111F0004008BF6FF0004070477C
:100F10004FF00000704700BF2DE9F14F03F11C04B2
:100F200002EB840C4FEA930B8A68CB680868496827
:100F300000F046F93CE9F0006040694072407B40B7
:100F40000BF1060E4EE083EA134480EA134582EA71
:100F5000134746BA96EA3444604000F00F1684EA1C
:100F6000063420F00F1684EA161054BA94EA0106EB
:100F7000724002F00F1486EA043622F00F1486EA5B
:100F800014124CBA6540694001F00F1485EA04352B
:100F900021F00F1485EA14115CBA67407B4003F01E
:100FA0000F1487EA043723F00F1487EA141344BAA6
:100FB00044404DBA4D4056BA56405FBA5F4087EA4A
:100FC000174886EA174B84EA17464FEA38488BEAF7
:100FD0001B4485EA1B4788EA1B4580EA3440694088
:100FE00072407B4000F0703400F0803500F00F302C
:100FF00040EA440040EAD50080EA900404F033243B
:1010000080EA8400604001F0703401F0803501F026
:101010000F3141EA440141EAD50181EA910404F02B
:10102000332481EA8401614002F0703402F080359B
:1010300002F00F3242EA440242EAD50282EA920406
:1010400004F0332482EA8402624003F0703403F037
:10105000803503F00F3343EA440343EAD50383EAC0
:10106000930404F0332483EA84036340C943DB43DD
:1010700081EA000483EA044686EA020183EA014326
:1010800082EA334583EA14435C4084EA00077FEA3E
:10109000040A8AEA024A8AEA010B87EA11488AEAC4
:1010A000374A80EA060181EA1A418AEA030A04EA19
:1010B0000A00454088EA040707EA0B0041408AEA33
:1010C0000B0608EA060084EA34428AEA3A4602EA53
:1010D000060358404540414087EA37438BEA3B408E
:1010E00003EA000985EA090582EA0309464006EA9F
:1010F0000906714085EA010005EA3546464006EAE0
:10110000314181EA304181EA364606EA304686EAD4
:10111000354634400F4086EA010508EA050886EAAC
:101120003640024088EA020881EA314213405C40BE
:1011300080EA020309EA030987EA0907674088EAA7
:10114000040806EA0A0601EA0B018AEA0B042540B4
:101150008AEA3A44204045408BEA3B4B02EA0B02C4
:10116000564084EA0B04234059406E40694087EAA8
:10117000364080EA384080EA060380EA104481EA7B
:10118000134585EA344585EA17427D4082EA3541B8
:1011900080EA05403CE9F0006040694072407B40D5
:1011A000BEF1010E3FF6CFAE20BC00F05FF8286024
:1011B0006960AA60EB60BDE8F08F00BF00F000BA84
:1011C00080EA101404F0F01480EA0410604081EA10
:1011D000111404F0F01481EA0411614082EA12143F
:1011E00004F0F01482EA0412624083EA131404F05B
:1011F000F01483EA0413634080EA102404F47F446B
:1012000080EA0420604081EA112404F47F4481EAEA
:101210000421614082EA122404F47F4482EA042219
:10122000624083EA132404F47F4483EA0423634086
:1012300081EA500404F0553480EA4400614083EAB6
:10124000520404F0553482EA4402634082EA900476
:1012500004F0333480EA8400624083EA910404F0AD
:10126000333481EA84016340704700BF82EA90040E
:1012700004F0333480EA8400624083EA910404F08D
:10128000333481EA8401634081EA500404F0553428
:1012900080EA4400614083EA520404F0553482EA53
:1012A0004402634080EA102404F47F4480EA04206E
:1012B000604081EA112404F47F4481EA0421614002
:1012C00082EA122404F47F4482EA0422624083EA20
:1012D000132404F47F4483EA0423634080EA101457
:1012E00004F0F01480EA0410604081EA111404F064
:1012F000F01481EA0411614082EA121404F0F0143F
:1013000082EA0412624083EA131404F0F01483EAC0
:1013100004136340704700BF2DE9F14F94464FEA34
:10132000930B8A68CB6808684968FFF749FF0BF19F
:10133000060E33E083EA134480EA134582EA13473A
:1013400046BA96EA3444604000F00F1684EA063448
:1013500020F00F1684EA161054BA94EA010672407F
:1013600002F00F1486EA043622F00F1486EA1412F3
:101370004CBA6540694001F00F1485EA043521F04C
:101380000F1485EA14115CBA67407B4003F00F1418
:1013900087EA043723F00F1487EA1413BCE8F0003F
:1013A0006040694072407B4000F0E03400F010354E
:1013B00000F00F3040EA540040EAC50080EA900493
:1013C00004F0332480EA8400604001F0E03401F04E
:1013D000103501F00F3141EA540141EAC50181EABB
:1013E000910404F0332481EA8401614002F0E03486
:1013F00002F0103502F00F3242EA540242EAC5020E
:1014000082EA920404F0332482EA8402624003F008
:10141000E03403F0103503F00F3343EA540343EA9A
:10142000C50383EA930404F0332483EA840363400E
:1014300081EA324787EA134581EA354690EA060495
:1014400084EA034B82EA1B4280EA044484EA0544AE
:1014500083EA144A85EA14448BEA044B84EA37444D
:1014600081EA0B4181EA164104EA0A00454082EA1A
:1014700004082BEA080041408AEA0B0602EA06004B
:1014800084EA34438AEA3A4603EA0607784045404C
:10149000414088EA38478BEA3B4007EA000985EA81
:1014A000090583EA0709464006EA0906714085EA0C
:1014B000010005EA3546464006EA314181EA3041FD
:1014C00081EA364606EA304686EA3546344008EA7E
:1014D000010886EA01052A4086EA364003405A4060
:1014E00081EA31431F407C4080EA030709EA07098B
:1014F00088EA0908544088EA020806EA0A0601EA6E
:101500000B018AEA0B0215408AEA3A421040454034
:101510008BEA3B4003405E404240174079404D40DB
:101520004E40E443F64386EA18435D4085EA0540B1
:1015300083EA134386EA034183EA384284EA11438B
:1015400083EA04435FEA3343BEF1010E3FF6F2AE95
:101550001ED4BCE8F0006040694072407B4020BC73
:10156000FFF784FE28606960AA60EB60BDE8F08F39
:101570002DE9E0414FF2F00280EA1031114080EA9B
:101580000130484041088208C3084FF0000E4FE781
:1015900000F0113001F0113102F0113203F011337B
:1015A00040EA410040EA820040EAC3004FF2F00204
:1015B00080EA1031114080EA01304840BDE8E08106
:1015C0002DE9F04F02F11C050646074600EB8508A1
:1015D00051F8040B043A46F8040BF9D14FF0010C12
:1015E000FFF7C6FF5FEA302080EA0C001ECF4140C3
:1015F0004A4053405C401EC62000464517D04FEA83
:101600004C0C1CF4807F18BFACF1E50C2C2DE7D0FE
:101610003C2D06D1FFF7ACFF06CF41404A4006C63D
:10162000100006CF41404A4006C61000D8E736E910
:101630000F00FFF7C5FD043D86E80F00F7D1BDE8B8
:10164000F08F00BF2DE9F04FB0E8FE0783B02DE921
:10165000010790E8005F4FF00A0006900198DB193F
:101660009CEA030C18EB3C4897EA080713EB375346
:1016700093EA3C4C18EB3C6898EA375724189EEAEA
:10168000040E19EB3E4990EA090014EB305494EA39
:101690003E4E19EB3E6999EA3050CDE90489DDE907
:1016A000028949199AEA010A18EB3A4895EA0805AD
:1016B00011EB355191EA3A4A18EB3A6898EA3555F8
:1016C00092199BEA020B19EB3B4996EA090612EBC9
:1016D000365292EA3B4B19EB3B6999EA365613EBCB
:1016E000706393EA3B6B18EB3B4898EA706013EB2E
:1016F000305393EA3B4B5FEA3B6B18EB0B0898EADD
:1017000030505FEA706014EB756494EA3C6C19EB3E
:101710003C4999EA756514EB355494EA3C4C5FEA10
:101720003C6C19EB0C0999EA35555FEA7565CDE912
:101730000289DDE9048911EB766191EA3E6E18EBCE
:101740003E4898EA766611EB365191EA3E4E5FEAE2
:101750003E6E18EB0E0898EA36565FEA766612EB94
:10176000776292EA3A6A19EB3A4999EA776712EB9B
:10177000375292EA3A4A5FEA3A6A19EB0A0999EA59
:1017800037575FEA77670190069801387FF465AFB5
:1017900001BC80E8005FBDE8000700E9FE0703B078
:1017A000BDE8F08F30B44FF0000310F8014B11F892
:1017B000015B013A84EA050443EA0403F5D1A3F18D
:1017C00001034FEAD37030BC704700BF4FF00003F5
:1017D00010F8012B013943EA0203F9D1A3F1010307
:1017E0004FEAD370704700BF30B411F8014B12F8C4
:1017F000015B6C4000F8014B013BF6D130BC7047F7
:101800002DE9F14FF8C892E8005E19EB03095AEB95
:10181000040A5BEB050B5CEB060C4EEB070E91E844
:10182000E001A9FB0502AAFB0543E9FB6624EAFBEC
:101830006634A9FB0765E9FB6845B1E80003EBFBEB
:101840006836ECFB6846EEFB6856ABFB0987ECFBA1
:101850006957EEFB696791E80202EAFB6148EBFB1E
:101860006158ECFB6168EEFB61784FF00001EAFB28
:101870000951EBFB6961ECFB6971EEFB69814FF487
:10188000A03C4FEA154949EA06495FF0000AE9FB26
:101890000C0A4FEA164646EA0746E6FB6C2A4FEA70
:1018A000174747EA0847E7FB6C3A4FEA184848EA07
:1018B0000148E8FB6C4AADB25544AF0805F003059A
:1018C00007EB8707C01952F1000153F1000254F1F0
:1018D000000345F1000420BC1FC5BDE8F08F00BF28
:1018E00030B490E83C10511D53F1000154F1000157
:1018F00055F100014CF100014FEA9101494201F01C
:101900000501521853F1000354F1000455F100058C
:101910004CF1000C0CF0030C80E83C1030BC70471C
:101920002DE9F04F90E8F00F00F140004FF0040E69
:1019300059E0F0B4826BC36B0468052524268759EF
:101940003C444FEA724787EAF24787EA92273C44D1
:1019500042684FEAF21787EAB24787EAD2073C4467
:1019600040F8044B032D08BF6FF01B0687593A441B
:101970004FEA734787EAF34787EA93273A44436875
:101980004FEAF31787EAB34787EAD3073A4440F8A8
:10199000042B87593B444FEA744787EAF44787EAA8
:1019A00094273B4444684FEAF41787EAB44787EA30
:1019B000D4073B4440F8043B013DC0D1A0F13C00BA
:1019C000076A3C444FEA724787EAF24787EA922760
:1019D0003C4402684FEAF21787EAB24787EAD20727
:1019E0003C44C463F0BC4FF0020288EA781C8CEAE5
:1019F000F84C0BEBBC1C8AEA090303EA080383EAF0
:101A00000A039C4450F8043B9C4451F8043B9C441A
:101A1000674444EA050B0BEA060B04EA05034BEAAC
:101A2000030BE34484EAF42383EA34530BEBB30B54
:101A300087EA771C8CEAF74C0AEBBC1C89EA08039E
:101A400003EA070383EA09039C4450F8043B9C44DF
:101A500051F8043B9C4466444BEA040A0AEA050A2E
:101A60000BEA04034AEA030AE2448BEAFB2383EA13
:101A70003B530AEBB30A86EA761C8CEAF64C09EB78
:101A8000BC1C88EA070303EA060383EA08039C44B4
:101A900050F8043B9C4451F8043B9C4465444AEA9A
:101AA0000B0909EA04090AEA0B0349EA0309E144BC
:101AB0008AEAFA2383EA3A5309EBB30985EA751CEB
:101AC0008CEAF54C08EBBC1C87EA060303EA050325
:101AD00083EA07039C4450F8043B9C4451F8043BC0
:101AE0009C44644449EA0A0808EA0B0809EA0A0324
:101AF00048EA0308E04489EAF92383EA395308EB0A
:101B0000B30884EA741C8CEAF44C07EBBC1C86EA2C
:101B1000050303EA040383EA06039C4450F8043BEC
:101B20009C4451F8043B9C44E34448EA090707EA13
:101B30000A0708EA090347EA0307674488EAF82323
:101B400083EA385307EBB3078BEA7B1C8CEAFB4C28
:101B500006EBBC1C85EA040303EA0B0383EA0503D6
:101B60009C4450F8043B9C4451F8043B9C44E244A0
:101B700047EA080606EA090607EA080346EA0306F2
:101B8000664487EAF72383EA375306EBB3068AEA0B
:101B90007A1C8CEAFA4C05EBBC1C84EA0B0303EAC2
:101BA0000A0383EA04039C4450F8043B9C4451F824
:101BB000043B9C44E14446EA070505EA080506EAB9
:101BC000070345EA0305654486EAF62383EA3653AC
:101BD00005EBB30589EA791C8CEAF94C04EBBC1CD3
:101BE0008BEA0A0303EA090383EA0B039C4450F8D7
:101BF000043B9C4451F8043B9C44E04445EA060401
:101C000004EA070405EA060344EA0304644485EA97
:101C1000F52383EA355304EBB304013A7FF4E5AED0
:101C2000A0F14000BEF1010E7FF483AEA0F1400CA4
:101C30009CE80F00001949199219DB19ACE80F0054
:101C40009CE80F004044494452445B44ACE80F0018
:101C5000BDE8F08F38B50022002304460D46FEF79C
:101C6000A9FE28B920462946BDE83840FEF7A2BFA4
:101C7000204605F10041FEF79DFF404261EB410126
:101C800038BD2DE9F04786468C460846089E154625
:101C900074461946002B40F0C1808542B2FA82F2A8
:101CA00045D94AB1C2F1200300FA02FC95409440A4
:101CB0002EFA03F343EA0C0C4FEA154EA8B2230C9C
:101CC000BCFBFEF80EFB18CC08FB00F943EA0C4302
:101CD000994528D9EB1808F1FF3704D2994502D964
:101CE000A8F102072B44A3EB0903A4B2B3FBFEFC4B
:101CF0000EFB1C330CFB00F044EA0344A04214D951
:101D00002C190CF1FF3304D2A04202D9ACF102032A
:101D10002C44241A43EA07401EB1D4400023346007
:101D20007360BDE8F0874746DDE76346F1E792BBA5
:101D3000431B01214FEA154EAFB2200CB3FBFEFC52
:101D40000EFB1C330CFB07F840EA0343984561D9AE
:101D5000EB180CF1FF3004D2984502D9ACF1020027
:101D60002B44A3EB0803A4B2B3FBFEFC0EFB1C3315
:101D70000CFB07F744EA0344A7424DD92C190CF198
:101D8000FF3304D2A74202D9ACF102032C44E41B76
:101D900043EA0040C0E7C2F120039540944020FA96
:101DA00003F12EFA03F34FEA154E9040AFB203430E
:101DB000B1FBFEFC0EFB1C10190C0CFB07F841EAF2
:101DC0000041884522D969180CF1FF3004D28845BA
:101DD00002D9ACF102002944A1EB08019BB2B1FB8E
:101DE000FEFC0EFB1C110CFB07F743EA01439F426C
:101DF0000ED9EB180CF1FF3104D29F4202D9ACF19D
:101E000002012B44DB1B41EA004193E76046E3E714
:101E10006146F7E76046A4E76346B8E7834206D920
:101E200016B9002108467CE7C6E900E0F9E7B3FAF5
:101E300083F78FB9834201D3724508D8BEEB020401
:101E400060EB030301209C461EB9002169E7384678
:101E5000FAE7C6E9004CF8E7C7F1200CBB400EFAE0
:101E600007F522FA0CF42EFA0CF1BA401C4320FAC2
:101E70000CF3B8404FEA144901431FFA84FEB3FB48
:101E8000F9F809FB18300B0C08FB0EFA43EA004383
:101E90009A4540D9E31808F1FF3004D29A4502D997
:101EA000A8F102002344A3EB0A0389B2B3FBF9F8BB
:101EB00009FB183308FB0EFE41EA03418E452CD97D
:101EC000611808F1FF3304D28E4502D9A8F102034C
:101ED000214443EA0040A1EB0E01A0FB02984145DA
:101EE000CE46434602D306D14D4504D20138B9EB64
:101EF000020E68EB0403002EA7D0B5EB0E0261EBD7
:101F0000030101FA0CFC22FA07F3F9404CEA03033F
:101F1000C6E9003199E74046C5E74346D9E70000E6
:101F20002DE9F04706460F4690468AB07AF00EFB40
:101F30004FF47A73A0FB034503FB0155E40B012F1B
:101F400044EA45444FEAD53508D108213046CDE969
:101F50000045294A62F0A7F9002013E0D8F8047080
:101F600026483946FEF7BCFE78B139462448FEF7CC
:101F7000B7FE50B130463B460121224A62F093F948
:101F80006FF004000AB0BDE8F087204618A3D3E93B
:101F900000232946FEF7A6FD05460C4610461946C5
:101FA000194A0023FEF79EFD80460F46104619464B
:101FB0004EF660220023FEF795FD824689461046C4
:101FC00019464FF47A720023FEF78CFDCDE904A97F
:101FD000CDE90601CDE9082308213046CDE9028785
:101FE000CDE90054094A62F05EF9B5E7AFF300802D
:101FF000005C2605000000002379090034790900FF
:10200000377909004079090080EE360057790900D8
:1020100001282DE9F041884607D063F065FC1623BE
:1020200003604FF0FF30BDE8F0818A68244B9A428C
:10203000F3D87AF08BFA05460F467AF087FA214CEE
:10204000D8F80030D8F80420A3FB043604FB02665D
:10205000D8F808209B1846EBE276EA0B42EA4742A2
:10206000A2FB0421FF0B9B1AC0F30E0204FB071115
:10207000A2FB04244FEAD23242EA444266EB010159
:10208000981A61F100010CA3D3E90023FEF72AFDA1
:10209000EFF31184202383F31288BFF36F8F0A4B71
:1020A000C3E900019A6084F31188BFF36F8F0020A9
:1020B000B9E700BFAFF3008000CA9A3B0000000000
:1020C000FFC99A3B00CA9A3B982D002000000000EF
:1020D000F0B583B0654D00AFD5F86431996811F063
:1020E00001011AD140F603403A1D0BF091FF04465E
:1020F000002840F0B2807868C3681B785BB905F1AE
:10210000D403D3E8AF2F02F00902D3E8EF1FC3E8EE
:10211000E42F002CF9D112F0FBFF002141F2030063
:102120003A1D0BF075FF0446002840F096807B684E
:102130004F4EDA68D2F80100D2F8051003C61846EF
:1021400012F0E6FF214641F201003A1D0BF060FF5C
:102150000446002840F081807868C3685A7885F882
:1021600070205A88A5F872201A7985F87120B3F882
:102170000720A5F87420B3F80530A5F8763012F0E2
:10218000C7FF214641F202003A1D0BF041FF044611
:10219000002862D1D7F804C0DCF80C20531C41326F
:1021A000344618685968083303C493422646F7D169
:1021B000604612F0ADFF0DF051FE044600284CD1F0
:1021C00095F88A30980613D42A48036813F0060F4E
:1021D00003D00221284A63F031FE95F87C3059067D
:1021E0004ED4244803685A073BD16FF0120434E000
:1021F000072140F633400BF0CFFE0646002800F0E2
:102200004A8107210C3065F08EFE6FF06803037081
:102210000623C0F802408471447004712246C370E2
:10222000314640F633400BF0F3FE0446A8B90121D5
:1022300040F631400BF0B0FE0646002800F02B813E
:1022400001210C3065F07EFE2246314640F63140D9
:102250000BF0DEFE04460028BFD020460C37BD46FA
:10226000F0BD0121054A63F0E9FDBEE70000002052
:102270007800002018130020449709007297090085
:10228000002142F203003A1D0BF0C2FE0446002872
:10229000E3D17B68A84EDA68D2F80100D2F80510C5
:1022A00003C6184612F034FF214642F202003A1DDE
:1022B0000BF0AEFE04460028CFD17C68E368B3F88B
:1022C000012091B249B1D97839B1A5F80421DA7861
:1022D000114606F1280079F007FE204612F018FF9B
:1022E0001F2395F87C60A5F8203116F0200618D140
:1022F000022140F66D400BF04FFE0446002800F02E
:10230000CA8002210C3065F00EFE012321460370C5
:102310004670324640F66D400BF07AFE04460028C7
:102320009BD195F89C301B0712D5002142F21C006E
:102330003A1D0BF06DFE044600288ED17868C36804
:10234000D3F80120D3F80530C5E9382312F0E0FEB8
:1023500095F8D8309E0622D53846B91C0BF0D6FE2B
:10236000044600287FF479AF042142F224000BF0E8
:1023700013FE0646002800F08E8004210C3065F024
:10238000D2FD3B88224603807B883146438042F25F
:1023900024000BF03DFE044600287FF45EAF95F864
:1023A000D8305C0610D5002142F22A003A1D0BF00D
:1023B0002FFE044600287FF450AF7868C3685B782E
:1023C00085F8223112F0A4FE082142F201000BF040
:1023D000E3FD044600285ED008210C3065F0A3FD23
:1023E00095F8D81040F2022311F0400F08BF0323E4
:1023F000024688074CBF43F02C0043F00C0095F8D0
:10240000D9308E0648BF40F0400013F0090F18BFC6
:1024100040F40060CB0795F8A23048BF40F01000B0
:1024200003F00603062B08BF40F4C070002163F0E0
:102430002BFD2146002242F201000BF0E9FD04468B
:1024400000287FF40AAF95F87C30B5F804119E0699
:1024500024D4C9B941F205003A1D0BF0D9FD044658
:1024600000287FF4FAAEB5F804317C684BB9E36814
:10247000B3F80120A5F804219A883048114679F074
:1024800033FD204612F044FE082140F601400BF0D7
:1024900083FD044680B96FF06804DEE60029F3D1BD
:1024A000274803685C0702D16FF00404D5E60121D8
:1024B000244A63F0C3FCF7E708210C3065F033FDD4
:1024C00095F8D8300246D9072ED44FF000511E4857
:1024D00063F0DAFC2146002240F601400BF098FD43
:1024E000044600287FF4B9AE01463A1D4FF601407C
:1024F0000BF08EFD124C58B3236813F0060F04D076
:1025000002212046114A63F099FC0DF0F5F80446CB
:1025100000287FF4A2AE0EF0A3FD044600287FF44D
:102520009CAE0CF0AFFB98E601A1D1E90001CFE72A
:102530009088000200800020D800002008010020C0
:10254000181300209697090010880002B997090017
:102550007B68DD68236803F00703022B68D9B5F8B0
:1025600001306E46032B98BF4E4A8AB094BF52F892
:1025700023104D496A46D3614FF400734B481384CE
:102580004B4BC2E9050142F8103F4FF41351494843
:1025900063F061FC2368B54603F00703022B47D9BB
:1025A000B5F80120B5F80330022A55D1052B53D8D0
:1025B000414A52F823106E468AB06A46D3614FF4FE
:1025C00000733E4813843A4BC2E9050142F8103FBC
:1025D0004FF41351374863F03EFC2368B54603F0CF
:1025E0000703022B24D96B7995F806C0032B98BFFB
:1025F000334AB5F80760D5F809006D468CB094BF32
:1026000052F8231028496A46C2E9073C4FF4007388
:10261000DFF8B0E093852C4BC2E905E1C2E909601F
:102620004FF47351234842F8103F63F014FCAD4659
:10263000786812F06DFD00214FF602403A1D0BF054
:10264000E7FC054650B1236813F0060F3FF45DAF79
:102650001E4A0221174856E71349ACE778681C4E1A
:10266000C368B3F80130A6F8C13012F051FD96F8F6
:10267000C1305B077FF549AF29464FF603403A1D4D
:102680000BF0C6FC30B1236813F0060F3FF43DAFEA
:10269000104ADEE77868C3685B7886F8C03012F0CD
:1026A00037FD32E7BC27090099950900DD9709003D
:1026B0000400000118130020A4270900F697090060
:1026C000942709000E980900070000013B980900B3
:1026D00000000020649809002DE9F04F8846D0F8EA
:1026E000201182460B6B16468FB053B1062218316B
:1026F00006F120004EF074FD18B901200FB0BDE8BE
:10270000F08F504604A9D8F86050D8F88040D6F829
:1027100080706FF063FC002852D1DDF820B0BBF16F
:10272000000F04D1DDF81CB0BBF1000F27D042F23E
:102730000F71099B049A8B420AD16FF47A63D31804
:1027400040F2657293428CBF6FF058036FF05B03E9
:102750004046ABEB03096DF03BFED8F88C200346F6
:1027600008F194010AB9D8F89020D8F850005D46D5
:10277000CDE90090504631F09DF9CB46044604F572
:102780009C530833BB42B8D3336DB3F57A6F1ADD6F
:10279000D8F85030B3F57A6FACBF4FF0000A4FF065
:1027A000010A002D12DB07F59C5308339C4200F20E
:1027B000CB80BBF1190F00F3C7804FF0020B3AE05A
:1027C0004FF0000BDBE74FF0000AEAE7336E03EB54
:1027D0004A03AB4215DA3846FDF700FE8046204634
:1027E0008946FDF7FBFD4FF033325B4BFDF770FE82
:1027F00002460B4640464946FEF7DCF8002840F00A
:10280000A38007F59C530833A342C0F09D80BBF121
:10281000190F00F3998015F1550F31DB15F1500FA9
:10282000CBDB15F14B0F2EDB15F1460FB4BF4FF08C
:10283000040B4FF0050B2046FDF7D0FD80463846CF
:102840008946FDF7CBFD02460B46CDE90223002267
:10285000424BFDF73DFE02460B4640464946FEF719
:10286000C7F898B10BF10A0BBAF1000F01D0ABF128
:10287000020B306E401B5845B4BF002001203DE7DD
:102880004FF0010BD7E74FF0030BD4E74FF0333293
:10289000DDE90201304BFDF71BFE02460B464046C8
:1028A0004946FEF7A5F810B10BF1050BDCE728A3AC
:1028B000D3E90023DDE90201FDF70AFE02460B46DB
:1028C00040464946FEF794F810B10BF1020BCBE7F6
:1028D000BC4202D90BF1010BC6E700221F4B404658
:1028E0004946FDF7F5FD02460B46DDE90201FEF71C
:1028F0007FF810B1ABF10A0BB6E74FF03332164B4D
:1029000040464946FDF7E4FD02460B46DDE902017B
:10291000FEF76EF810B1ABF1050BA5E70CA3D3E9F8
:10292000002340464946FDF7D3FD02460B46DDE94C
:102930000201FEF75DF810B1ABF1020B94E7BC4267
:1029400038BF0BF1FF3B8FE70020D7E6AFF30080E5
:102950009A9999999999F13F3333F33F0000F83FE1
:10296000C1F30A5C02460B462DE9F041ACF2FF359B
:102970000C460646132D34DC002D20DBDFF8D0801A
:102980000F4648FA05F801EA080C5CEA000C2DD065
:102990002DA3D3E90023FDF7E5FB00220023FEF77A
:1029A00027F840B1002C03DD4FF480132B411F4466
:1029B00027EA0804002621463046BDE8F08122A31C
:1029C000D3E90023FDF7CEFB00220023FEF710F829
:1029D0000028F0D0002C33DB3443EBD000261D4C14
:1029E000E9E7332D06DDB5F5806F26D01046194690
:1029F000BDE8F081ACF2134C4FF0FF3727FA0CF72B
:102A00003842F3D010A3D3E90023FDF7ABFB00223B
:102A10000023FDF7EDFF0028CDD0002C334609DD63
:102A2000142D06D0C5F134050122AA4013449E425C
:102A300000D9013423EA0706BDE7FDF793FBD7E78A
:102A400000264FF00044B6E79C7500883CE4377ED2
:102A5000FFFF0F000000F03FC1F30A5C02460B4687
:102A60002DE9F041ACF2FF350C460646132D32DC61
:102A7000002D20DBDFF8E0800F4648FA05F801EA78
:102A8000080C5CEA000C2BD031A3D3E90023FDF73E
:102A900069FB00220023FDF7ABFF40B1002C03DAF5
:102AA0004FF480132B411F4427EA080400262146D7
:102AB0003046BDE8F08126A3D3E90023FDF752FBA1
:102AC00000220023FDF794FF0028F0D0002C27DB24
:102AD00000263446EBE7332D06DDB5F5806F1CD0BC
:102AE00010461946BDE8F081ACF2134C4FF0FF37A9
:102AF00027FA0CF70742F3D015A3D3E90023FDF71B
:102B000031FB00220023FDF773FF0028CFD0002CFB
:102B100033460CDB23EA0706C9E7FDF723FBE1E7B1
:102B200024F0004426430DD14FF00044BFE7142D9C
:102B300006D0C5F134050122AA401344B342E9D2BC
:102B40000134E7E70026054CB1E700BFAFF3008092
:102B50009C7500883CE4377EFFFF0F000000F0BF4B
:102B6000F8B5C1F30A5604460D4617460B462EBB70
:102B700021F00043034320D02D4B0022FDF7A8FC99
:102B80002C4B04460D469F4241DBC1F30A560B46CF
:102B9000363EBA1940F2FE718A4217DC002A30DC58
:102BA00012F1350F1EDB244E363220461E40234BD9
:102BB00046EA02510022FDF78BFCF8BD40F2FF729D
:102BC0009642E6D10246FDF7CDFAF8BD14A3D3E94B
:102BD0000023ED0F1A481C4665F3DF742146FDF70C
:102BE00077FCF8BD05F00044164844F0D27141F47A
:102BF000B7310DA3D3E9002341F01F01FDF768FCB5
:102C0000F8BD0D4E20461E4046EA0251F8BD06A30F
:102C1000D3E90023FDF75CFCF8BD00BFAFF30080F3
:102C20009C7500883CE4377E59F3F8C21F6EA501FD
:102C300000005043B03CFFFFFFFF0F800000903CBE
:102C40009C75008859F3F8C22DE9F04F016C9BB0D8
:102C500016461F46279D0490CDE9026749B1426C94
:102C60000123044693404A608B6056F0E9FD00233F
:102C70002364B7F10009C0F2B68000232B607E4BBD
:102C800033EA090300F0BA800022DDE90234184675
:102C900021460023CDE90801FDF782FE804668B198
:102CA0000123269A1360289B13B1744B289A136052
:102CB000DFF8CC8140461BB0BDE8F08F18AB04981C
:102CC000019319AB0093DDE9082357F0BFF9834660
:102CD0005FEA195540F0A980DDE91885454405F201
:102CE0003243202B40F34D82C3F1400309FA03F92C
:102CF00005F2124326FA03F349EA0300FDF76EFBDF
:102D0000013D0123A1F1F871109300225D4BFDF705
:102D100027FA53A3D3E90023FDF7DAFB52A3D3E943
:102D20000023FDF71FFA06460F462846FDF766FB0F
:102D30004FA3D3E90023FDF7CBFB02460B463046F9
:102D40003946FDF70FFA06460F46FEF7BDF800229A
:102D50008246002330463946FDF72CFE002840F01D
:102D60000382A8EB0508BAF1160F08F1FF330693AA
:102D700000F2A781444E06EBCA06DDE90801D6E958
:102D80000023FDF717FE002800F0848000230AF1DD
:102D9000FF3A0F9308F1FF33002BC0F29981002313
:102DA0000A93BAF1000F7BDA0A9BCDF82CA0A3EBB3
:102DB0000A030A93CAF100034FF0000A0E93249B02
:102DC000092B77D8052B40F3E181043B002724939E
:102DD000249B023B032B00F25986DFE813F05404D6
:102DE000510447042C04012329F000492B60224B95
:102DF000CDF80C9033EA09037FF446AFC9F3130909
:102E000042F20F73269A59EA060913601DD0289BD7
:102E1000DFF87880002B3FF44DAF08F10303289AC8
:102E2000404613601BB0BDE8F08FDDE90812CDF815
:102E30004080A5F2FF35C2F313030846DDF8608039
:102E400043F07F5141F440115FE7289BDFF8408059
:102E5000002B3FF42FAF08F10803E0E7AFF3008049
:102E600061436F63A787D23FB3C8608B288AC63F90
:102E7000FB799F501344D33F0000F07FD95F0900D6
:102E8000D85F09000000F83F401C09007460090089
:102E900068600900B8F1000F40F3B1840F900A9008
:102EA000069BCDF82CA05344069300230E93249B3D
:102EB000092B87D900230127CDE924334FF0FF33B5
:102EC0000C970793049B00215964079B1193049866
:102ED00056F090FC0590002800F0E185079B0E2B32
:102EE0008CBF002707F00107DDE904321A64002FC8
:102EF00000F01B810B9A002A40F34A81BC4E02F07D
:102F00000F03D4054FEA221806EBC303D3E9006789
:102F100040F17083B74B08F00F080325D3E908236D
:102F2000DDE90801FDF7FEFBCDE91201B8F1000F64
:102F300012D0DFF8C09218F0010F08D030463946A1
:102F40000135D9E90023FDF7C3FA06460F465FEACB
:102F5000680809F10809EED132463B46DDE9120165
:102F6000FDF7E0FB804689460F9B43B10022A24B50
:102F700040464946FDF71EFD002840F0478428469C
:102F8000FDF73CFA42464B46FDF7A2FA9B4B002266
:102F9000FDF7E8F8079B0646A1F15077002B00F0FB
:102FA000AB80079B0B9C1293059B404612995D1CBE
:102FB000CDE914678E4E06EBC10353E90212CDE949
:102FC00016124946FDF780FF00F13007FDF716FAAB
:102FD00002460B4640464946FFB2FDF7C1F8894616
:102FE0000C998046DDE91623002900F00F810020AE
:102FF0008349FDF797FBDDE91423FDF7B1F8059E42
:1030000042464B46377006460F46FDF7F1FC002856
:1030100040F02F850023CDF858A0CDF850B09A4647
:10302000DDF848B012942BE00AF1010ADA4580F28B
:10303000BD84304639460022724BFDF749FA002222
:10304000704B06460F4640464946FDF741FA894611
:103050008046FDF739FF0446FDF7D0F902460B46DE
:10306000303440464946FDF77BF832463B4605F88A
:10307000014B80468946FDF79DFC002840F09C846A
:1030800042464B4600205C49FDF76AF832463B4613
:10309000FDF790FC0028C7D0DDF850B02F46129CF9
:1030A000059902E08F4200F05F843A4617F8013D2F
:1030B000392BF7D00133DBB23B70DDF81480059279
:1030C0006BE101230F9308F1FF33002BBFF667AECE
:1030D000C8F101030A930023069362E62846FDF730
:1030E0008DF942464B46FDF7F3F90022434BFDF7BD
:1030F00039F80646A1F15077404649460022424B36
:10310000FDF72EF832463B4680468946FDF770FCB7
:10311000002840F0AD8340464946324607F100435F
:10312000FDF748FC002840F0D5810B9A199B0E2A28
:1031300002DC002B80F2AD810C9A002A00F0B580F1
:10314000249A012A40F38583079A0E9B551EAB42B1
:10315000C0F2C782002AA3EB050580F25B840A9BBC
:10316000079AA3EB0208C9E25046FDF747F9324639
:103170003B46FDF715FC00287FF4F3AD0AF1FF3A5A
:10318000EFE5C3F1200306FA03F0B7E501271FE6D8
:1031900000F0A3820B9B164E5D4205F00F0306EB79
:1031A000C303DDE90801D3E90023FDF791F92E11EE
:1031B000CDE9120100F052840E4C00230225804616
:1031C0008946F00709D5404649460135D4E9002330
:1031D000FDF77EF93B4680468946761004F10804E7
:1031E000EFD1002B7FF4C0AEDDE91289BCE600BF51
:1031F000401C0900181C09000000F03F00001C40A2
:103200000000E03F0000244000001440DDE914010C
:10321000FDF75EF9059B1F70129B012BCDE90C0198
:1032200000F00984129F059BCDF840A01F440022A6
:10323000AA4B40464946FDF74BF989468046FDF7C3
:1032400043FE8246FDF7DAF802460B460AF1300AE1
:1032500040464946FCF784FF05F801ABAF42804683
:103260008946E4D1DDF840A000229D4BDDE90C0148
:10327000FCF778FF42464B46FDF79CFB002840F0E8
:103280007B8300209649DDE90C23FCF769FF424669
:103290004B46FDF7ADFB002840F01982199B002B2F
:1032A00003DB0B9B0E2B40F3F58000230E9DDDF816
:1032B00028801E460C93B8F1000F0DDD06990029F9
:1032C0000B4609DD41450A9AA8BF4346D21AA8EB2E
:1032D0000308CB1A0A9206930E9B53B10C9B13B1B1
:1032E000002D40F01E8259460E9A049856F090FC2C
:1032F00083460121049856F0ABFB0746BAF1000F54
:1033000040F06381249B012B40F37A8101230699CD
:103310000B4413F01F0308D0C3F12002042A00F36A
:10332000B5810AD0C3F13C0300E01C230A9A9844FB
:103330001A440A92069A1A4406920A9B002B05DD4B
:1033400059461A46049856F0BDFC8346069B002B4E
:1033500005DD39461A46049856F0B4FC0746249B0E
:10336000022B0F9BD4BF00250125002B40F0BE800F
:10337000079B002B24DC1DB3079B002B00F08F81E3
:10338000259BDDF81480DC433946049856F058FA42
:103390001EB13146049856F053FA5946049856F037
:1033A0004FFA00220599631C0A70269A1360289B25
:1033B000002B3FF47FAC404619601BB0BDE8F08F96
:1033C0000C9B002B00F0AF80B8F1000F00F3C08120
:1033D000BAF1000F40F0D382B146059D079C6B1EE9
:1033E0001C44029B089403F00103049C0A93394691
:1033F000584655F09DF931468246584656F0D6FC5F
:103400004A4639468046204656F0F0FCC2680146DE
:103410000AF13003002A40F0A281CDE906035846A4
:1034200056F0C4FC06990690204656F009FA249BF3
:10343000069A52EA0301079B40F0C2810A9A002AC9
:1034400000F0F282B8F1000FC0F2AD81089AA846F0
:10345000AA4208F8013B00F0D282594600230A2212
:10346000204656F0F7F94E45834631464FF00003AB
:103470004FF00A02204600F09D8156F0EBF94946D4
:10348000064600230A22204656F0E4F945468146C6
:10349000ADE7144E0B9B06EBC306D6E90034CDE92D
:1034A0000234259B002B80F2E881079B002B00F360
:1034B000E481079B73B900220B4BDDE90201FDF7A4
:1034C00007F802460B46DDE90801FDF77DFA002802
:1034D00000F0CE8100273E4652E700BF00002440A6
:1034E0000000E03F401C09000000144039465846E7
:1034F00056F05CFC0028BFF63BAF0B9B59460A22F6
:103500000498013B0B93002356F0A4F90C9B8346CF
:10351000002B40F09282119B002B119B079302DC41
:10352000002D7FF429AFDDF814800125079CDDF81C
:10353000109007E0594600230A22484656F08AF9BF
:10354000013583463946584655F0F2F8A54200F158
:10355000300308F8013BEDDB079A0025002ACCBFB9
:1035600090464FF00108059A90445946012204986C
:10357000029356F0A7FB3946834656F017FC002805
:1035800040F3E481059A02E0904500F0D48118F8F8
:10359000013CC24608F1FF38392BF5D001330B9CB2
:1035A00088F800303946049856F04AF9002E00F0A9
:1035B000C8812DB1B54203D02946049856F040F990
:1035C000DDF81480CDF814A0E3E6014652460498D5
:1035D00056F01EFB249B0746012B40F395804FF0CD
:1035E000000A3B6907EB8303186956F0DDF9C0F167
:1035F00020038CE6DDE908340225CDE9123495E498
:10360000029B002B7FF482AEDDE90212C2F31303AA
:10361000002B7FF47BAEAD4B134033B10A9B0133DB
:103620000A93069B013306930123BAF1000F40F081
:10363000F9819A466AE601230C93259B0B9A134461
:1036400011930133012B1D460793B8BF0125172D98
:1036500040F31382012204235B001146013203F17F
:103660001400A842F8D9049B596430E401230C9358
:10367000259B002B40F3BE801D4611930793E6E780
:1036800000230C93D9E700230C93F1E7C3F11C034B
:103690000A9A19441A4498440A9206914DE639460A
:1036A0000522049856F0D6F807465846394656F093
:1036B0007DFB00287FF764AEDDF81480059B0B9C32
:1036C000013301340593312388F800305CE63A4633
:1036D00017F8013D302BFAD0EFE40225DDE9088927
:1036E00042E40E9B0E95EB1A00259A44DDE9063262
:1036F000134406930A9B984613440A9301210498A5
:1037000056F0A6F90646D6E5029B002B7FF467AF7C
:10371000DDE90201C1F313030A46002B3FF47BAF3E
:103720005DE7049C31462A46204656F071FA06466B
:103730005A462046314656F0B9F959468346204646
:1037400056F07EF80E9B5B1B0E933FF4D2ADCAE59C
:1037500031464246049856F0B5FA064638E60498D3
:10376000069356F06DF8B8F1000F069B08DB029A3D
:10377000249902F0010248EA010852EA08022ED117
:10378000594601220498029356F09CFA3946834622
:1037900056F00CFB0028029B40F36581392B00F0AA
:1037A00031810AF13103AA460B9C35464E460AF890
:1037B000013BF7E656F04EF845460646814616E6CA
:1037C000B8F1000FC0F25E81249948EA01080A9915
:1037D00051EA080800F05681002A7FF737AE392BEE
:1037E00000F01081AA46013335460B9C4E460AF87C
:1037F000013BD7E6012325930793FFF763BBC8F18D
:10380000010306900F900A93FFF74ABB079B002B1A
:103810003FF464AC119B002B7FF787AC0B9A4046BA
:1038200049461293541E2A4B0022FCF751FE804653
:103830008946681CFCF7E2FD42464B46FCF748FE11
:103840000022244BFCF78EFC0646A1F15077FFF7CF
:10385000ABBB109A002A00F08B8003F23343069A28
:103860000E9D1A4406920A9A90461A440A9245E717
:103870000027DDF814803E4620E7DDE90889DDE910
:10388000022340464946FCF74DFF059FFDF71CFB10
:103890000546FCF7B3FDDDE90223FCF719FE0B46F4
:1038A000024649464046FCF75BFC05F1300307F849
:1038B000013B079B012B00F08980CDF818B0012651
:1038C000DDF81C90DDE902AB22E000BF0000F07FD4
:1038D0000000244000001C4052465B46204629461A
:1038E000FCF720FF0136FDF7EFFA8046FCF786FD76
:1038F00052465B46FCF7ECFD0B4602462946204645
:10390000FCF72EFC08F13003B14507F8013B5AD013
:103910000022704BFCF7DCFD0022002304460D461C
:10392000FDF73EF80028D7D0DDF818B0DDF8148098
:103930000B9C059731E50B9C3123059A01341370DC
:1039400030E6DDF81480CDF814A026E503D1029B03
:10395000DB073FF517AE18F8013CC24608F1FF3807
:10396000302BF8D00B9C1DE601343123FFF7A4BBAC
:10397000189BC3F1360372E70599FFF796BB716890
:10398000049855F037FF0546002800F08F80336912
:1039900006F10C010C3002339A00FDF72BF9294691
:1039A0000122049856F08EF9814616E5DDF858A0FC
:1039B000DDF850B0FFF7B9BBDDF81480DDF850B08A
:1039C000129C0595E9E4DDF818B0454602460B4621
:1039D000FCF7C8FB80468946DDE90223FDF708F8BD
:1039E00048B940464946DDE90223FCF7D9FF0028E3
:1039F0009CD0E9079AD50B9C0599FFF756BB354635
:103A00004E46B2E5A84639233546059A4E4608F893
:103A1000013BBCE5069B134406930A9B984613445E
:103A20000A936BE69A46DCE5392BEBD0B8F1000F30
:103A30003FF7B7AEB7E62F4616E4314600230A2219
:103A4000049855F007FF119B0646002B119B079326
:103A50003FF7BAAC002D7FF48FACB5E4DDE91289F5
:103A60000225FFF781BA7FF49EAEDA077FF59BAEA1
:103A700094E6DDF8148005958FE40021049B5964D9
:103A8000FFF725BA002A3FF77BAE8CE6049B0025A2
:103A9000184629465D6455F0ADFE059068B90E4B99
:103AA00000224FF4D5710D484DF03AFA02460A4B08
:103AB00040F2EA2109484DF033FADDE90432259558
:103AC0001A644FF0FF33012211930C920793FFF712
:103AD0002CBB00BF00002440786009008C60090006
:103AE0002DE9F04F1C46794B9FB00E4600258346CA
:103AF000186807921A9508904EF042FB0021024682
:103B000033460020CDE904019846199313F801AB20
:103B1000BAF12D0F5ED801A151F82AF0B33C000094
:103B2000D53B0000D53B0000D53B0000D53B000055
:103B3000D53B0000D53B0000D53B0000D53B000045
:103B4000093B0000093B0000093B0000093B000065
:103B5000093B0000D53B0000D53B0000D53B0000F1
:103B6000D53B0000D53B0000D53B0000D53B000015
:103B7000D53B0000D53B0000D53B0000D53B000005
:103B8000D53B0000D53B0000D53B0000D53B0000F5
:103B9000D53B0000D53B0000D53B0000093B0000B1
:103BA000D53B0000D53B0000D53B0000D53B0000D5
:103BB000D53B0000D53B0000D53B0000D53B0000C5
:103BC000D53B0000D53B000087420000D53B0000FC
:103BD000A142000000230993BAF1300F00F068827F
:103BE00000230A93AAF13003092B00F25684002720
:103BF00040463D463C460130082C07EB870104F166
:103C0000010405EB850C199090F800A0CCBF03EBE4
:103C1000410703EB4C05AAF13003092BEBD90899B6
:103C200008924EF005FB089A8146002850D1199B56
:103C300001460894981819909B5CA3F13002092A58
:103C400000F2F082013192461998002A40F0F8847F
:103C5000431C19934378F0E74FF0010EB31C1993FE
:103C6000B378A3F1300CBCF1090F00F2F582199A78
:103C7000302B0B9240F02B83013219921378302BAA
:103C8000FAD0A3F131000B92082840F21E830022E3
:103C90000C9254BB0A9A0A4340F09882BAF1000F82
:103CA00007D1692B00F0398340F318826E2B00F0A6
:103CB0001B82079B4FF000084FF0000903B11E6004
:103CC000404649461FB0BDE8F08F00BFF0620900D2
:103CD0002AF02002002153460894452A89468A4644
:103CE00000F0AD820C91002CD4D0089A2846A24650
:103CF0001346002A08BF23460893FCF76FFB0B46C8
:103D00000246102CCDE904230C9BA8BF4FF0100AEB
:103D1000092CA3EB09030B9317DD544B03EBCA03E8
:103D200053E91223FCF7D4FB024638460F461646E9
:103D3000FCF754FB02460B4630463946FCF712FAB4
:103D40000F2CCDE9040100F3E1810B9B002B00F067
:103D500097820B9B40F3A782162B40F39A84C4F101
:103D600025030B9A934280F2DA84A4EB0A061644E8
:103D700016F00F000AD03D4901EBC001DDE9042334
:103D8000D1E90001FCF7A4FBCDE9040136F00F03F3
:103D90004ED0B3F59A7F00F34684102B4FEA2316DA
:103DA00040F3B285DFF8C8E04FF0000CCDF8289062
:103DB0007746E246F146DDE9042316F0010F10468E
:103DC00019464FEA66060AF1010A07D0D7E900232F
:103DD000FCF77EFB4FF0010C02460B46012E07F16B
:103DE0000807EAD1CE46DDF82890BCF1000F01D0DB
:103DF000CDE90423059B0EEBCA0E1E4EA3F15473AE
:103E00000593DDE90423DEE90001FCF761FB1A4BB1
:103E10000A460B40B342CDE9040100F2048417497D
:103E20008B4240F2FE844FF0FF33154ACDE9043255
:103E300000230A932346089A41465846009555F0B8
:103E40005BFD1590002800F0EE830B9A4FF0000AFE
:103E50000C9B002ACDF820A0A9EB0303A8BF0023E8
:103E60000C9322EAE2731493E2E000BF401C0900C5
:103E7000181C09000000A07C0000F07F0000907C6E
:103E8000FFFFEF7FD21A1F2AA4EB020400F3C682C1
:103E9000012300259340984626443C440A9BA742B0
:103EA0001E443B46A8BF2346B342A8BF3346002B5F
:103EB00002DDE41AF61AFF1A0C9B002B00F3548261
:103EC000002C00F36A820B9B002B00F39D82002ED6
:103ED00000F38E82002F08DD51463A46584655F0D1
:103EE000F1FE8246002800F08C824A461A99584614
:103EF00055F07CFF0890002800F08382089A002388
:103F0000D168D3600D91514655F050FF0028C0F2A2
:103F1000C584059F00F022845146089856F0F6F8B3
:103F200000224FF0804304460D46FCF74DFD00286B
:103F300000F00A820D9B002B40F07C82049B002B3A
:103F400040F06183C7F31303002B40F0E6820022A8
:103F5000AB4B20462946FCF72DFD002840F0F583A9
:103F60002046A84B29460022FCF7B2FA03460C462D
:103F70000E90CDE9123401F100430F93A24EA34BF2
:103F80003E409E42DDE90E4500F05B820A9B23B372
:103F9000B6F1D46F21D8DDE9127897A3D3E90023D5
:103FA00038464146FCF710FDA0B141463846FCF7C3
:103FB00029FD012838BF0120FCF710FA0D9BCDE93F
:103FC0001201002B40F0378301F100431690179344
:103FD000DDE9164505F1D6639D1BDDE9107838460D
:103FE000414655F0B3FF02460B4620462946FCF7F2
:103FF0006FFA3A464346FCF7B5F80C46CDE90401A2
:10400000814B2340B34203D10A9B002B00F08E82E8
:104010001A99584655F014FC4946584655F010FC7C
:104020005146584655F00CFC0899584655F008FC86
:10403000159C5846616855F0DDFB8146002800F06C
:10404000E081226904F10C010C3002329200FCF78D
:10405000D1FD1CAB584601931BAB0093DDE9043442
:104060001A46CDE91034234655F0F0FF1A90002887
:1040700000F09C810121584655F0EAFC8246002858
:1040800000F0BF811B9B002BC0F2AE810C9A149EE6
:104090009F180A9A1C9C9B1A5D4A2344C4F136045B
:1040A000013B9342FFF6EEAE012300259846F3E66E
:1040B00098F8013003F0DF03582B00F07582434677
:1040C0000133199393F800A0BAF1300FF8D0984655
:1040D000BAF1000F7AD001230A9383E5492B00F04F
:1040E0001C814E2B7FF4E5AD4A4919A857F0BEF864
:1040F00000283FF4DEAD199B1B78282B00F07E834F
:10410000454857F0BFF98046894663E0A4EB0A06AC
:104110000B9B1E44002E3FF72BAE3FF489AE764238
:1041200016F00F020AD03D4B03EBC203DDE9040198
:10413000D3E90023FCF7F6FACDE9040136113FF488
:1041400077AE1F2E3FDC16F01003354F4FF0000CFA
:1041500018BF6A230A93DDE9042316F0010F104605
:10416000194607D0D7E90023FCF7B2F94FF0010C4C
:1041700002460B46761007F10807EED1BCF1000F9E
:1041800001D0CDE904230A9BA3B1DDE90401C1F309
:104190000A52C2F16B03002B0ADD1F2B40F3FA8396
:1041A0000020342B049040F321844FF05C7305937E
:1041B0006A230A9300220023DDE90401FCF7F0FBE7
:1041C00000283FF437AE2223CBF800304FF0000830
:1041D0004FF00009079A0AB1199B1360099B002B45
:1041E0003FF46EAD09F100434046994649461FB081
:1041F000BDE8F08FAFF300800000C0FFFFFFDF419C
:104200000000F03F0000E03F0000F07F0000E07F92
:1042100002FCFFFF64610900FC6B0900401C0900FF
:10422000081D09004FF0010A23F02002452A7FF4FF
:104230002EAD44EA01030A9A13433FF43AAD199EA6
:10424000731C199373782B2B00F023812D2B3FF4D3
:1042500003AD4FF0000E04E5002219960C9218E50C
:104260001C9A03F2334304921D9A22F4801242EA0C
:1042700003530593210703D5059B43F000430593A2
:10428000DDE90489A6E70023099308F101031993E6
:1042900098F801A0BAF1000F3FF40BAD98469BE4EB
:1042A00001230993F1E71633FFF630AF0C9BA9EB1E
:1042B0000309B34B03EBC903DDE90401D3E9002390
:1042C000FCF730FA8046894684E7A3F1300C0B9B5B
:1042D000581C19905B78A3F13002092A00F2D181B1
:1042E00001300CEB8C0C199003EB4C0C0378ACF107
:1042F000300CA3F13002092AF2D90B9A801A08284F
:1043000040F3BF8144F61F620C92BEF1000F3FF4F0
:10431000C0AC0C9A52420C92BBE49A4919A856F0D0
:10432000A5FF00283FF4C5AC199B19A89649013B8D
:10433000199356F09BFF10B9199B013319934FF055
:104340000008DFF8489245E7914B204629460022B5
:10435000FCF7BEF80D9BCDE91201002B65D101F1F0
:1043600000430E900F9309E651461A46584655F001
:104370004FFC8246002844D001461A9A584655F010
:1043800095FB00283DD00D9058461A9955F058FAE3
:104390000D9B002C1A937FF796AD22461A9958462A
:1043A00055F090FC1A9000287FF48DAD4F460546DD
:1043B00022234FF00008DFF8D491CBF800302946D3
:1043C000584655F03DFA3946584655F039FA5146A7
:1043D000584655F035FA1599584655F031FA08996E
:1043E000584655F02DFAF5E6149A0C9FD61A50E669
:1043F00049463246584655F065FC814600287FF410
:1044000069AD4F461A9DD3E74946149A584655F070
:10441000FFFB814600287FF45AADF2E75D4AD31ACC
:10442000012202FA03F5904636E5DDE91234CDE9C2
:104430000E34A3E50023584CCDE90E34CDE91234F7
:104440009CE5A7F15473514F0593DDE904452046DF
:10445000294655F07BFDDDE90E23FCF739F82B46A4
:104460002246FBF77FFE4D4B0F409F42CDE90401F2
:1044700040F2DD8003F15473DDE91001994202D16D
:10448000B0F1FF3FBDD04FF0FF33454ACDE90432D4
:10449000BEE54FF0000EFFF7E1BB089940460B92D6
:1044A0004DF0C6FE0B9A089048B1002253461746BD
:1044B000924615461146914614460892B4E6199B59
:1044C000981819909B5C302B40F0278102461146CA
:1044D000013219921378302BF9D0C0F10100014458
:1044E000A3F13102082A10D8DDF864800025A3F179
:1044F000300A01F10109012440462F4605EB8505EC
:1045000000210AEB4505FFF7A3BB4FF000094FF070
:10451000010A4C464F464D4686E60023214CCDE924
:104520000E3400231C4CCDE9123427E5DDE9125688
:10453000C4F3130728463146FDF78CFBFBF79AFFBF
:1045400002460B4628463146FBF70AFE049D0D9EA7
:1045500004462E430D46374343D107A3D3E9002336
:10456000FCF728FA00283FF453AD4F461A9DDDE9C9
:10457000048924E7AFF300809535A094FFFFCF3F77
:10458000401C0900586109005C6109000000F07FCF
:104590000000E03FE2FBFFFF0000F03FFFFF9F7CD9
:1045A000FFFFEF7F0000F0BF099B19A90294584656
:1045B00001931AABB04A00931BAB56F05BFB10F0B3
:1045C000070504463FF402AE062D7BD1079A12B1CF
:1045D00008F1010313604FF000084FF00009FFF7E6
:1045E0006FBBA1A3D3E90023FCF7E4F90028BCD1F9
:1045F000204629469EA3D3E90023FCF7F9F90028B9
:104600003FF406ADB1E7049B012B86D1002F84D186
:104610004F461A9C222325464FF000084FF0000910
:10462000CBF80030CBE62223CBF8003087E601F14F
:1046300054740594E4E4DDE91234CDE91634C7E49A
:10464000012900F0138204EB010E0EF1FF3CCDF8BE
:104650002CE003E04FEA4E05A4450BD0082C05EBF7
:10466000850E04F10104F5D907EB8703102CD8BFA0
:104670005F00F1E7DDF82CE0082C894416DC744675
:104680003CE744F61F629445A8BF9446CDF830C07D
:104690003BE60B98794901EBC001DDE90423D1E940
:1046A0000001FBF715FF8046894693E5BEF1100F28
:1046B00074464FF00001DCBF07EB870702EB4707AA
:1046C000FFF7C6BA1A9A3AB135211CA855F048FD31
:1046D00058461A9955F0B4F8013D1B9B042D3FF63E
:1046E000C9AD01A252F825F0614200001147000057
:1046F0000B470000FD460000614200004FF0FF3311
:104700006FF00040CDE90430B4E55D4B0593B1E5B1
:104710001C9B04931D9B0593ACE50899E0E6C4F14E
:104720000F04564D05EBC401DDE90423D1E9000176
:10473000FBF7CEFE0B9B1C1B05EBC405D5E9002344
:10474000FBF7C6FE8046894644E500234D4CCDE983
:104750000E3400234C4CCDE912340FE43B460D9847
:10476000C4464F46AE464949C3F31302DDE91089FA
:1047700000285BD08A4200F0FB80B5BB049A1CEA9B
:10478000020F35D040464946049355F0DFFB0A9BA3
:1047900004460D46002B00F01F81049BC3F30A530F
:1047A000C3F16B06002E40F36481394C002204EB08
:1047B0000653FBF78DFE02460B4640464946FBF783
:1047C000D1FC1A9C8046894640464946314B00221E
:1047D000FBF77EFE0B4625468046034389467FF461
:1047E000EEAD2223CBF80030E9E51EEA030FC9D174
:1047F0001A9C0A9B2546002BE6D1E0E519A81CAAC5
:10480000254956F04DFD05287FF47AAC1D9B43F0F9
:10481000FF4343F4E00305931C9B0493DDE9048903
:10482000D8E402F154730593FFF702BB002A71D15B
:10483000DDE904452246002C40F0B4800A9A002AA3
:1048400040F0F08025F00044240D2405A4F58014E8
:104850001A9D6FEA14536FEA035305934FF0FF3329
:104860000493DDE90489AAE59535A094FFFFDF3FB5
:1048700035E5AF350000E03F7C610900401C0900D0
:104880000000F07F0000E0BF0000E03FFFFF0F00EE
:104890000000F03F00005039686109000D9B4F4651
:1048A000DDE90401DDE910890343A1D1C1F313035C
:1048B000002B9DD121F00044240D2405B4F1D66FC6
:1048C000264695D9089A536913B91369012B8FDDD0
:1048D00008990122584655F0F5F95146089055F0CF
:1048E00065FA002884DD0A9B002BAFD0A6F5801363
:1048F0001A9C6FEA13536FEA035305934FF0FF338B
:104900000493DDE904895FE74FF0000ADFF87CE1FA
:10491000FFF770BA002D48D1049A1CEA020F3FF449
:1049200067AF40464946049355F010FB0A9B002BA5
:1049300040D0049BC3F30A53C3F16B06002E40F32F
:10494000A280534C002204EB0653FBF7C1FD024644
:104950000B4640464946FBF703FC002200238046F5
:104960008946FCF71DF800287FF453AE1A9C2BE70C
:10497000DDE904010A9A0446002A40D102460132C8
:104980006DD0BEF1000F7FF430AF14EA0C0F3FF48E
:104990002FAFF7E64FF0FF3202FA03F3049A1A4002
:1049A000049205E4BEF1000FB7D01EEA030F3FF4F6
:1049B0001FAFB6E702460B4640464946FBF7D0FB21
:1049C0001A9C00220023804689462546FBF7E8FF13
:1049D00000283FF4F4AC1DE6404649462B462246EB
:1049E000FBF7C0FB1A9D80468946E8E4C2F14B0202
:1049F0004FF0FF3393400B400593FFF7D9BB254A97
:104A00001A40B2F1D46F21D9611CBAD122498B422C
:104A10003FF4F8AC02F58013059300230493DDE91D
:104A20000489E5E61B4E1E40B6F1D66F3FF65EAF39
:104A30001A9DB6F15C7F2C463FF6C6AE22234FF09E
:104A400000084FF00009CBF80030B8E4100D4FF02B
:104A5000FF31C0F16B0081408C4292D1DAE70E4AFF
:104A600093423FF4CFAC01321A40D3E704F1010E78
:104A700002E64046494622462B46FBF773FB1A9C4A
:104A800080468946A0E602460B4662E7181C0900EC
:104A90000000F03F0000F07FFFFFEF7F000000000C
:104AA0002DE9F04F012984468E4687B064D800294D
:104AB00042D033A3D3E9002333A7D7E9006734A555
:104AC000D5E900450FF2D00BDBE900AB34A1D1E909
:104AD0000001CDE9042334A3D3E90023CDE9002369
:104AE00033A3D3E90023CDE9022333A3D3E9002381
:104AF0004FF000084FF00009CCE90A01DDE904019C
:104B0000CCE90C01DDE90001CCE90E01DDE902018F
:104B1000CCE910010020CCE90089CCE90289CCE97C
:104B20000467CCE90645CCE908ABCCE91223CCF804
:104B3000D0E007B0BDE8F08F21A3D3E9002322A77E
:104B4000D7E90067CDE9042321A5D5E9004522A3D3
:104B5000D3E900230FF2880BDBE900ABCDE900239A
:104B600021A1D1E9000122A3D3E90023CDE9022349
:104B700021A3D3E90023BBE76FF07400D9E700BF9E
:104B8000310BC0FF67263367D89E05C15D9DBBCB47
:104B900007D57C362A299A6217DD70305A0159915F
:104BA00039590EF7D8EC2F1511155868874AB48E6D
:104BB000A78FF9640D2E0CDBA44FFABE1D48B54734
:104BC000D182E6AD7F520E5108C9BCF367E6096A8F
:104BD0003BA7CA8485AE67BB1F6C3E2B8C68059BC8
:104BE0002BF894FE72F36E3CF1361D5F3AF54FA53B
:104BF0006BBD41FBABD9831F79217E1319CDE05BDF
:104C000030B58DB00BF034F8014628B113480DB023
:104C1000BDE830405DF059BD114B5B7CDB0714D51E
:104C2000104D02AC0FCD0FC42B6802A823600123E6
:104C30000D49009303220D4B0AF0E8FF014610B125
:104C40000B485DF042FD0DB030BD0A4D07AC0FCDF5
:104C50000FC42B6807A82360E9E700BFA26E090014
:104C60007D12002020030800B81F0900B01F0900B2
:104C7000C76E09003403080010B5044604485DF00F
:104C800024FD2046BDE81040052161F063BC00BF53
:104C9000ED6E090030B593B016F09AFC4422002165
:104CA000054601A84CF04CFB0123124C237421F063
:104CB000D3FB637CA0B903F0FE036374294644234D
:104CC0000D4801AA64F09FFE10B9019B052B0ADC78
:104CD000637C23F0020363748023E37413B030BD5C
:104CE00043F00103E9E7637C43F0020363749DF83A
:104CF0003C30F2E77D1200200600565108B5FFF760
:104D0000C9FF03210123064A06480AF019FE01469D
:104D100020B1BDE8084004485DF0D7BC08BD00BF25
:104D2000B01F0900B81F0900156F090070B503789E
:104D30008AB004460E4607AD032B20D8DFE803F007
:104D400002191B1D114928464CF0CCFF05956378CC
:104D50001E210493A37830460393E3780C4A029310
:104D60002379019363790093A3795DF0BBFC0AB0CA
:104D700070BD0849E7E70849E5E70849E3E70A2184
:104D80002846074A5DF0AEFCE0E700BF416F09002E
:104D9000636F0900486F09004F6F0900596F0900E0
:104DA000D7A8090030B5154689B00C4661F056FC0D
:104DB0006946FFF7BBFF35B92246694605485DF0F5
:104DC00084FC09B030BD2B462246694602485DF09E
:104DD0007CFCF6E7866F0900A96F090010B50C4648
:104DE00090B010466946FFF7A1FF204608A9FFF7DB
:104DF0009DFF6A46024808A95DF067FC10B010BD2F
:104E0000D26F090010B50C4688B061F027FC6946E6
:104E1000FFF78CFF2246694602485DF056FC08B059
:104E200010BD00BFF26F090000B589B061F016FC3B
:104E30006946FFF77BFF694602485DF046FC09B012
:104E40005DF804FB1870090010B50C4688B061F0DD
:104E500005FC6946FFF76AFF22460A4C69460A4884
:104E60005DF033FC4FF400420023204607494AF02E
:104E7000C5FD00220023204605494AF0BFFD08B0C9
:104E800010BD00BFC01B002033700900901B002024
:104E9000601B002000B589B029B10A4809B05DF84F
:104EA00004EB5DF012BC61F0D9FB6946FFF73EFFF1
:104EB000694605485DF009FC044877F011F909B02E
:104EC0005DF804FB597009007D700900601B00202B
:104ED00070B590B016F07CFB05680646494820F096
:104EE00021FD014610B148485DF0EFFB20F0E4FCE5
:104EF000014610B145485DF0E8FB00214FF4004049
:104F00004BF0D2F942480CF075F842480CF08CF89E
:104F1000002009F09BFF014618B13F485DF0D5FB2A
:104F200031E03E485DF0D1FB21F0B0FA044638BBD9
:104F30003B485DF0CAFB3B4A2D691046E9785CF0BE
:104F4000E2FF901C29795CF0DEFF101D69795CF0AE
:104F5000DAFF52F8020CD2F8021003AB8DF81440BD
:104F600003C303A809F052FF2F4B5B7CDB070DD472
:104F70002E4D0BAC0FCD0FC42B680BA823600CE09B
:104F80002B485DF0A2FB002010B070BD294D06AC8F
:104F90000FCD0FC42B6806A82360012303220093C2
:104FA0002549264B0AF032FE044610B1014624483A
:104FB000B4E724485DF089FBFFF76CFE224877F0E8
:104FC0007BF805234FF4805220491F4800944AF093
:104FD0006BFC1F491F4877F075F81F491F4877F091
:104FE00071F800F019FC00F085FA2346224631469C
:104FF0001B4821F0B3FF00214FF400404BF054F95F
:10500000F9E700BFE31E06008E700900AC700900CE
:105010006008002050080020C7700900E8700900EF
:1050200000710900931200207D1200203403080053
:105030003171090020030800B81F0900B01F0900E2
:105040006D71090096710900C01B00203088002096
:10505000014C0000901B0020FD4C0000601B002054
:105060006E00565198B503460F4800AF026802F033
:105070000702022A16D919680C4A0D4B6C4688B0F3
:10508000002918BF13466A460A49C2E905134FF4BE
:1050900000739383084B4FF4E65142F8103F5CF0E5
:1050A00040FFA546BD4698BD48140020BC710900CC
:1050B000C2710900CB710900030000012DE9F04F16
:1050C0009D4B83B0994202AF07D00133994200F063
:1050D0002E810437BD46BDE8F08F8568974C2A784D
:1050E0002368012A03F007030ED1022B05D9AB79FF
:1050F00003212046924A5EF0B7FD0021914B0846FD
:10510000197020F0A1FCE4E78F4AA9791170EA78C0
:10511000002A40F00381022B14D9A87815F010FE64
:105120006E4688B002AA894B4FF4E651C2E90530B9
:105130004FF400739383864B204642F8103F5CF097
:10514000F0FEB546AB78042BC3D101217D4B002086
:10515000197020F079FC236803F00703022BB8D9FB
:1051600003217C4A75485EF076FD236803F007034F
:10517000022BAED96B790321774A70485EF074FD3B
:10518000236803F00703022BA3D9AB790321734AE9
:105190006A485EF069FD236803F00703022B98D983
:1051A000687815F0C1FDE84688B002AA4FF4007A8D
:1051B0006B4BDFF89C91C2E90530A2F81CA04FF4BC
:1051C000E6515E4842F8109F5CF0ABFE2368C5468E
:1051D00003F00703022B7FF67CAF2A7C614EDFF8D9
:1051E00088B188B0002A0CBF33465B4602AA5F49EB
:1051F000A2F81CA0C2E9051350484FF4E65142F84A
:10520000109F5CF08EFE2368C54603F00703022B57
:105210007FF65FAFAA7C88B0002A0CBF33465B469E
:1052200002AA5349A2F81CA0C2E9051343484FF44F
:10523000E65142F8109F5CF074FE2368C54603F007
:105240000703022B7FF645AFEA7C88B0002A0CBF2B
:1052500033465B4602AA4749A2F81CA0C2E90513DF
:1052600036484FF4E65142F8109F5CF05AFE23682E
:10527000C54603F00703022B7FF62BAF6A7C002A9A
:105280000CBF33465B466E4688B002AA3A49A2F884
:105290001CA0C2E9051329484FF4E65142F8109FBB
:1052A0005CF03FFE2368C54603F00703022B7FF640
:1052B00010AF6B694FF47A7200930321B3FBF2F3E2
:1052C0001E482E4A5EF0DAFC236803F00703022B27
:1052D0007FF6FFAED5E902898AB002AD284B294A94
:1052E0006B61404600234946FBF74CFC06232A46E7
:1052F000C5E90601C5E908894FF4435142F8103F5A
:105300000E485CF00EFE2368B54603F00703022B3F
:105310007FF6DFAE03211C4A084805E0022B7FF62A
:10532000D8AE03212046194A5EF095FCD1E680688C
:10533000FFF798FECDE600BF060056D148140020C6
:10534000EA710900C47C0020991200201072090043
:105350000300000139720900597209006E720900D8
:105360007E720900E4710900DF710900977209007B
:10537000A9720900BA720900CB720900DB72090038
:10538000FC72090040420F001B73090021720900E2
:10539000F0B58DB000AF16F08BFD28220021044639
:1053A00007F108004BF0CCFF0123454945480A7836
:1053B0000578BA737B73002D42D1BB764FF6E85364
:1053C000FB610023404AC7E90423282321463F48C4
:1053D00007F1080215F0F2FC3D4C05462368002851
:1053E0003CD05B0729D0387A15F08EFC0446787AD9
:1053F00015F09AFC97F828306D460A2B98BF354A6D
:105400008CB094BF52F82330334B6A463349D06195
:10541000C2E9051432491362396040F20241B98091
:1054200079682F482F4B5062118529484FF451510C
:1054300042F8103F5CF075FDAD464FF0FF353AE0A5
:10544000072A98BF01323B72BB7298BFD3B20B7070
:1054500000210170084620F0F7FAB6E703F00703D1
:10546000022B28D9032120461F4A5EF0F4FB236853
:1054700003F00703022B1ED9387A15F045FC6E465F
:1054800088B06A46194B4FF4E651C2E905304FF433
:1054900000739383164B204642F8103F5CF041FDA9
:1054A0002368B54603F00703022B04D903212046E5
:1054B0000D4A5EF0D0FB28463437BD46F0BD00BF34
:1054C00099120020C47C0020809698000800565154
:1054D00048140020D01F09003B73090045730900E0
:1054E00000020103050000036473090084730900CE
:1054F000030000010348044B4360044B036117F0B1
:105500005DB900BF204A0020BD500000070056D101
:1055100008B5084803685B0703D00121064A5EF01E
:105520009AFB064818F034FB054B1A68054B1A60C5
:1055300008BD00BFEC130020A37409005C4A0020E2
:105540004C4A0020504A00202DE9F04391B0054616
:1055500000AF46480C46166876F0C2FD00210120D7
:1055600020F072FA4FF004090023204607F10801E9
:10557000C7E90239C7E90433C7E9063318F0C6F9A9
:10558000804628B96FF001004437BD46BDE8F0837E
:105590004946204665F0A9FB204665F0D0FC03286B
:1055A0001DD92046391D65F069FC0028EAD167F055
:1055B000E2FE7B682E4AC01AC0F30E03A3FB023141
:1055C000DB0B43EA414310217860C00B02FB003340
:1055D000284A7818B3FBF2F3274A4CF061FA07F136
:1055E000200910234A4606F10C01012060F02EFB31
:1055F00010230120F11807F1300260F027FBB8F802
:1056000002101E4B1E4849BA89B21960036803F0A4
:105610000703022B1ED9738896F808C05BBA6E4642
:105620009BB28CB0043B6A46DFF858E0C2E90791B0
:10563000C2E905E307F110039362134BC2F824C0DB
:10564000D362124B42F8103F002344F2C00102F033
:105650008FFFB546204665F05DFA284618F098FAA7
:10566000386E49F033FF00208EE700BFA81C0020F1
:1056700000CA9A3B40420F00C17409004C4A002006
:10568000EC130020CC74090001030406070000029B
:105690002DE9F04389B002AF15F09AFF0022404E89
:1056A000814633681146013333603E483E4B18F063
:1056B00047FA3E4D044610B32B685A0715D04CF0FC
:1056C00055FDE8468AB002AA394BC2E9053440F2DA
:1056D00001331384374BD06142F8103F00234FF45D
:1056E0001151284602F044FFC546334B40F2676231
:1056F0001B683248336000234AF0AEF94CE0DFF813
:10570000C080D9F8CC300122C8F804303368A8F83A
:105710000020FB804FF0FF33C7E903300423B8803B
:1057200038727B61DFF89C900146484676F0DCFBDE
:1057300015F04EFF3B1D014642461A48CDF8009039
:1057400018F05AFA2B6888B15B07CED060F0CCF81D
:10575000D0F8009060F0C8F800684CF007FDE8460B
:105760008AB002AA184BC2E90539B0E703F0070373
:10577000022B05D9336803212846144A5EF074FAD7
:105780004FF4004200230F4849F0C6FE4FF4F022C8
:1057900000230F484AF02CF91C37BD46BDE8F083C2
:1057A000504A00205C4A002049550000EC130020BC
:1057B000F8740900040000014C4A0020D81C0020A5
:1057C000544A0020344A0020167509003275090039
:1057D000A81C0020084B1A68084B1B689A4207DA7D
:1057E000074803685B0705D00121064A5EF033BA1B
:1057F000FFF74EBF704700BF4C4A0020504A0020C0
:10580000EC130020497509000022002301484AF0EA
:10581000EFB800BFD81C002008B504F043F9064BD0
:1058200006491860064876F04DFCBDE80840054979
:10583000054876F047BC00BF704A0020D5570000ED
:10584000D81C002011550000A81C002010B5094CE0
:105850000A44914200D110BD11F8013B58400309A0
:10586000E35C0001C0B243401809205C1B01DBB2BD
:105870005840EEE76175090008B500F0B7F801225D
:1058800000230949C0E9002241610849C0E9023307
:105890000A60074903610A60064A1360064A1360FA
:1058A000064A136008BD00BFC7450A0094080020DF
:1058B000900800207C4A0020784A0020744A00208A
:1058C0002DE9F04107460E46154600F08FF8C368F3
:1058D00004461BB943691A78002A41D10023E360CA
:1058E0006368BB4256F8232008DB324B63612046D5
:1058F00000F062F84FF0FF30BDE8F081511C6161AB
:1059000092F80080B8F12D0FEFD1911C61615178B0
:105910002D29A16004D192786AB901336360E4E76C
:1059200049B9244B4146284663614CF073F900287D
:10593000DDD0C4F80880D4F80880284641464CF0F1
:1059400069F9B8F13A0F636900D070B91B7813B9DF
:10595000636801336360204600F02EF83F20CBE7F8
:105960005A1C42611B788360E5E742783A2A0BD0E3
:10597000002222611B7813B96368013363602046FB
:1059800000F01AF8A068B7E718786268094928B9E2
:1059900001329742626004DD56F82230C4E90431D6
:1059A000EAE761612D7820463A2DD5D100F004F860
:1059B0002846A1E7C7450A000268074B1A604268FB
:1059C000064B1A608268064B1A60C268054B1A6063
:1059D0000269054B1A607047940800209008002067
:1059E0007C4A0020784A0020744A00200048704712
:1059F000780800202DE9F04F91B0009302F00403E5
:105A00000293C2F3C2030133840705460E46DDF854
:105A100068900392059340F0BB81041D30B10729C3
:105A200009D86FF01B0011B0BDE8F08F01F0070638
:105A3000341DC6F10806009B4FF000084FF0040A21
:105A4000591E4FF0FF3347460193C3465346CDF8E6
:105A500010800DB1009A22600598002800F3E880BC
:105A60009848009A824203D397488242C0F0E0806F
:105A7000039AA4EB050E92074FEA9E0000F1038102
:105A80000F2F00F2B180002D00F0058107F14002D8
:105A90000DEB020C019A0CF8200C0CF8102C049859
:105AA00001300490E7E07A285DD84B280ED84728CB
:105AB00059D829282DD8252852D054D820287AD032
:105AC0002338D0F1000B4BEB000B74E04C382E2840
:105AD00049D8DFE800F070484848484848484848F6
